:020000040800F2
:1000000008050020ED01000813200008711E0008FB
:1000100011200008830700082528000800000000C0
:10002000000000000000000000000000ED220008B9
:10003000850700080000000015200008EF220008D6
:10004000070200080702000807020008070200086C
:10005000070200080702000807020008070200085C
:10006000070200080702000807020008070200084C
:10007000070200080702000807020008070200083C
:10008000070200080000000007020008070200083D
:10009000070200080702000807020008070200081C
:1000A000070200080702000807020008070200080C
:1000B00007020008070200080702000807020008FC
:1000C00007020008070200080702000807020008EC
:1000D00007020008070200080702000807020008DC
:1000E00007020008070200080702000807020008CC
:1000F00007020008070200080702000800000000CD
:1001000000000000070200080000000007020008CD
:1001100007020008000000000702000807020008AC
:10012000070200080702000807020008070200088B
:10013000070200080000000000000000070200089D
:10014000070200080702000800000000000000008D
:10015000000000000000000000000000000000009F
:10016000000000000000000000000000070200087E
:10017000070200080000000000000000000000006E
:10018000000000000702000800000000000000005E
:10019000000000000000000000000000000000005F
:1001A000000000000000000007020008070200082D
:1001B000070200080702000807020008000000000C
:1001C000000000000702000800000000000000001E
:1001D0000702000807020008DFF80CD000F050FA10
:1001E00000480047313200080805002006488047D3
:1001F00006480047FEE7FEE7FEE7FEE7FEE7FEE70C
:10020000FEE7FEE7FEE7FEE761230008D9010008EC
:100210002DE9F05F0546002092469B46884606463B
:10022000814640241BE0284641464746224600F0CE
:100230005EF853465A46C01A914110D311461846EB
:10024000224600F045F82D1A67EB01084F4622467A
:100250000120002100F03CF817EB00094E41201E60
:10026000A4F10104DFDC484631462A464346BDE896
:10027000F09FD2B201E000F8012B491EFBD270477B
:100280000022F6E710B513460A4604461946FFF762
:10029000F0FF204610BD421C10F8011B0029FBD1C5
:1002A000801A704730B50B460146002020220124F9
:1002B00009E021FA02F59D4205D303FA02F5491B34
:1002C00004FA02F52844151EA2F10102F1DC30BD4A
:1002D000202A04DB203A00FA02F100207047914006
:1002E000C2F1200320FA03F3194390407047202AFB
:1002F00004DB203A21FA02F00021704721FA02F3D0
:10030000D040C2F1200291400843194670472DE9C0
:10031000FE4F804681EA0300C00F0C46009021F09A
:10032000004123F00045B8EB0200A94105D2404648
:10033000214690461C460B46024623F000401043DF
:1003400047D0270DC7F30A00C3F30A510290401AA1
:10035000019040286BDAC3F3130040F4801B00982F
:10036000924620B10023D2EB030A63EB0B0B0198FA
:100370005946C0F140025046FFF7AAFF06460D4617
:1003800050465946019A00F08DF910EB0800614182
:10039000002487EA115284EAE7731A4340D0009A96
:1003A00062B3019A012A4FEA075215DC001B61EB88
:1003B00002014FF0004202EA0752CDE90042001C60
:1003C00041F5801132462B4600F08DF903B0BDE8AF
:1003D000F08F40462146F9E7001B61EB0201001C4B
:1003E00041F5801300185B412018A2F5001747EB78
:1003F000030140EAD570B6196D4111E06D084FEA6E
:10040000360645EAC0754FEA0752001B61EB020150
:10041000001C41F5801149084FEA30000019514194
:1004200032462B4603B0BDE8F04F00F04DB90098BE
:10043000012240000023D0EB020263EBE07300983E
:1004400021464FEAE074B8EB000061EB0401E9E7F4
:1004500083F000435BE781F0004158E72DE9FE4F50
:1004600081EA030404F0004421F0004100944FF0BD
:10047000000B23F0004350EA01045ED052EA03046B
:100480005BD0C3F30A54C1F30A552C44A4F2F334ED
:100490000194A0FB0254C1F3130141F48011C3F392
:1004A000130343F4801301FB024400FB034E840A50
:1004B000970A44EA815447EA8357A4FB07680295E8
:1004C0008D0A05FB07854FEA932C04FB0C54270586
:1004D000029D4FEA065847EA1637B5EB08056EEB62
:1004E000070C870E920E47EA811742EA8312A7FB98
:1004F0000201B6EB0B0164EB00042B0D43EA0C3355
:100500005E1844EB1C50DA465146E7FB0201C5F386
:1005100013044FEA0B3343EA14534FEA0432019CAD
:1005200043EA0603A4F10C040294009CCDE900B454
:1005300000F0D9F803B0BDE8F08F00200146F9E7DC
:100540002DE9F04D81EA030404F0004B21F0004551
:1005500014464FF0000A23F0004150EA050220D073
:1005600054EA01021DD0C5F30A570246C5F313032E
:10057000C1F31300C1F30A5640F4801543F480130D
:10058000A7EB0608101BD64608F2FD3873EB0500F2
:1005900002D308F1010801E092185B41B8F1000FA5
:1005A00003DA00200146BDE8F08D00204FF48011F1
:1005B000064684460EE0171B73EB050705D3121B96
:1005C00063EB050306434CEA010C49084FEA30008F
:1005D00092185B4150EA0107EDD152EA030012D0B4
:1005E00082EA040083EA0501084305D0101BAB41F1
:1005F00006D20122002306E000224FF0004302E071
:100600006FF0010253101AEB06004CEB085110EB8F
:100610000A0041EB0B01BDE8F04D00F055B8C1F305
:100620000A52C1F3130140F2FF3341F480119A42A0
:1006300002DA00200146704740F233439A42A2F2A8
:10064000334202DC5242FFF752BEFFF741BE0000C8
:1006500030B5041E71F1000404DB4FF00044404249
:1006600064EB0101141E73F1000405DB1C464FF01E
:100670000043524263EB0403994208BF904230BDED
:10068000064C074D06E0E06840F0010394E80700DF
:1006900098471034AC42F6D3FFF7A2FD7833000838
:1006A00098330008202A06DBCB17203A41FA02F0E3
:1006B00043EAE07306E041FA02F3D040C2F12002BF
:1006C000914008431946704710B5141E73F1000499
:1006D00008DA401C41F1000192185B411A4301D134
:1006E00020F0010010BD2DE9F04D92469B4611B15E
:1006F000B1FA81F202E0B0FA80F220329046FFF7C0
:10070000E7FD04460F4640EA0A0041EA0B01534662
:100710005A46084313D0114653EA010019D0C8F1D4
:1007200040025046FFF7E3FD05460E465046594647
:100730004246FFF7CDFD084305D0012004E02046E6
:100740003946BDE8F08D0020054346EAE0762C43AB
:1007500037430A986305E40AA0EB08000022FD0A6B
:1007600044EA47540A3002D500200146E9E7010572
:1007700010196941DDE9084500196941BDE8F04DEE
:10078000A2E7FEE7704700007CB50020009014A0AF
:10079000144C0068019000224021204600F03AF9F4
:1007A000012101A800F022F80F4D01E000F03CF813
:1007B000C82301226946286800F05EFF02284FF036
:1007C0000100F3D000F030F89DF80000C007EFD131
:1007D00001224021204600F01DF900207CBD0000D0
:1007E00005000000000800480000002070B50D461C
:1007F00006460B4C02E0012000F016F8206890F845
:100800005D000028F7D064232A463146206800F0B6
:10081000F7FF002803D0BDE8704000F003B870BDBA
:10082000000000207047000070B5044600F0F8F8A2
:100830000546601C02D004484068044400F0F0F80B
:10084000401BA042FAD370BD040000202DE9FC4FEC
:10085000DFF8A0A1002301250AF1040B03244FF0C7
:100860000F0C0BF1040EBDE005FA03F632406FD019
:100870004F68012F05D0022F03D0112F01D0122F66
:1008800017D1D0F808905F0004FA07F829EA0809A0
:100890000097D1F80C8008FA07F848EA0908C0F870
:1008A00008804768B7430E79C6F300169E403E4362
:1008B0004660C6684FEA430804FA08F7BE4301974A
:1008C0008F6807FA08F73743C7604E68022E01D0D9
:1008D000122E13D1DE0800EB86060096366A5F07FB
:1008E000FF0E0CFA07F926EA0906D1F8109009FA6A
:1008F00007F949EA0609009EC6F820900668019F9C
:10090000BE430F7907F0030707FA08F7374307607C
:100910004E68F60065D5384E376E47F001073766EA
:10092000366E23F0030706F001060096334E3E4470
:10093000B146B6689F074FEA17780CFA08F7BE432E
:10094000B0F1904F05D02E4FB84204D1012717E0E7
:1009500047E0002714E02B4FB84201D102270FE0F7
:10096000294FB84201D103270AE0284FB84201D1EC
:10097000042705E0264FB84201D1052700E00627ED
:1009800007FA08F73743C9F80870DAF800605746E5
:10099000D1F8048096435FEAC83800D516433E601C
:1009A000DBF800605F46D1F8048096435FEA883840
:1009B00000D516433E60DEF800607746D1F804802B
:1009C00096435FEAC82800D516433E60094F0C37AE
:1009D0003E68D1F8048096435FEA882800D5164324
:1009E0003E605B1C0A6832FA03F67FF43DAFBDE857
:1009F000FC8F000000040140001002400000014094
:100A00000004004800080048000C0048001000489E
:100A1000001400480AB1816170478162704700008C
:100A20000148806870470000040000200248816887
:100A300042681144816070470400002010B5002412
:100A4000032000F065F8002000F008F808B1012448
:100A500001E000F025F8204610BD000070B50E4EF4
:100A600005460024706898B14FF47A71B1FBF0F03C
:100A70000A490968B1FBF0F001F0B7F840B9102D50
:100A800006D200222946501E00F022F8356000E010
:100A90000124204670BD000004000020100000204A
:100AA0000A4882B0016E41F001010166016E01F059
:100AB00001010091816D41F080518165806D00F0F0
:100AC0008050009002B000F093B800000010024087
:100AD000F0B40E4B1B680C46C3F30223C3F10705A9
:100AE000042D00D90425191D072901D2002300E097
:100AF000DB1E012606FA05F1491E214099409E4061
:100B0000761E16403143F0BC01F00ABF0CED00E048
:100B1000064900F0070208684FF6FF03184040EA54
:100B20000220034A10430860704700000CED00E00B
:100B30000000FA052B492C4B0A6832214A432B4905
:100B400040B1B0F5007F086829D020F4C06040F4BF
:100B500080602CE00868C0F34120022804D051F8DE
:100B6000800F20F4807022E0D1F8800020F48070A3
:100B7000C1F88000086820F4C06040F4007008608C
:100B8000B2FBF3F0401C00E0401E4A69520501D55B
:100B90000028F9D1486940050AD503207047C0F301
:100BA0004120022806D051F8800F40F48070086080
:100BB00000207047D1F8800040F48070C1F88000B8
:100BC000086820F4C06040F400700860B2FBF3F0E5
:100BD000401C00E0401E4A695205DBD50028F9D1CF
:100BE000D8E700001000002040420F0000700040D5
:100BF0000248816841F48041816070470070004084
:100C00002DE9F8430446006800269D4D00035ED59B
:100C1000A86D0027C00008D4A86D40F08050A865DA
:100C2000A86D012700F080500090DFF85892D9F8A5
:100C3000001041F48071C9F80010FFF7F1FE804602
:100C400006E000BFFFF7ECFEA0EB080002282BD85F
:100C5000D9F80000C005F5D5D5F8900010F4407023
:100C600014D0216C814211D0D5F89000D5F89010A5
:100C700020F4407041F48031C5F89010D5F8901000
:100C800021F48031C5F89010C5F89000C00711D04C
:100C9000FFF7C6FE804641F2883907E0FFF7C0FE45
:100CA000A0EB0801494501D903260BE0D5F89000D7
:100CB0008007F3D5D5F89000216C20F440700843EC
:100CC000C5F890001FB1A86D20F08050A86520786D
:100CD000C00707D0D5F88800616820F003000843FA
:100CE000C5F888002078800707D5D5F88800A16866
:100CF00020F00C000843C5F888002078400707D58D
:100D0000D5F88800E16820F030000843C5F8880075
:100D10002078000707D5D5F88800216920F0C000A9
:100D20000843C5F888002078800607D5D5F88800E4
:100D3000616920F440600843C5F8880020784006C7
:100D400007D5D5F88800A16920F440500843C5F8BC
:100D500088002078000607D5D5F88800E16920F4DE
:100D600040400843C5F888002088C00507D5D5F85D
:100D70008800216A20F440300843C5F888002088A4
:100D8000800507D5D5F88800616A20F44020084323
:100D9000C5F88800208840050FD5D5F88800A16ADD
:100DA00020F440100843C5F88800A06AB0F5801F01
:100DB00003D1E86840F48010E860208800050FD572
:100DC000D5F88800E16A20F440000843C5F888009F
:100DD000E06AB0F5800F03D1E86840F48010E86065
:100DE0002088C0040FD5D5F88800216B20F0407012
:100DF0000843C5F88800206BB0F1807F03D1E86814
:100E000040F48010E86020884FF0006180040ED527
:100E1000D5F88800626B20F040601043C5F8880068
:100E2000606B884203D1E86840F48010E860208855
:100E300040040ED5D5F88800A26B20F04060104326
:100E4000C5F88800A06B884203D1E86840F48010A0
:100E5000E860208800040FD5D5F88800E16B20F009
:100E600040500843C5F88800E06BB0F1805F03D1C3
:100E7000E86840F48030E8603046BDE8F883000060
:100E800000100240007000402DE9F0470E460500BA
:100E90004FF0000725D0DFF8AC81D8F8000000F053
:100EA0000F00B0420CD2D8F8001021F00F013143EE
:100EB000C8F80010D8F8000000F00F00B04210D1C0
:100EC0002968614CC80741F2883A5AD06868DFF84F
:100ED0007C91032808D0022820682DD040050028E6
:100EE0002CDB0120BDE8F08720688001F9D5E0689F
:100EF00000F00302E068C0F30310401C032A19D07D
:100F0000534A00BFB2FBF0F0E268C2F3062250433E
:100F1000E268C2F34162521C5200B0FBF2F0484555
:100F200017D9A06810F0F00F0CD0880711D5A86869
:100F300040B10EE0474AE5E78003D0E700F0B6F89D
:100F4000484506D9A06820F0F00040F08000A0607D
:100F50008027A068696820F003000843A060FFF7BD
:100F60005FFD814606E000BFFFF75AFDA0EB0901D7
:100F700051453AD8A068696800F00C00B0EB810FC9
:100F8000F2D12868810714D5400703D5A06840F442
:100F9000E060A0602878000705D5A06820F46050C4
:100FA00040F4E060A060A068A96820F0F000084369
:100FB00004E0802F03D1A06820F0F000A060D8F8F2
:100FC0000010404601F00F01B14216D9016821F02E
:100FD0000F0131430160FFF723FD074607E000BF23
:100FE000FFF71EFDC11B514501D903207AE7D8F850
:100FF000000000F00F00B042F2D12878400705D57C
:10100000A068E96820F4E0600843A0602878000741
:1010100006D5A068296920F4605040EAC100A060AC
:1010200000F044F8A1680C4AC1F30311515C01F0CF
:101030001F01C8400949086009480068BDE8F04739
:10104000FFF70CBD002002400010024000B4C404B1
:101050000024F40000366E01603300081000002008
:10106000040000200548064900688968054AC1F364
:101070000221515C01F01F01C840704710000020A0
:10108000001002407033000805480649006889686E
:10109000054AC1F3C221515C01F01F01C8407047ED
:1010A000100000200010024070330008184910B5ED
:1010B0008868C0F381021748012A0BD08A68164B52
:1010C000C2F38102022A06D08A68C2F38102032A8F
:1010D00003D0002010BD184610BDCA6802F00304FA
:1010E000CA68C2F30312521C032C02D0B0FBF2F008
:1010F00001E0B3FBF2F0CA68C968C2F306225043AC
:10110000C1F34161491C4900B0FBF1F010BD000082
:10111000001002400024F40000366E012DE9F8436F
:1011200004007AD02078FA4DC00747D0A868E96853
:1011300000F00C0001F003010C2802D0082817D0A1
:1011400001E0032914D06068B0F5803F17D0B0F5F6
:10115000A02F286817D020F480302860286820F459
:10116000802028606068E0B1FFF75AFC064614E072
:101170002868800322D560680028D2D01EE0286845
:1011800040F48030EDE740F480202860F7E700BFAE
:10119000FFF746FC801B642870D828688003F7D5C9
:1011A0000CE0FFF73DFC064605E000BFFFF738FC0A
:1011B000801B6428F0D828688003F7D42078800743
:1011C0004CD5A868E96800F00C0001F003010C2878
:1011D00002D004280DD001E002290AD0E0680028DE
:1011E00028682BD040F480702860FFF719FC064671
:1011F00019E02868400502D5E068002891D06868A9
:10120000217C20F0FE4040EA01606860C14800682F
:10121000FFF724FC002800D120E076E1FFF700FC76
:10122000801B0228B8D828684005F7D56868217C5B
:1012300020F0FE4040EA016068600FE020F480701A
:101240002860FFF7EDFB064605E000BFFFF7E8FB6F
:10125000801B0228A0D828684005F7D42078000712
:1012600029D560690028D5F8940013D040F001001A
:10127000C5F89400FFF7D4FB064606E090E000BFF7
:10128000FFF7CEFB801B022886D8D5F89400800794
:10129000F6D510E020F00100C5F89400FFF7C0FB80
:1012A000064604E0FFF7BCFB801B022878D8D5F87F
:1012B00094008007F6D42078400761D5A86D0026F9
:1012C000C00008D4A86D40F08050A865A86D012624
:1012D00000F08050009090480168C90511D4016861
:1012E000804641F480710160FFF79AFB074604E0F5
:1012F000FFF796FBC01B022852D8D8F80000C005A3
:10130000F6D5A068012815D00528D5F8900016D08C
:1013100020F00100C5F89000D5F8900020F00400FE
:10132000C5F89000A06841F28838B8B1FFF778FBA3
:1013300007460EE0D5F8900040F00100F0E740F0DD
:101340000400C5F89000F5E7FFF76AFBC11B4145B3
:1013500026D8D5F890008007F6D50CE0FFF760FBA3
:10136000074604E0FFF75CFBC11B414518D8D5F8E0
:1013700090008007F6D41EB1A86D20F08050A865BB
:101380002078800629D5A0690028D5F8980013D0C8
:1013900040F00100C5F89800FFF742FB064606E062
:1013A00077E000BFFFF73CFB801B022877D8D5F819
:1013B00098008007F6D510E020F00100C5F89800ED
:1013C000FFF72EFB064604E0FFF72AFB801B0228EE
:1013D00065D8D5F898008007F6D4E069F0B3A9681D
:1013E000C1F38101032961D00228286820F08070B0
:1013F00028600BD0E86820F00300E860E8684749FF
:101400000840E860FFF70CFB04464BE0FFF708FBE1
:10141000064604E0FFF704FB801B02283FD828683B
:101420008001F7D4F4E908016FF00F0202EB01111B
:101430000843218A5204490802EB4151A26841EA5B
:1014400002210843217D4FF07E42490802EB4161B1
:101450000843217B40EAC160E96800E062E0304A6D
:1014600011400843E860286840F080702860E86810
:1014700040F08070E860FFF7D3FA044605E000BF53
:10148000FFF7CEFA001B022809D828688001F7D59B
:1014900048E004E0FFF7C4FA001B022802D9032049
:1014A000BDE8F88328688001F4D43BE00128F7D038
:1014B000E868226A00F00301914226D1616A00F0D7
:1014C000F0020901103991421FD1A26A00F4FE41D5
:1014D000B1EB022F19D194F82C2000F07841B1EB38
:1014E000C26F12D1218E00F4C00249084905A1F54E
:1014F0000011914209D194F8341000F0C0604908FD
:101500004906A1F1007181420CD00120C8E700001A
:10151000001002400400002000700040FFFFEEFEBB
:101520000C809F010020BBE770B5040009D0606A01
:10153000002540B125616561A56294F85D0040B168
:101540000CE0012070BD6068B0F5827FF4D0E561E9
:10155000F2E784F85C50204600F05CF8022084F842
:101560005D002068016821F040010160E1684FF4EE
:10157000E062914201D9002001E04FF48050B1F5C2
:10158000706F02D0914200D0A562A188228901F437
:10159000827102F404421143227C02F002021143E0
:1015A000227D02F001021143228B02F400721143EA
:1015B000227F02F03802114394F8202002F08002CA
:1015C0001143228D02F40052114322681160A16977
:1015D000042202EA114194F8242000F4805002F021
:1015E0001002114394F8342002F008021143A2893A
:1015F00002F4706211430143206841602068C169B0
:1016000021F40061C1612566012084F85D0000209D
:1016100070BD000010B586B0044614216846FEF780
:101620002FFE1249206888421ED11148816D41F475
:1016300080418165816D01F480410591C16C41F06B
:101640000201C164C06C694600F0020005904FF4CD
:10165000604000900220019000200290039005203D
:1016600004900448FFF7F2F806B010BD00380040BF
:1016700000100240000400482DE9F84F044640687D
:101680000025984616460F464FF0040BB0F5827FB2
:1016900001D1A06888B194F85C00012818D001201D
:1016A00084F85C00FFF7BCF9814694F85D004FF0C8
:1016B000000A01280ED0022599E084F85DB0134697
:1016C0000A462046CDF8008000F05EF9BDE8F88FAC
:1016D0000220FBE7002F77D0002E75D084F85DB094
:1016E000C4F860A02764A4F84460A4F84660C4F875
:1016F00038A0A4F83CA0A4F83EA0C4F84CA0C4F8BC
:1017000050A0E0684FF4E06188422068426802D946
:1017100022F4805201E042F480524260A068B0F5A9
:10172000004F09D12068026822F040020260206860
:10173000026822F48042026020680268520603D4E4
:10174000026842F040020260E06888421DD93FE032
:1017500020688168C9070BD0017B206C0170206C68
:10176000401C2064B4F84600401EA4F846000CE07B
:10177000FFF756F9A0EB0901414503D3B8F1FF3F4C
:1017800003D03BE0B8F1000F38D0B4F84600002891
:10179000DED121E020688168C9070BD0C068216CC8
:1017A0000880206C801C2064B4F84600401EA4F819
:1017B00046000DE0FFF734F9A0EB0901414504D3E1
:1017C000B8F1FF3F04D019E010E0B8F1000F15D0D8
:1017D000B4F846000028DDD14A464146204600F0D4
:1017E00067FC08B120202066206E00B10125012091
:1017F00084F85D0084F85CA0284667E70325F6E7D7
:101800002DE9F84F044690F85C0000271D46164667
:10181000894601280DD04FF0010B84F85CB0FFF72A
:10182000FFF8804694F85D00BA46012804D00227EC
:10183000A4E00220BDE8F88FB9F1000F74D0002EAB
:1018400072D0032084F85D00C4F860A0C4F838901A
:10185000A687E687C4F840A0A4F844A0A4F846A050
:10186000C4F850A0C4F84CA0A068B0F5004F09D14E
:101870002068016821F0400101602068016841F49E
:101880008041016020680168490603D4016841F085
:1018900040010160E068B0F5E06F606823D908B1ED
:1018A000012E1CD1A06B21680088C86006E020686A
:1018B0008168890709D5A16B0988C160A06B801C6C
:1018C000A063E08F401EE08709E0FFF7A9F8A0EBD6
:1018D0000800A84202D3681C01D046E0ADB3E08FF7
:1018E0000028E4D136E008B1012E30D1E08F012884
:1018F000A06B03D921680088C8600FE021680078D8
:10190000087314E0E08722E020688168890714D515
:10191000E18F0129A16B08D90988C160A06B801CE7
:10192000A063E08F801EEDE727E009780173A06BCC
:10193000401CA063E08F401EE4E7FFF771F8A0EBC6
:101940000800A84202D3681C01D00EE06DB1E08F00
:101950000028D9D142462946204600F0E3FB08B1D1
:1019600020202066A06810B105E0032706E020686B
:10197000C16880680090206E00B1012784F85DB0D6
:1019800084F85CA0384655E72DE9F05F044690F8EE
:101990005C0000270A9E1D4692468B464FF00109C7
:1019A00001280ED0012084F85C00FFF739F880464A
:1019B00094F85D00616801280CD0B1F5827F07D1F1
:1019C00002E00220BDE8F09FA16809B9042801D017
:1019D000022700E1BBF1000F24D0BAF1000F21D0A3
:1019E00005B394F85D00042802D0052084F85D005A
:1019F00000202066C4F840A0A4F84650A4F8445043
:101A0000C4F838B0E587A587E0642065E0684FF446
:101A1000E061884201D8012D06D92068426822F48D
:101A2000805205E00127D6E02068426842F48052E7
:101A3000426020680268520603D4026842F0400205
:101A40000260E0688842606845D908B1012D3AD14A
:101A5000A06B21680088C860A06B801CA063E08F29
:101A6000401EE0872FE02068816889070FD5E18F4D
:101A700069B1B9F1010F0AD1A16B0988C160A06BEE
:101A8000801CA063E08F401EE0874FF000092068B3
:101A90008168C9070FD0B4F8461061B1C068216CE5
:101AA0000880206C801C2064B4F84600401EA4F816
:101AB00046004FF00109FEF7B3FFA0EB0800B0426B
:101AC00001D3701C75D1E08F0028CCD1B4F846004A
:101AD0000028C8D176E008B1012D6CD1E08F012833
:101AE000A06B08D921680088C860A06B801CA06327
:101AF000E08F801E07E0216800780873A06B401C0F
:101B0000A063E08F401EE08755E020688168890768
:101B10001AD5E18FC1B1B9F1010F15D1E18F0129BA
:101B2000A16B07D90988C160A06B801CA063E08FFE
:101B3000801E06E009780173A06B401CA063E08F53
:101B4000401EE0874FF0000920688168C90728D04F
:101B5000B4F8461029B3B4F84610012914D9C06866
:101B6000216C0880206C801C2064B4F84600801E24
:101B7000A4F84600B4F84600012810D8206841684F
:101B800041F4805141600AE0007B216C0870206CB8
:101B9000401C2064B4F84600401EA4F846004FF0F4
:101BA0000109FEF73DFFA0EB0800B04202D3701C14
:101BB00001D018E0BEB1E08F0028A6D1B4F84600ED
:101BC0000028A2D142463146204600F0ABFA10B1BF
:101BD000012720202066012084F85D00002084F881
:101BE0005C003846EEE60327F5E710B5401EB0F17D
:101BF000807F01D3012010BD4FF0E02460610F21F0
:101C0000601700F08DFE0020A061072020610020F9
:101C100010BD90F87C10012918D0012180F87C10AB
:101C20002421C0F8801050F8601B0A680B6823F06C
:101C300001030B6022F000510022426050F8603C2A
:101C40001960202101620277104670470220704718
:101C500070B5044690F87C0001281DD0012084F85E
:101C60007C002420C4F8800020680568026822F007
:101C7000010202602068826822F060620A4382608A
:101C8000204600F07BFB206805602020C4F880001F
:101C9000002084F87C0070BD022070BD70B5044641
:101CA00090F87C0001281DD0012084F87C002420BD
:101CB000C4F8800020680568026822F00102026012
:101CC0002068826822F060420A438260204600F069
:101CD00055FB206805602020C4F88000002084F8AF
:101CE0007C0070BD022070BD10B5040003D0D4F894
:101CF000800010B107E0012010BD002084F87C00B6
:101D0000204600F027F82420C4F8800020680168ED
:101D100021F001010160204600F0F6FB0128EBD024
:101D2000A06A10B1204600F05BFB2068416821F4F6
:101D3000904141602068816821F02A01816020681B
:101D4000016841F0010101602046BDE8104000F04B
:101D5000ABBB000010B586B0044614216846FEF700
:101D60008FFA1249206888421DD11148C16D41F097
:101D70000101C165C16D01F001010591C16C41F026
:101D80000101C164C06C022100F0010005900C202B
:101D9000CDE9000100210291CDE9031069464FF021
:101DA0009040FEF753FD06B010BD000000800040DB
:101DB000001002402DE9F8430446D0F880001F4689
:101DC00016460D46202851D1DDB1D6B194F87C00DD
:101DD00001284BD0012084F87C004FF00008C4F8A3
:101DE00088802120C4F880001834FEF719FEA687E9
:101DF0008146E68754F8100C183CB0F5805F03D09C
:101E000004E00120BDE8F883206920B12E460025BA
:101E100084F87C8010E00026FAE78021204600F05C
:101E2000AFFCB8B9C6B116F8010B21688862B4F8E6
:101E30005600401EA4F85600B4F856004B464FF02A
:101E4000000200970028E8D14FF04001204600F042
:101E500097FC30B10320D5E735F8020BC0F308003A
:101E6000E3E72020C4F880000020CBE70220C9E788
:101E7000FEE7000010B508490648084C086001223A
:101E800080212046FEF7C6FD012211022046FEF702
:101E9000C1FD10BDA0000020000000200008004887
:101EA0002DE9F04186B014216846FEF7E9F928488B
:101EB000C16C41F00401C164C16C01F004010591E1
:101EC000C16C41F02001C164C16C01F02001059199
:101ED000C16C41F00101C164C16C01F001010591C7
:101EE000C16C41F00201C164C06C4FF0904700F03A
:101EF00002000590002220213846FEF78BFDDFF816
:101F000054804FF4E076002231464046FEF782FDD1
:101F10004FF40050009010480024CDE901046946B8
:101F20004046FEF793FC202000900125CDE90154A6
:101F3000694638460394FEF789FC0096CDE90154C2
:101F4000694640460394FEF781FC06B0BDE8F08187
:101F5000001002400008004800001110174810B59A
:101F6000154901604FF4E1314160002181600C228C
:101F7000C160C0E90412816101628162FFF7B4FEB1
:101F800008B1FEF74FFC00210C48FFF787FE08B1AF
:101F9000FEF748FC00210948FFF75AFE08B1FEF79A
:101FA00041FC0648FFF735FE002803D0BDE810408D
:101FB000FEF738BC10BD0000008000401400002077
:101FC000124810B5104901604FF482714160002140
:101FD0004FF4E062C0E902124FF400720161C0E9FF
:101FE00005123822C0E9072107224162C0E90A121E
:101FF000016308214163FFF797FA002803D0BDE889
:102000001040FEF70FBC10BD00380040A0000020BB
:10201000FEE7704770470000F8B517460D460646C4
:102020001A4C08E00120FEF7FFFB19A001F0F6F8BA
:102030001BA001F0F3F8206890F85D000128F1D1B1
:1020400003208DF80000280A8DF801008DF8025059
:10205000164D002240212846FEF7DCFC032168468D
:10206000FEF7C4FB02E00120FEF7DEFB64233A46E4
:1020700031462068FFF700FB0228F4D001224021FE
:102080002846FEF7C7FC0020F8BD00000000002035
:102090000A0D44454255475F4C4F47203A20000007
:1020A0005350492069732062757379000008004815
:1020B0002DE9F843044640684FF482761546894678
:1020C0004FF400474FF48068B04209D1A068B8428D
:1020D00001D0404504D12068016821F04001016031
:1020E0004B46002280212046009500F0A3F880B9DD
:1020F0006068B04214D1A068B84201D040450FD109
:102100004B4600224FF4C0612046009500F02EF8A7
:1021100030B1206E40F0200020660320BDE8F88337
:102120000020FBE7F8B515460E460B460092044624
:1021300000224FF4C05100F019F888B9334600224C
:1021400080212046009500F075F848B933460022FA
:102150004FF4C0612046009500F008F8002804D034
:10216000206E40F0200020660320F8BD2DE9F84FD6
:10217000994617460E4604460A9DFEF751FC411B40
:10218000A9EB0105FEF74CFC804629484FF4C06AD4
:102190000068C0EBC00000EB8000000D68430090B9
:1021A0003FE0564501D107B9007BB9F1FF3F38D078
:1021B000FEF736FCA0EB0800A84203D215B1009848
:1021C00060B32CE02068416821F0E0014160606864
:1021D000B0F5827F0BD1A068B0F5004F02D0B0F50A
:1021E000806F04D12068016821F040010160A06A7D
:1021F000B0F5005F09D12068016821F40051016049
:102200002068016841F400510160012084F85D00FC
:10221000002084F85C000320BDE8F88F0025401EF4
:102220000090206881683140B942BAD10020F3E7BC
:10223000100000202DE9F8431E46914688460446CA
:10224000089DFEF7EDFB401B351AFEF7E9FB07463C
:1022500025480068C0F3CB30684338E0701C37D0A5
:10226000FEF7DEFBC01BA84203D215B1009860B395
:102270002CE02068416821F0E00141606068B0F521
:10228000827F0BD1A068B0F5004F02D0B0F5806F0F
:1022900004D12068016821F040010160A06AB0F516
:1022A000005F09D12068016821F4005101602068B5
:1022B000016841F400510160012084F85D000020B4
:1022C00084F85C000320BDE8F8830025401E0090E0
:1022D0002068816838EA010004D000214945BDD159
:1022E0000020F0E70121F9E7100000207047FEF719
:1022F0009DBB10B5A4B038216846FDF7C1FF14217D
:102300001FA8FDF7BDFF44210EA8FDF7B9FF00206F
:10231000FEF710FC0220C101039140210491042129
:10232000CDE9080100905521CDE90A1007900C90E5
:102330000D906846FEF7F2FE0F2000241F90032048
:10234000CDE92004229404211FA82394FEF79CFDCC
:10235000202013940E900EA8FEF752FC24B010BD5E
:102360000548016841F47001016003494FF00060C5
:10237000803908607047000088ED00E03FB514A187
:10238000D1E90021CDE9002113A2D2E90012CDE963
:102390000212416EB9B1026891689268C1F342615C
:1023A000520F1DF80240E50002ACA25CB5FBF2F250
:1023B000A0F86A201DF80120615CD200B2FBF1F1A7
:1023C000A0F868103FBD0121A0F86A10F8E70000EE
:1023D00001010103070100000804020408010101D2
:1023E00090F82810C90706D001684A68C36A22F429
:1023F00000321A434A6090F82810890706D5016810
:102400004A68036B22F480321A434A6090F828101D
:10241000490706D501684A68436B22F480221A43B3
:102420004A6090F82810090706D501684A68836B4E
:1024300022F400421A434A6090F82810C90606D5D3
:1024400001688A68C36B22F480521A438A6090F84C
:102450002810890606D501688A68036C22F40052A8
:102460001A438A6090F82810490611D501684A6815
:10247000436C22F480121A434A60416CB1F5801F0C
:1024800006D101684A68836C22F4C0021A434A608C
:1024900090F82810090606D501684A68C06C22F435
:1024A000002202434A607047F8B500260446C0F88F
:1024B0008860FEF7B5FA0546206800686FF07E4731
:1024C000000708D52B4600224FF400112046009744
:1024D00000F056F960B92068006840070AD52B461D
:1024E00000224FF480012046009700F049F908B11E
:1024F0000320F8BD2020C4F88000C4F8840084F8CC
:102500007C600020F8BD00002DE9F041044602681F
:1025100080682169E369084361690025194308431C
:10252000616EDFF830C2014310688B4B18400843DE
:10253000106020684168E26821F440511143416015
:102540002168A069614501D0226A10438A68834BE3
:102550001A4002438A602068C16A626A21F00F0152
:102560001143C1627E4923687E488B420DD1D0F869
:10257000880010F0030006D0012855D0022842D070
:1025800003283FD152E001203DE077498B420BD137
:10259000D0F8880010F00C0035D0042833D008287B
:1025A00040D00C282ED141E070498B420BD1D0F89D
:1025B000880010F0300026D0102835D0202831D0E7
:1025C00030281FD132E06A498B420BD1D0F8880005
:1025D00010F0C00017D0402826D0802822D0C02874
:1025E00010D123E063450DD1D0F8880010F440608D
:1025F00009D0B0F5806F17D0B0F5006F12D0B0F5EC
:10260000406F13D010205B495B4F00264FF400420F
:10261000634539D160B1022813D004280BD00828B3
:1026200031D10DE00220EEE70420ECE70820EAE7D4
:10263000FEF718FD01E0FEF739FD010001D17EE053
:102640001146606A37F810206768B1FBF2F007EBBB
:10265000470383426FD8B0EB073F6CD8002308468E
:102660001946FDF7D5FD090241EA1061020278081A
:10267000101871413A460023FDF7CAFD3F4AA0F504
:102680004071914259D956E0E3694FF6EF78934291
:102690002DD109284FD2DFE800F00508114E0D4E6C
:1026A0004E4E1000FEF7DEFC01E0FEF7EDFC0100EF
:1026B00004D144E0FEF7FAFCF9E71146606A37F806
:1026C0001000B1FBF0F04100606801EB5001B1FB7C
:1026D000F0F080B2A0F1100141452CD84FF6F07116
:1026E0000140C0F3420001432068C16027E009288F
:1026F00021D2DFE800F0050811200D202020100075
:10270000FEF7B0FC01E0FEF7BFFC010004D116E0CB
:10271000FEF7CCFCF9E71146606A37F81000B1FB10
:10272000F0F1606801EB5001B1FBF0F080B2A0F174
:102730001001414501D9012501E02168C86001204F
:10274000A4F86A0024F8680F28466660A660BDE811
:10275000F081000000800040F369FFCFFFF4FF111B
:102760000038014000100240004400400048004092
:10277000004C00400024F40048330008FFFC0F0028
:102780002DE9F0479A4617460E4604464FF00009D9
:102790004FF02008089D39E0681C37D0FEF740F95B
:1027A000A0EB0A00A84222D80DB3206801684907AF
:1027B0002CD5C069C043000528D421684FF40060BF
:1027C00008622068016821F4D07101602068816886
:1027D00021F001018160C4F88080C4F88480C4F8CD
:1027E000888000BF84F87C900320BDE8F0872068D3
:1027F000016821F4D07101602068816821F0010135
:102800008160C4F88080C4F88480EBE72068C069E8
:1028100036EA000004D00020B842BDD00020E4E732
:102820000120F9E7FEE7000038B509A0094C00686F
:102830000090002240212046FEF7ECF80121684676
:10284000FDF7D4FF012240212046FEF7E3F838BD12
:102850000600000000080048F8B517460D46064679
:102860001F4C02E00120FDF7DFFF206890F85D00BB
:102870000128F7D1FFF7D8FF02208DF80000280AC1
:102880008DF801008DF80250164D00224021284697
:10289000FEF7C0F803216846FDF7A8FF64233A4617
:1028A00031462068FEF7ACFF0228F7D00128F5D0AA
:1028B0000328F3D064230E220BA10F48FFF77AFA06
:1028C00064233A4631460C48FFF774FA012240214E
:1028D0002846FEF79FF8FDF757FF0020F8BD0000DF
:1028E00000000020000800480A0D57726974652036
:1028F000446174613A0000001400002037B51446AA
:102900000846064B6A46214600F0ECF80446694644
:10291000002000F07EFC20463EBD0000133200087F
:102920000907090E002804DB00F1E02080F80014FC
:10293000704700F00F0000F1E02080F8141D704790
:1029400002E008C8121F08C1002AFAD17047704778
:10295000002001E001C1121F002AFBD170470000D6
:102960002DE9FF5F82B00021DDE90430020DDDF8C2
:1029700040B0034318D044F61050A2F2FF32424355
:102980001514119801281FD0A5EB0B00401C5FEA1D
:10299000000A4FF000064E4FDFF83891B04650461F
:1029A00015D5CAF1000413E0119801244AA30128A7
:1029B00001D16FEA0B010298119AC0E90031C0E918
:1029C000024206B0BDE8F09FCBF10000DFE704460D
:1029D0000021404A491842EB0450CDE9001012E0B2
:1029E000E00707D032463B4640464946FDF736FDF4
:1029F0008046894632463B4610461946FDF72EFD75
:102A000006460F466410002CEAD1DDE90401DDE939
:102A10000023BAF1000F06DAFDF720FD42464B46CF
:102A2000FDF71CFD05E0FDF78BFD42464B46FDF72B
:102A300087FD04460E460022284BFDF709FE03D809
:102A40004FF0FF30014607E00022254B204631467B
:102A5000FDF75DFCFDF7E3FD102409E0002C0ADB27
:102A60000A220023FDF7D4FB039B30321A55641E63
:102A700050EA0102F2D1641C039AC4F11103144418
:102A8000119A012A03D0012208430DD10AE008431C
:102A900004D000204FF0110B119072E7A3EB0B054F
:102AA0006D1E0DE05B4504DD4FF0000205F10105F0
:102AB00004E003DA4FF00002A5F10105002AECD092
:102AC00002981199C0E90231C0E9004579E7000098
:102AD000000014400000F03F300000000000F04310
:102AE0000000E03F2DE9FF4F95B09B468946064622
:102AF00000250FE2252877D100242746F84A012136
:102B0000059400E0044316F8013F203B01FA03F06E
:102B10001042F7D130782A2811D06FF02F03307887
:102B2000A0F13002092A16D8059A44F0020402EBFB
:102B3000820203EB42021044761C0590EFE759F83D
:102B4000042B0592002A03DA504244F40054059005
:102B500044F00204761C30782E2816D116F8010FA6
:102B600044F004042A280DD06FF02F023078A0F131
:102B70003003092B09D807EB870302EB4303C7187F
:102B8000761CF3E759F8047B761C30786C280FD05C
:102B900006DC4C2817D068280DD06A2814D104E030
:102BA000742810D07A280FD10DE044F400140AE004
:102BB00044F4801401E044F440147278824202D15B
:102BC00004F58014761C761C307866280BD013DC54
:102BD000582877D009DC002875D04528F6D046283B
:102BE000F4D047281AD19DE118E0632835D0642835
:102BF00079D0652812D195E1702873D008DC672858
:102C0000F1D069286FD06E280DD06F2806D1B5E0BD
:102C100073282CD0752875D0782874D05A46179907
:102C200090476D1C75E1C4F30250022809D00328B7
:102C30000DD0D9F8001004280DD00D6009F1040959
:102C400067E1D9F80010EA17C1E90052F6E7D9F8B0
:102C500000100D80F2E70D70F0E719F8041B8DF8F5
:102C6000001000208DF80100EA46012003E059F829
:102C700004AB4FF0FF3061074FF0000102D40DE0CC
:102C800008F101018846B9420FDA8045F8DB1AF8ED
:102C900008100029F4D108E008F1010188468142BA
:102CA000FADB1AF808100029F6D105985B46A0EB6C
:102CB000080721463846179A00F094FA284400EB9A
:102CC000080507E04DE029E10DE01AF8010B5A462E
:102CD00017999047B8F10108F7D25B46214638466C
:102CE000179A13E142E00A220092C4F302524FF015
:102CF000000A022A08D059F804CB032A4FEAEC71E3
:102D00000AD00DE029E02AE009F1070121F00702CD
:102D1000F2E802C1914609E00FFA8CFC4FEAEC712F
:102D2000042A03D14FFA8CFC4FEAEC71002907DA30
:102D30000A460021DCF1000C61EB02012D2202E0C9
:102D4000220504D52B228DF80420012203E0E2079E
:102D500001D02022F7E7904659E00A2102E0102234
:102D60000DE010214FF0000A00910BE010224FF00F
:102D7000000A44F004040827009203E008224FF000
:102D8000000A0092C4F30252022A05D059F804CB7B
:102D90000021032A08D009E009F1070121F0070208
:102DA000F2E802C1914605E01FFA8CFC042A01D129
:102DB0000CF0FF0C4FF00008220728D5702806D031
:102DC000009B83F0100353EA0A0305D00EE0402273
:102DD0008DF80420012208E05CEA010206D03022CE
:102DE0008DF804208DF8050002229046009B83F0A8
:102DF000080353EA0A030AD15CEA010201D162071F
:102E000005D530228DF804204FF001087F1E582888
:102E100004D034A003900EA802900DE036A0F9E78C
:102E200053466046009AFDF7F3F984460398825CA6
:102E30000298401E029002705CEA0100F0D10298F4
:102E400006A9081A00F1200A600702D524F480348C
:102E500000E00127574502DDA7EB0A0000E0002053
:102E600000EB0A01009005984144401A0590E003E8
:102E700006D45B462146179A059800F0B3F905443D
:102E8000002706E001A85A46C05D179990476D1CBF
:102E90007F1C4745F6DBE0030CD55B462146179ABD
:102EA000059800F09FF9054404E030205A46179930
:102EB00090476D1C0099481E00900029F5DC08E041
:102EC000029802995A460078491C02911799904736
:102ED0006D1CBAF10001AAF1010AF1DC65E1000004
:102EE00009280100303132333435363738396162E0
:102EF00063646566000000003031323334353637A4
:102F000038394142434445460000000000F058F97A
:102F10000544761C307800287FF4ECAD19B02846C3
:102F2000BDE8F08F620700D4062709F1070222F0FE
:102F3000070CFCE80223E14603F000485FEA080CB6
:102F400002D00FF2702C0DE05FEA045C02D50FF2A4
:102F5000682C07E05FEAC47C02D00FF2602C01E02D
:102F6000AFF2700C4FF0FF3823F00043CDF850C0A3
:102F700065280CD006DC452809D046281DD04728F6
:102F80003DD13DE0662818D067287ED138E0002189
:102F9000112F01DB112000E0781CCDE9000106A90A
:102FA0000EA8FFF7DDFCDDE90F010E9A0391002169
:102FB000009207F1010A04914DE04FF000400097A4
:102FC000CDE9011006A90EA8FFF7CAFCDDE90F0242
:102FD00003920E9B11990022DDF80CA0009304923D
:102FE00011B9791C00EB010AB7EB0A0004D4C0F157
:102FF000FF3007F1010A0490AAEB0700019044E0BA
:10300000012F00DA01270021112F01DD112000E03E
:103010003846CDE9000106A90EA8FFF7A1FCDDE9BD
:103020000F010E9A0391002104910092BA462107E4
:103030000CD40399514500DA8A46BAF1010F05DD37
:10304000009AAAF10101515C302908D0B84202DA95
:1030500010F1040F06DA0121CDE9011015E0AAF103
:103060000101E9E7002805DC049901440491AAEB79
:10307000000102E0411C514500DD8A460499401AD6
:10308000401C01904FF000400290200704D40198AA
:10309000504501DBCDF8048000208DF84F000298E8
:1030A0000DF14F07B0F1004F25D02B200E90029864
:1030B0004FF0020800280CDA404202902D200E90BA
:1030C00007E00A210298FDF7EDF83031029007F889
:1030D000011DB8F10001A8F10108F2DC02980028F6
:1030E000EFD1791E0E980870307800F0200040F083
:1030F000450007F8020D12A8C01B00F1070814983C
:10310000007800B1012000EB0A01019801EBE071A9
:1031100005984144401A401E0590E00306D45B46E2
:103120002146179A059800F05DF805441498007838
:1031300018B15A46179990476D1CE00324D55B4699
:103140002146179A059800F04DF805441CE00498B4
:10315000002807DBDDE90301884203DD0098405CBD
:10316000179901E0179930205A469047049805F1C5
:103170000105401C04900198401E019004D12E20AE
:103180005A46179990476D1CBAF10001AAF1010A3D
:10319000DDDC05E017F8010B5A46179990476D1CC6
:1031A000B8F10001A8F10108F4DC5B462146179A4A
:1031B0000598ABE62D0000002B0000002000000069
:1031C0002DE9F041044600251E461746880404D424
:1031D00005E039462020B0476D1C641EF9D528460D
:1031E000BDE8F0812DE9F041044600251E469046D9
:1031F000C80301D5302700E02027880404D505E066
:1032000041463846B0476D1C641EF9D52846BDE8D6
:10321000F0810A68531C0B60107070470FB410B532
:1032200003A9029800F078F810BC5DF814FB0000C8
:1032300022A286B007CA8DE80700FDF7FFFBFFF763
:1032400058F8FEF72DFEFEF789FEFEF7B9FE1E4880
:10325000FEF710FE012240211C48FDF7DBFB4FF476
:103260007A70FDF7E1FA4FF480744FF4FA650B229F
:1032700021466846FFF7F0FA002815A019D0FFF79D
:10328000CDFF17A0FFF7CAFF0B22214603A8FEF7C8
:10329000C3FE64230D2216A11948FEF78BFD64239B
:1032A0000B2203A91648FEF785FD2846FDF7BCFA58
:1032B000DDE7FFF7B3FF13A0E4E700004B4C552018
:1032C00046445020496F5400A000002000080048E8
:1032D0000A0D44454255475F4C4F47203A200000B5
:1032E0005772697465204661696C6564000000006E
:1032F0000A0D5265616420446174613A0000000067
:1033000014000020577269746520537563636573F8
:103310007366756C0000000000B50A46B3B0014644
:103320006846FFF7EBFA002809DD6846FCF7B3FFB3
:1033300082B26FF07F4369460248FEF73BFD33B02F
:1033400000BD00001400002001000200040006007F
:1033500008000A000C00100020004000800000015E
:103360000000000000000000010203040607080935
:103370000000000001020304983300080000002050
:103380001400000040290008AC330008140000209D
:10339000F4040000502900080000000010000000A4
:0C33A00001000000000000000024F40008
:04000005080001D915
:00000001FF
