:020000040800F2
:1000000040050020ED010008B725000889230008FD
:10001000B5250008C1090008C12B00080000000038
:100020000000000000000000000000006126000841
:10003000C309000800000000B92500086326000875
:10004000070200080702000807020008070200086C
:10005000070200080702000807020008070200085C
:10006000070200080702000807020008070200084C
:10007000070200080702000807020008070200083C
:10008000070200080000000007020008070200083D
:10009000070200080702000807020008070200081C
:1000A000070200080702000807020008070200080C
:1000B00007020008070200080702000807020008FC
:1000C00007020008070200080702000807020008EC
:1000D00007020008070200080702000807020008DC
:1000E00007020008070200080702000807020008CC
:1000F00007020008070200080702000800000000CD
:1001000000000000070200080000000007020008CD
:1001100007020008000000000702000807020008AC
:10012000070200080702000807020008070200088B
:10013000070200080000000000000000070200089D
:10014000070200080702000800000000000000008D
:10015000000000000000000000000000000000009F
:10016000000000000000000000000000070200087E
:10017000070200080000000000000000000000006E
:10018000000000000702000800000000000000005E
:10019000000000000000000000000000000000005F
:1001A000000000000000000007020008070200082D
:1001B000070200080702000807020008000000000C
:1001C000000000000702000800000000000000001E
:1001D0000702000807020008DFF80CD000F0AAFBB5
:1001E00000480047BD4300084005002006488047FE
:1001F00006480047FEE7FEE7FEE7FEE7FEE7FEE70C
:10020000FEE7FEE7FEE7FEE7FD260008D90100084D
:100210002DE9F05F0546002092469B46884606463B
:10022000814640241BE0284641464746224600F0CE
:1002300022FA53465A46C01A914110D31146184625
:10024000224600F009FA2D1A67EB01084F462246B4
:100250000120002100F000FA17EB00094E41201E9A
:10026000A4F10104DFDC484631462A464346BDE896
:10027000F09FD2B201E000F8012B491EFBD270477B
:100280000022F6E710B513460A4604461946FFF762
:10029000F0FF204610BD421C10F8011B0029FBD1C5
:1002A000801A70472DE9FE4F804681EA0300C00F97
:1002B0000C46009021F0004123F00045B8EB02000D
:1002C000A94105D24046214690461C460B460246AF
:1002D00023F00040104347D0270DC7F30A00C3F3B3
:1002E0000A510290401A019040286BDAC3F31300C0
:1002F00040F4801B0098924620B10023D2EB030A01
:1003000063EB0B0B01985946C0F14002504600F0D8
:10031000A3F906460D4650465946019A00F0BBF92E
:1003200010EB08006141002487EA115284EAE77368
:100330001A4340D0009A62B3019A012A4FEA075249
:1003400015DC001B61EB02014FF0004202EA07528C
:10035000CDE90042001C41F5801132462B4600F0E9
:10036000F2F903B0BDE8F08F40462146F9E7001BE3
:1003700061EB0201001C41F5801300185B4120185D
:10038000A2F5001747EB030140EAD570B6196D419D
:1003900011E06D084FEA360645EAC0754FEA07528C
:1003A000001B61EB0201001C41F5801149084FEA76
:1003B00030000019514132462B4603B0BDE8F04FE2
:1003C00000F0B2B90098012240000023D0EB0202F5
:1003D00063EBE073009821464FEAE074B8EB00004D
:1003E00061EB0401E9E783F000435BE781F0004142
:1003F00058E72DE9FE4F81EA030404F0004421F0A0
:10040000004100944FF0000B23F0004350EA010438
:100410005ED052EA03045BD0C3F30A54C1F30A5519
:100420002C44A4F2F3340194A0FB0254C1F3130151
:1004300041F48011C3F3130343F4801301FB02441E
:1004400000FB034E840A970A44EA815447EA835723
:10045000A4FB076802958D0A05FB07854FEA932CDC
:1004600004FB0C542705029D4FEA065847EA16374D
:10047000B5EB08056EEB070C870E920E47EA811765
:1004800042EA8312A7FB0201B6EB0B0164EB000406
:100490002B0D43EA0C335E1844EB1C50DA465146F0
:1004A000E7FB0201C5F313044FEA0B3343EA14538D
:1004B0004FEA0432019C43EA0603A4F10C040294BF
:1004C000009CCDE900B400F03EF903B0BDE8F08F28
:1004D00000200146F9E72DE9F04D81EA030404F01C
:1004E000004B21F0004514464FF0000A23F0004174
:1004F00050EA050220D054EA01021DD0C5F30A5784
:100500000246C5F31303C1F31300C1F30A5640F4C6
:10051000801543F48013A7EB0608101BD64608F29B
:10052000FD3873EB050002D308F1010801E09218D1
:100530005B41B8F1000F03DA00200146BDE8F08D01
:1005400000204FF48011064684460EE0171B73EB23
:10055000050705D3121B63EB050306434CEA010CA8
:1005600049084FEA300092185B4150EA0107EDD18B
:1005700052EA030012D082EA040083EA050108432C
:1005800005D0101BAB4106D20122002306E0002259
:100590004FF0004302E06FF0010253101AEB060027
:1005A0004CEB085110EB0A0041EB0B01BDE8F04D9C
:1005B00000F0BAB80EB540F2334102910021CDE906
:1005C00000110A460B4600F0BEF803B000BD00F073
:1005D000004230F000400AD0C10D01F56071C0F357
:1005E000160042EA0151C20840071143704700203B
:1005F0000146704701F0004330B421F0004150EA59
:10060000010206D00A0DA2F56072C1F31301002A9F
:1006100002DC30BC00207047440F44EAC104C10032
:10062000E01830BC00EBC25000F047B830B50B46C4
:10063000014600202022012409E021FA02F59D4212
:1006400005D303FA02F5491B04FA02F52844151EE6
:10065000A2F10102F1DC30BD202A04DB203A00FACD
:1006600002F1002070479140C2F1200320FA03F309
:10067000194390407047202A04DB203A21FA02F007
:100680000021704721FA02F3D040C2F120029140CC
:10069000084319467047202A06DBCB17203A41FA57
:1006A00002F043EAE07306E041FA02F3D040C2F1FF
:1006B000200291400843194670470029A8BF70479F
:1006C000401C490008BF20F00100704710B4B0FA88
:1006D00080FC00FA0CF050EA010404BF10BC704723
:1006E00049B1CCF1200421FA04F411FA0CF118BF3D
:1006F000012121430843A3EB0C01CB1D4FEA00610C
:100700004FEA102042BF002010BC704700EBC350DE
:1007100010440029A4BF10BC7047401C490008BF0A
:1007200020F0010010BC704710B5141E73F10004D6
:1007300008DA401C41F1000192185B411A4301D1D3
:1007400020F0010010BD2DE9F04D92469B4611B1FD
:10075000B1FA81F202E0B0FA80F220329046FFF75F
:100760007BFF04460F4640EA0A0041EA0B0153466C
:100770005A46084313D0114653EA010019D0C8F174
:1007800040025046FFF777FF05460E465046594651
:100790004246FFF761FF084305D0012004E02046F0
:1007A0003946BDE8F08D0020054346EAE0762C434B
:1007B00037430A986305E40AA0EB08000022FD0A0B
:1007C00044EA47540A3002D500200146E9E7010512
:1007D00010196941DDE9084500196941BDE8F04D8E
:1007E000A2E770B521F0004303430CD0C1F30A55D2
:1007F0000024D5EB040564EB0403D617AD1AB3410E
:1008000002DB0020014670BD201841EB025170BD93
:100810002DE9F04D00231A461B1A8A4103DB002004
:100820000146BDE8F08DC1F30A52C1F3130141F452
:1008300080154FF0000BD10702D100186D41521EF8
:100840000027044640F2FF11384601EB620A3E469B
:100850008046024600204FF48011FFF70CFFC219BA
:100860007141BB1846EB0100B4EB030C75EB000CB7
:1008700004D3E41A65EB000517460E46241908F167
:1008800001006D4180463428E3DDF91946EB06008E
:10089000091BA84103D24FF0FF32134601E00022AA
:1008A00013461BEB070046EB0A51BDE8F04DFFF77E
:1008B0003BBF0EB5C10F80EAE0700844CA070021B3
:1008C00040F233438DE80E000A460B46FFF73BFF2C
:1008D00003B000BDC1F30A52C1F3130140F2FF336C
:1008E00041F480119A4202DA00200146704740F23A
:1008F00033439A42A2F2334202DC5242FFF7BBBEBC
:10090000FFF7AABE30B5041E71F1000404DB4FF0FE
:100910000044404264EB0101141E73F1000405DB46
:100920001C464FF00043524263EB0403994208BF58
:10093000904230BD064C074D06E0E06840F00103F0
:1009400094E8070098471034AC42F6D3FFF748FC10
:10095000A8460008C846000870B5044600688168CB
:1009600011F0010F28D18168144A114215D1816814
:10097000D5432940491C816000F0C4FD064616E0BD
:10098000816811F0010F03D181682940491C816001
:1009900000F0B8FD801B022809D9E06D40F010007E
:1009A000E065206E40F001002066012070BD2068E7
:1009B0000168C943C907E3D1002070BD3F00008032
:1009C000FEE77047704700002DE9F047044690F8B5
:1009D00058009CB00D464FF00008012814D00120AB
:1009E00084F8580020684FF0A0474FF00009B84243
:1009F0000ED1284E0096304601F0D5FC8246206884
:100A000001F0D1FC60B10EE002201CB0BDE8F0871F
:100A1000E16D41F02001E16584F858900120F4E790
:100A2000BAF1000F0AD0E06D40F02000E0654FF011
:100A3000010800BF84F858904046E6E716482A6847
:100A400040F61F71002A826822F4604215D094F8A3
:100A5000383042EA43326B681A438260BA68B3683E
:100A600002F0010203F001031A43E3D1AB682A68E4
:100A70001A4383688B431A430AE08260BA68B368FA
:100A800002F0010203F001031A43D3D182688A43C2
:100A90008260CFE700010050000300502DE9F84FBD
:100AA00000270446009790F85800DFF8DC930D46C5
:100AB000B846012811D0012684F85860206801F05A
:100AC0006EFC60B1E06D40F02000E0655FF0010772
:100AD00084F858803846BDE8F88F0220FBE7D5E956
:100AE00000210C23206803EA91131844036B01F0E2
:100AF0001F014FF01F0C0CFA01FCC2F3846223EAC1
:100B00000C038A4013430363206801F048FC8246CB
:100B1000206801F040FC5AEA00003CD1AA6829682C
:100B20002068B2F1004F37D001F049FC20684169DC
:100B300021F00041416120686969C268C2F3C102C5
:100B4000520091402A69042A31D000EB82002B68C0
:100B5000026EDFF838C303F0F84302EA0C020B43DD
:100B60001A4342F00041016622682869A96902EB34
:100B70008000026E22F080720A430266297F20689C
:100B80002A69012910D0002100EB8200026E22F0B8
:100B900000720A4302667DE0002201F010FC20682A
:100BA000416941F00041C5E74FF00071ECE70021D9
:100BB00001F0EBFB400320684FF0000172D001F020
:100BC000E4FB90FAA0F0B0FA80F1286842036ED0FE
:100BD00090FAA0F0B0FA80F0814204D100221146D0
:100BE000206801F0FBFB0121206801F0CEFB4003EF
:100BF00020684FF001015DD001F0C7FB90FAA0F032
:100C0000B0FA80F12868420359D090FAA0F0B0FA07
:100C100080F0814204D100220121206801F0DEFB36
:100C20000221206801F0B1FB400320684FF002016F
:100C300048D001F0AAFB90FAA0F0B0FA80F1286841
:100C4000420344D090FAA0F0B0FA80F0814204D17F
:100C500000220221206801F0C1FB0321206801F07D
:100C600094FB400320684FF0030133D001F08DFB6B
:100C700090FAA0F0B0FA80F1286842032FD090FAE1
:100C8000A0F0B0FA80F0814204D100220321206854
:100C900001F0A4FB2068816811F0010F22D0ACE0C4
:100CA00000E004E001F071FBC0F384618DE7C0F364
:100CB000846091E701F069FBC0F38461A2E7C0F3AF
:100CC0008460A6E701F061FBC0F38461B7E7C0F37D
:100CD0008460BBE701F059FBC0F38461CCE7C0F34B
:100CE0008460D0E72A7B296850F8B03FC1F3120C2A
:100CF00023EA0C0302F0180C654A22FA0CF20A40AF
:100D000013430360E968494577D1286841031CD043
:100D100090FAA0F1B1FA81F1491C01F01F010929F3
:100D20004FEA403132D8002912D000BF90FAA0F12A
:100D3000B1FA81F101F1010101F01F0106FA01F69A
:100D400009D100BFC0F3846109E0C0F38461E3E727
:100D5000C0F38461EEE790FAA0F1B1FA81F101F1FC
:100D6000010101F01F0146EA816102D1C0F38460F4
:100D700003E090FAA0F0B0FA80F000F1010000F07A
:100D80001F0000EB400041EA005132E000290ED084
:100D900090FAA0F1B1FA81F101F1010101F01F0116
:100DA00006FA01F606D100BFC0F3846106E0C0F385
:100DB0008461F1E790FAA0F1B1FA81F101F101014A
:100DC00001F01F0146EA816102D1C0F3846003E0B3
:100DD00090FAA0F0B0FA80F000F1010000F01F00DE
:100DE0002C4A00EB400002EB005041EA000141F0C8
:100DF0000071AA68206801F0E2FA27482A680242D6
:100E00003FF466AE25488168254B01F0E0719A42B7
:100E100002D0244B9A421BD10B0219D42268B2F1A2
:100E2000A04F7FF455AE826841F4000122F0E072D9
:100E30000A4382601C481D490068B0FBF1F000EBDA
:100E40004000800000E0401E00900028FBD13FE6FB
:100E5000174D184BAA4207D1CD0105D422689A42FA
:100E6000F5D041F0807109E0134DAA42EFD14A025A
:100E7000EDD422689A42EAD041F48001826822F0DF
:100E8000E0720A43826023E600007F4000F0FF0327
:100E9000FFFF0700000020FE000008800003005054
:100EA000000021C31000C09014000020400D03007A
:100EB000000052C700010050000084CB0068006CA5
:100EC00070470000F8B54FF0000504002E4600956D
:100ED00002D0E06D10B107E00120F8BD204600F01F
:100EE000EDF8266684F8586020688168C1F3407187
:100EF00019B18168694A1140816020688168C1F335
:100F0000007179B98168664A114041F08051816071
:100F1000644865490068B0FBF1F000E0401E0090B5
:100F20000028FBD120688168C1F3007141B9E16DEF
:100F300041F01001E165216E41F0010121660125BA
:100F400001F02DFAE16DC90600D430B1E06D40F03A
:100F50001000E06501252846F8BDE06D20F48070A2
:100F600040F00200E0652068806810F0010F11D1A8
:100F70004FF0A04080684D4900F00100896801F001
:100F80000101084306D14A486168826822F47C1254
:100F90000A438260E168E06B627F0843A16841EA2E
:100FA0004231084394F8241040EA0140012904D159
:100FB000218D404A02EB41410843E16A29B101F425
:100FC0007871226B014342EA01002168CA683A4BFA
:100FD0001A400243CA6020680169626B21F04061D7
:100FE00011430161206801F0DAF90646206801F03A
:100FF000D2F930432ED1207F94F83810800340EA94
:1010000041022068C16844F2020399431143C16060
:1010100020690028206801690AD041F4803101610B
:10102000206850F8C01F22696FF30D01114307E0DB
:1010300021F480310161206850F8C01F6FF30D0169
:10104000016094F8400001280CD02068016921F06B
:1010500001010161606901282068016B21F00F0125
:1010600011D013E0D4E911010843D4E9131211435C
:10107000084321680A6940F2FC739A43104340F028
:1010800001000861E6E7226A521E11430163E06D28
:1010900020F0020040F00100E0655CE7C0FFFF5F68
:1010A000C0FFFF7F14000020400D0300000100502E
:1010B000000300500000FEFF0740F0FF10B586B0AF
:1010C000044614216846FFF7DBF82068B0F1A04F12
:1010D0001BD10F48C16C41F40051C164C16C01F4D3
:1010E00000510591C16C41F00101C164C06C6946B9
:1010F00000F00100059001200090032001900020E5
:1011000002904FF0904000F013F906B010BD0000BF
:10111000001002402DE9F041044639480F4681682D
:1011200001F01F05A16908290FD085B1052D0ED04A
:10113000092D0CD0806800F4604060B1E06D40F093
:101140002000E0650120BDE8F081082604E0206869
:10115000C068C007F1E7042600F0D4F9804608E033
:10116000781C06D000F0CEF9A0EB0800B8420FD8EA
:1011700077B1206800683042F2D0E06D40F4007032
:10118000E065206801F013F9D0B1607F48B117E045
:10119000E06D40F00400E065002084F85800032072
:1011A000D1E72068006800070AD5E06D20F4807060
:1011B000E065E06DC00403D4E06D40F00100E0653F
:1011C000104A20684FF0A041904201D10B4600E048
:1011D0000346834210D07DB1052D0DD0092D0BD0D3
:1011E000904200D00146C968082E07D0490401D4B6
:1011F0000C2101600020A6E7C168F5E70821F8E7A7
:1012000000030050000100502DE9F0410446384829
:10121000806800F01F05206801F0C1F818B10221B4
:101220000846BDE8F08194F8580001280CD0012050
:1012300084F858002046FFF78FFB01004FF00003B1
:1012400004D084F85830EBE70220EAE7E06D40F67E
:101250000162904340F48070E065264A20684FF0B8
:10126000A046904201D1374600E00746874200D0B1
:101270001DB9E76D27F48017E765E76DFF0404D516
:10128000276E27F00607276600E023661C27076005
:1012900084F858302068904201D1334600E003467C
:1012A000834215D0A5B1052D12D0092D10D0E36DC4
:1012B00043F48013E365904200D13046C06880015A
:1012C000AED5E06D20F4005040F48050E065A7E713
:1012D000C268920105D5E26D22F4005242F48052B8
:1012E000E2658268044B1A40121D826098E7000094
:1012F0000003005000010050C0FFFF7F006801693B
:1013000041F00071016100207047000070B5044693
:1013100000F0F8F80546601C02D004484068044418
:1013200000F0F0F8401BA042FAD370BD0800002086
:101330002DE9FC4FDFF8A0A1002301250AF1040BE1
:1013400003244FF00F0C0BF1040EBDE005FA03F679
:1013500032406FD04F68012F05D0022F03D0112FDC
:1013600001D0122F17D1D0F808905F0004FA07F8C7
:1013700029EA08090097D1F80C8008FA07F848EA2A
:101380000908C0F808804768B7430E79C6F300160D
:101390009E403E434660C6684FEA430804FA08F799
:1013A000BE4301978F6807FA08F73743C7604E6856
:1013B000022E01D0122E13D1DE0800EB8606009615
:1013C000366A5F07FF0E0CFA07F926EA0906D1F81C
:1013D000109009FA07F949EA0609009EC6F820901C
:1013E0000668019FBE430F7907F0030707FA08F765
:1013F000374307604E68F60065D5384E376E47F0C4
:1014000001073766366E23F0030706F001060096E3
:10141000334E3E44B146B6689F074FEA17780CFA40
:1014200008F7BE43B0F1904F05D02E4FB84204D11B
:10143000012717E047E0002714E02B4FB84201D105
:1014400002270FE0294FB84201D103270AE0284FB5
:10145000B84201D1042705E0264FB84201D1052743
:1014600000E0062707FA08F73743C9F80870DAF8EA
:1014700000605746D1F8048096435FEAC83800D52B
:1014800016433E60DBF800605F46D1F80480964367
:101490005FEA883800D516433E60DEF80060774684
:1014A000D1F8048096435FEAC82800D516433E6011
:1014B000094F0C373E68D1F8048096435FEA8828CC
:1014C00000D516433E605B1C0A6832FA03F67FF4CF
:1014D0003DAFBDE8FC8F0000000401400010024059
:1014E000000001400004004800080048000C0048CB
:1014F00000100048001400480AB181617047816201
:101500007047000001488068704700000800002014
:1015100002488168426811448160704708000020D9
:1015200010B50024032000F065F8002000F008F852
:1015300008B1012401E000F025F8204610BD0000AC
:1015400070B50E4E05460024706898B14FF47A715C
:10155000B1FBF0F00A490968B1FBF0F000F0D2FDF0
:1015600040B9102D06D200222946501E00F022F864
:10157000356000E00124204670BD00000800002016
:10158000140000200A4882B0016E41F0010101669A
:10159000016E01F001010091816D41F08051816582
:1015A000806D00F08050009002B000F093B8000011
:1015B00000100240F0B40E4B1B680C46C3F302232C
:1015C000C3F10705042D00D90425191D072901D2EF
:1015D000002300E0DB1E012606FA05F1491E21402A
:1015E00099409E40761E16403143F0BC01F014BB7A
:1015F0000CED00E0064900F0070208684FF6FF0313
:10160000184040EA0220034A104308607047000077
:101610000CED00E00000FA052B492C4B0A68322142
:101620004A432B4940B1B0F5007F086829D020F427
:10163000C06040F480602CE00868C0F341200228BC
:1016400004D051F8800F20F4807022E0D1F880009F
:1016500020F48070C1F88000086820F4C06040F475
:1016600000700860B2FBF3F0401C00E0401E4A69C5
:10167000520501D50028F9D1486940050AD5032053
:101680007047C0F34120022806D051F8800F40F483
:101690008070086000207047D1F8800040F48070AE
:1016A000C1F88000086820F4C06040F40070086051
:1016B000B2FBF3F0401C00E0401E4A695205DBD546
:1016C0000028F9D1D8E700001400002040420F00A4
:1016D000007000400248816841F480418160704799
:1016E000007000400248016841F480710160704759
:1016F000007000402DE9F8430446006800269D4D27
:1017000000035ED5A86D0027C00008D4A86D40F086
:101710008050A865A86D012700F080500090DFF888
:101720005892D9F8001041F48071C9F80010FFF701
:10173000E9FE804606E000BFFFF7E4FEA0EB0800EC
:1017400002282BD8D9F80000C005F5D5D5F89000AF
:1017500010F4407014D0216C814211D0D5F8900063
:10176000D5F8901020F4407041F48031C5F8901005
:10177000D5F8901021F48031C5F89010C5F890008C
:10178000C00711D0FFF7BEFE804641F2883907E05E
:10179000FFF7B8FEA0EB0801494501D903260BE08D
:1017A000D5F890008007F3D5D5F89000216C20F48F
:1017B00040700843C5F890001FB1A86D20F080501C
:1017C000A8652078C00707D0D5F88800616820F0A8
:1017D00003000843C5F888002078800707D5D5F8AE
:1017E0008800A16820F00C000843C5F88800207824
:1017F000400707D5D5F88800E16820F0300008439D
:10180000C5F888002078000707D5D5F88800216939
:1018100020F0C0000843C5F888002078800607D56E
:10182000D5F88800616920F440600843C5F8880055
:101830002078400607D5D5F88800A16920F44050EB
:101840000843C5F888002078000607D5D5F8880039
:10185000E16920F440400843C5F888002088C005AD
:1018600007D5D5F88800216A20F440300843C5F830
:1018700088002088800507D5D5F88800616A20F4A3
:1018800040200843C5F88800208840050FD5D5F8CA
:101890008800A16A20F440100843C5F88800A06AB7
:1018A000B0F5801F03D1E86840F48010E86020881C
:1018B00000050FD5D5F88800E16A20F44000084300
:1018C000C5F88800E06AB0F5800F03D1E86840F4FD
:1018D0008010E8602088C0040FD5D5F88800216BFF
:1018E00020F040700843C5F88800206BB0F1807F7D
:1018F00003D1E86840F48010E86020884FF0006170
:1019000080040ED5D5F88800626B20F0406010434B
:10191000C5F88800606B884203D1E86840F4801005
:10192000E860208840040ED5D5F88800A26B20F02E
:1019300040601043C5F88800A06B884203D1E86876
:1019400040F48010E860208800040FD5D5F88800A6
:10195000E16B20F040500843C5F88800E06BB0F11F
:10196000805F03D1E86840F48030E8603046BDE82D
:10197000F883000000100240007000402DE9F0479D
:101980000E4605004FF0000725D0DFF8AC81D8F8EF
:10199000000000F00F00B0420CD2D8F8001021F087
:1019A0000F013143C8F80010D8F8000000F00F0014
:1019B000B04210D12968614CC80741F2883A5AD028
:1019C0006868DFF87C91032808D0022820682DD0B1
:1019D000400500282CDB0120BDE8F087206880014D
:1019E000F9D5E06800F00302E068C0F30310401C82
:1019F000032A19D0534A00BFB2FBF0F0E268C2F3E9
:101A000006225043E268C2F34162521C5200B0FB0E
:101A1000F2F0484517D9A06810F0F00F0CD08807F5
:101A200011D5A86840B10EE0474AE5E78003D0E74A
:101A300000F0B6F8484506D9A06820F0F00040F064
:101A40008000A0608027A068696820F00300084338
:101A5000A060FFF757FD814606E000BFFFF752FD8B
:101A6000A0EB090151453AD8A068696800F00C0064
:101A7000B0EB810FF2D12868810714D5400703D558
:101A8000A06840F4E060A0602878000705D5A06851
:101A900020F4605040F4E060A060A068A96820F0E5
:101AA000F000084304E0802F03D1A06820F0F0008C
:101AB000A060D8F80010404601F00F01B14216D9DD
:101AC000016821F00F0131430160FFF71BFD07465C
:101AD00007E000BFFFF716FDC11B514501D90320E8
:101AE0007AE7D8F8000000F00F00B042F2D1287871
:101AF000400705D5A068E96820F4E0600843A060CD
:101B00002878000706D5A068296920F4605040EACB
:101B1000C100A06000F044F8A1680C4AC1F30311B1
:101B2000515C01F01F01C84009490860094800687C
:101B3000BDE8F047FFF704BD00200240001002405E
:101B400000B4C4040024F40000366E01004600080E
:101B50001400002008000020054806490068896834
:101B6000054AC1F30221515C01F01F01C8407047D2
:101B700014000020001002401046000805480649E5
:101B800000688968054AC1F3C221515C01F01F0158
:101B9000C8407047140000200010024010460008A2
:101BA000184910B58868C0F381021748012A0BD084
:101BB0008A68164BC2F38102022A06D08A68C2F3F1
:101BC0008102032A03D0002010BD184610BDCA6848
:101BD00002F00304CA68C2F30312521C032C02D0A1
:101BE000B0FBF2F001E0B3FBF2F0CA68C968C2F3DF
:101BF00006225043C1F34161491C4900B0FBF1F09A
:101C000010BD0000001002400024F40000366E01F8
:101C10002DE9F84304007AD02078FA4DC00747D068
:101C2000A868E96800F00C0001F003010C2802D05C
:101C3000082817D001E0032914D06068B0F5803F70
:101C400017D0B0F5A02F286817D020F48030286076
:101C5000286820F4802028606068E0B1FFF752FC1B
:101C6000064614E02868800322D560680028D2D098
:101C70001EE0286840F48030EDE740F480202860C2
:101C8000F7E700BFFFF73EFC801B642870D8286888
:101C90008003F7D50CE0FFF735FC064605E000BFF2
:101CA000FFF730FC801B6428F0D828688003F7D445
:101CB000207880074CD5A868E96800F00C0001F096
:101CC00003010C2802D004280DD001E002290AD01B
:101CD000E068002828682BD040F480702860FFF767
:101CE00011FC064619E02868400502D5E068002886
:101CF00091D06868217C20F0FE4040EA0160686075
:101D0000C1480068FFF71CFC002800D120E076E104
:101D1000FFF7F8FB801B0228B8D828684005F7D5E4
:101D20006868217C20F0FE4040EA016068600FE0B6
:101D300020F480702860FFF7E5FB064605E000BF51
:101D4000FFF7E0FB801B0228A0D828684005F7D4E5
:101D50002078000729D560690028D5F8940013D0B1
:101D600040F00100C5F89400FFF7CCFB064606E002
:101D700090E000BFFFF7C6FB801B022886D8D5F88D
:101D800094008007F6D510E020F00100C5F894001B
:101D9000FFF7B8FB064604E0FFF7B4FB801B022800
:101DA00078D8D5F894008007F6D42078400761D51C
:101DB000A86D0026C00008D4A86D40F08050A8652A
:101DC000A86D012600F08050009090480168C90578
:101DD00011D40168804641F480710160FFF792FBE5
:101DE000074604E0FFF78EFBC01B022852D8D8F844
:101DF0000000C005F6D5A068012815D00528D5F843
:101E0000900016D020F00100C5F89000D5F89000A1
:101E100020F00400C5F89000A06841F28838B8B1FD
:101E2000FFF770FB07460EE0D5F8900040F0010088
:101E3000F0E740F00400C5F89000F5E7FFF762FB1B
:101E4000C11B414526D8D5F890008007F6D50CE097
:101E5000FFF758FB074604E0FFF754FBC11B414561
:101E600018D8D5F890008007F6D41EB1A86D20F0E0
:101E70008050A8652078800629D5A0690028D5F86B
:101E8000980013D040F00100C5F89800FFF73AFB26
:101E9000064606E077E000BFFFF734FB801B022810
:101EA00077D8D5F898008007F6D510E020F001002B
:101EB000C5F89800FFF726FB064604E0FFF722FB73
:101EC000801B022865D8D5F898008007F6D4E06911
:101ED000F0B3A968C1F38101032961D00228286801
:101EE00020F0807028600BD0E86820F00300E860E4
:101EF000E86847490840E860FFF704FB04464BE008
:101F0000FFF700FB064604E0FFF7FCFA801B0228FF
:101F10003FD828688001F7D4F4E908016FF00F0278
:101F200002EB01110843218A5204490802EB415196
:101F3000A26841EA02210843217D4FF07E42490810
:101F400002EB41610843217B40EAC160E96800E09F
:101F500062E0304A11400843E860286840F0807031
:101F60002860E86840F08070E860FFF7CBFA04462C
:101F700005E000BFFFF7C6FA001B022809D8286851
:101F80008001F7D548E004E0FFF7BCFA001B022807
:101F900002D90320BDE8F88328688001F4D43BE02F
:101FA0000128F7D0E868226A00F00301914226D1A7
:101FB000616A00F0F0020901103991421FD1A26A52
:101FC00000F4FE41B1EB022F19D194F82C2000F05F
:101FD0007841B1EBC26F12D1218E00F4C0024908E2
:101FE0004905A1F50011914209D194F8341000F08F
:101FF000C06049084906A1F1007181420CD001205E
:10200000C8E70000001002400800002000700040F7
:10201000FFFFEEFE0C809F010020BBE770B50400BF
:102020004FF001003ED094F8250028B9002084F834
:102030002400204600F03CF8022084F825001A4EC7
:10204000CA20306053203060204600F0B7FA10BB41
:10205000154D0C3D286815490840286028686168BE
:10206000A269084321691143084328602189E06877
:1020700040EA01400C4914390860204600F0C4FAD7
:1020800048B9D4E90721114362692B6823F0604302
:102090001A4311432960FF213160002802D1012138
:1020A00084F8251070BD000024280040BFFF8FFB7E
:1020B00000680549884205D1044850F8901F41F452
:1020C00000410160704700000028004000100240FD
:1020D00070B50B4D286860F0A0002860FFF712FA79
:1020E00004464FF47A7606E0FFF70CFA001BB04284
:1020F00001D9032070BD28688006F5D5002070BD89
:102100000C28004010B5401EB0F1807F01D30120A3
:1021100010BD4FF0E02460610F21601700F07CFDDE
:102120000020A06107202061002010BD90F87C10E5
:10213000012918D0012180F87C102421C0F88010DA
:1021400050F8601B0A680B6823F001030B6022F053
:1021500000510022426050F8603C19602021016269
:102160000277104670470220704770B5044690F819
:102170007C0001281DD0012084F87C002420C4F8B4
:10218000800020680568026822F001020260206871
:10219000826822F060620A438260204600F0BCFA46
:1021A000206805602020C4F88000002084F87C00AE
:1021B00070BD022070BD70B5044690F87C00012807
:1021C0001DD0012084F87C002420C4F88000206801
:1021D0000568026822F0010202602068826822F02D
:1021E00060420A438260204600F096FA206805604B
:1021F0002020C4F88000002084F87C0070BD0220FC
:1022000070BD10B5040003D0D4F8800010B107E011
:10221000012010BD002084F87C00204600F026F844
:102220002420C4F880002068016821F001010160C9
:10223000204600F037FB0128EBD0A06A10B1204601
:1022400000F09CFA2068416821F4904141602068C8
:10225000816821F02A0181602068016841F0010154
:1022600001602046BDE8104000F0ECBA10B586B021
:10227000044614216846FEF703F812492068884294
:102280001DD11148C16D41F00101C165C16D01F061
:1022900001010591C16C41F00101C164C06C0221D2
:1022A00000F0010005900C20CDE900010021029111
:1022B000CDE9031069464FF09040FFF739F806B0BA
:1022C00010BD000000800040001002402DE9F843DE
:1022D0000446D0F880001F4616460D46202851D1EE
:1022E000DDB1D6B194F87C0001284BD0012084F8F0
:1022F0007C004FF00008C4F888802120C4F88000DA
:102300001834FFF7FFF8A6878146E68754F8100CCB
:10231000183CB0F5805F03D004E00120BDE8F883ED
:10232000206920B12E46002584F87C8010E000262C
:10233000FAE78021204600F0F1FBB8B9C6B116F8E3
:10234000010B21688862B4F85600401EA4F85600BC
:10235000B4F856004B464FF0000200970028E8D131
:102360004FF04001204600F0D9FB30B10320D5E703
:1023700035F8020BC0F30800E3E72020C4F8800022
:102380000020CBE70220C9E7FEE700EB8100006EEA
:1023900000F0F84070478068C0F3C0007047806864
:1023A000C0F3800070478068C0F380007047C06849
:1023B00010F4406F01D000207047012070470423C3
:1023C00003EAD15310B518444369C1F304510724FB
:1023D0008C40A3438A401343436110BD00EB81004E
:1023E000016E21F0004111430166704730B58BB09A
:1023F000002408940994202168460A94FDF740FFC0
:102400001C484FF0A041042501604FF44031C0E961
:102410000114C4600461C0E90545047744770121D3
:10242000016280F82440C462046380F83840C463C9
:1024300080F84040FEF746FD08B1FEF7C3FA08A950
:102440000C480894FEF7C0FA08B1FEF7BBFA0A4838
:1024500000900620CDE901047F200594CDE9030515
:1024600069460448FEF71AFB002801D0FEF7AAFAD5
:102470000BB030BD1C0000200200300430B587B026
:1024800014216846FDF7FCFE1F48C16C41F00401B1
:10249000C164C16C01F004010591C16C41F02001DF
:1024A000C164C16C01F020010591C16C41F00101D2
:1024B000C164C16C01F001010591C16C41F00201E0
:1024C000C164C06C4FF0904500F0020005900022FE
:1024D00020212846FFF710F84FF4005000900B48D9
:1024E0000024CDE9010469460948FEF721FF2020B8
:1024F00000900120CDE90104694628460394FEF7C7
:1025000017FF07B030BD000000100240000011109E
:1025100000080048174810B5154901604FF4E13133
:102520004160002181600C22C160C0E90412816118
:1025300001628162FFF765FE08B1FEF743FA0021F0
:102540000C48FFF738FE08B1FEF73CFA00210948B5
:10255000FFF70BFE08B1FEF735FA0648FFF7E6FD78
:10256000002803D0BDE81040FEF72CBA10BD0000D3
:1025700000800040880000200D4810B50B49016024
:1025800000217F22C0E90112FF22C0E903214FF0A0
:1025900080424161C0E906120162FFF73FFD002859
:1025A00003D0BDE81040FEF70DBA10BD0028004072
:1025B00014010020FEE77047704700002DE9F04746
:1025C000104C814600252068400618D4206840F051
:1025D00080002060FEF796FF06464FF47A780327C6
:1025E00008E000BFFEF78EFF801B404502D903259F
:1025F00089F825702068400601D4032DF2D12846C1
:10260000BDE8F0870C2800402DE9F041064613484C
:102610000025016821F080010160104C0C34206815
:102620004FF00307800607D43046FFF751FD90B105
:1026300086F8257003250EE0206820F02000206039
:102640003046FFF745FD10B186F825700325206858
:1026500040F0200020602846BDE8F0810C280040B2
:102660007047FEF755BF000030B5A5B03821684669
:10267000FDF706FE14211FA8FDF702FE44210EA857
:10268000FDF7FEFD0020FEF7C7FFFFF72BF8194806
:1026900050F8901F21F018010160062000900120E1
:1026A0000502CDE902054020049002200421CDE975
:1026B00008015521CDE90A1007900C900D9068464D
:1026C000FFF7A6FA0F2000241F900320CDE9200475
:1026D000229404211FA82394FFF750F9064813946D
:1026E0000E900006CDE91D050EA8FFF703F825B0F2
:1026F00030BD00000010024020800800054801683D
:1027000041F47001016003494FF0006080390860B6
:102710007047000088ED00E03FB514A1D1E9002129
:10272000CDE9002113A2D2E90012CDE90212416ED7
:10273000B9B1026891689268C1F34261520F1DF805
:102740000240E50002ACA25CB5FBF2F2A0F86A2000
:102750001DF80120615CD200B2FBF1F1A0F8681015
:102760003FBD0121A0F86A10F8E700000101010354
:1027700007010000080402040801010190F8281074
:10278000C90706D001684A68C36A22F400321A43B6
:102790004A6090F82810890706D501684A68036BDB
:1027A00022F480321A434A6090F82810490706D56F
:1027B00001684A68436B22F480221A434A6090F809
:1027C0002810090706D501684A68836B22F4004285
:1027D0001A434A6090F82810C90606D501688A682D
:1027E000C36B22F480521A438A6090F8281089063D
:1027F00006D501688A68036C22F400521A438A6085
:1028000090F82810490611D501684A68436C22F4F3
:1028100080121A434A60416CB1F5801F06D10168ED
:102820004A68836C22F4C0021A434A6090F8281068
:10283000090606D501684A68C06C22F400220243EA
:102840004A607047F8B500260446C0F88860FEF775
:1028500059FE0546206800686FF07E47000708D5DE
:102860002B4600224FF400112046009700F056F945
:1028700060B92068006840070AD52B4600224FF453
:1028800080012046009700F049F908B10320F8BD07
:102890002020C4F88000C4F8840084F87C60002004
:1028A000F8BD00002DE9F041044602688068216906
:1028B000E36908436169002519430843616EDFF845
:1028C00030C2014310688B4B1840084310602068E9
:1028D0004168E26821F44051114341602168A069D8
:1028E000614501D0226A10438A68834B1A40024333
:1028F0008A602068C16A626A21F00F011143C162D7
:102900007E4923687E488B420DD1D0F8880010F0B4
:10291000030006D0012855D0022842D003283FD119
:1029200052E001203DE077498B420BD1D0F888007E
:1029300010F00C0035D0042833D0082840D00C28E3
:102940002ED141E070498B420BD1D0F8880010F0B5
:10295000300026D0102835D0202831D030281FD183
:1029600032E06A498B420BD1D0F8880010F0C000E9
:1029700017D0402826D0802822D0C02810D123E0AC
:1029800063450DD1D0F8880010F4406009D0B0F54F
:10299000806F17D0B0F5006F12D0B0F5406F13D034
:1029A00010205B495B4F00264FF40042634539D14C
:1029B00060B1022813D004280BD0082831D10DE0D3
:1029C0000220EEE70420ECE70820EAE7FFF7C4F86E
:1029D00001E0FFF7E5F8010001D17EE01146606AF1
:1029E00037F810206768B1FBF2F007EB470383422A
:1029F0006FD8B0EB073F6CD8002308461946FDF7A7
:102A000007FC090241EA10610202780810187141BE
:102A10003A460023FDF7FCFB3F4AA0F54071914286
:102A200059D956E0E3694FF6EF7893422DD1092842
:102A30004FD2DFE800F00508114E0D4E4E4E10004B
:102A4000FFF78AF801E0FFF799F8010004D144E0AC
:102A5000FFF7A6F8F9E71146606A37F81000B1FBF6
:102A6000F0F04100606801EB5001B1FBF0F080B282
:102A7000A0F1100141452CD84FF6F0710140C0F390
:102A8000420001432068C16027E0092821D2DFE825
:102A900000F0050811200D2020201000FFF75CF841
:102AA00001E0FFF76BF8010004D116E0FFF778F8BA
:102AB000F9E71146606A37F81000B1FBF0F1606881
:102AC00001EB5001B1FBF0F080B2A0F110014145E3
:102AD00001D9012501E02168C8600120A4F86A003D
:102AE00024F8680F28466660A660BDE8F081000003
:102AF00000800040F369FFCFFFF4FF110038014070
:102B0000001002400044004000480040004C0040DB
:102B10000024F400E8450008FFFC0F002DE9F04711
:102B20009A4617460E4604464FF000094FF020081B
:102B3000089D39E0681C37D0FEF7E4FCA0EB0A00E2
:102B4000A84222D80DB32068016849072CD5C06976
:102B5000C043000528D421684FF400600862206853
:102B6000016821F4D07101602068816821F00101C1
:102B70008160C4F88080C4F88480C4F8888000BF75
:102B800084F87C900320BDE8F0872068016821F478
:102B9000D07101602068816821F001018160C4F872
:102BA0008080C4F88480EBE72068C06936EA0000C2
:102BB00004D00020B842BDD00020E4E70120F9E7AE
:102BC000FEE7000037B514460846064B6A46214624
:102BD00001F042F804466946002001F0D4FB20468B
:102BE0003EBD00008743000803B4019841000098EF
:102BF00050EAC12018BF04204A0D18BF40F0010060
:102C000040F2FF72B2EB515F08BF40F002000128B2
:102C100008BF052002B070470907090E002804DB31
:102C200000F1E02080F80014704700F00F0000F180
:102C3000E02080F8141D70472DE9F04D2DED040BB8
:102C40002DED0E8B96B0DDE92550279CDDF890A088
:102C500025F0004624F00048BAF1000F14BF01210E
:102C6000002101EB4502FC4953184A1093422AD334
:102C7000002814BF0123002303EB44030B44F7494E
:102C80008B4220D358EA00019FEDF59B76D0DFF808
:102C9000D8B35D4503D1BAF1000F05D188E0BAF190
:102CA000000F08BF002100D0012101EB450111F503
:102CB000001F08D8002814BF0121002101EB4401A6
:102CC00011F5001F0BD99DED261B9DED240B16B0B1
:102CD000BDEC0E8B04B0BDE8F04D00F0A9BE00279E
:102CE000002DBCBFE149884521DAE1498845A8BFEC
:102CF00002271CDAC3451ADCDE4901EB28511429EE
:102D000008DDC1F1340220FA02F101FA02F2824236
:102D10000DD108E058B9C1F1140228FA02F101FA04
:102D200002F2424503D101F00101C1F1020756EA66
:102D30000A0124D1002C22DA002D18BF022F01D065
:102D4000012F0AD0022000F0BFFE16B0BDEC0E8BA2
:102D500004B0BDE8F04D00F053BE022000F0B4FE18
:102D600000F04EFE51EC100B81F0004141EC100BD5
:102D700016B0BDEC0E8B04B0BDE8F08D18E09FEDF1
:102D8000BEAB9FEDBF8B002871D1B848804522D1E2
:102D900005F1804010F5801008BFBAF1000F07D090
:102DA000B3450ADC002CA8BF9DED260BE0DA0DE050
:102DB000B0EE490AF0EE690ADAE7002C06DA9DED7A
:102DC000260B51EC100B81F000416FE0AE487844C7
:102DD00090ED000BCCE7D8454DD1002C48DA2EB150
:102DE00086423AD1BAF1000F42D126E0BAF1000F83
:102DF00013D0022000F068FE00F036FE8DED020BCD
:102E00009DED240B8DED000B10EE900A039961F3FC
:102E10001E0003909DED020BAAE78DED02AB9DED28
:102E2000240B1AEE901A10EE900A8DED000B61F350
:102E30001E0003909DED020B9AE78DED028B9DED38
:102E4000240B18EE901A10EE900A8DED000B61F332
:102E50001E0003909DED020B8AE709DA9DED240B1D
:102E600051EC190B53EC102BFDF735FB1EE020E065
:102E70009DED240B7CE786421BDAB4F1804F0DD028
:102E8000A4F10050B0F1FF5013D1002D11DB9DEDE6
:102E9000240B51EC100B01F057FB07E09DED240BC8
:102EA00053EC102B51EC100B00F0C2BC41EC100B9A
:102EB0005EE79DED240B51EC100B01F072FABAF1B4
:102EC000000FCDE90E0142D19FED710B46B3A6F183
:102ED000E040B0F17F600CD05E4538D1002D00DAC3
:102EE000A7B3022F0CBF01204FF0FF30FDF7E1FC2C
:102EF000DCE7002D01DD002C0DDA002D01DD002CBA
:102F00001FDB002D16DA002C14DB012F08BF9FED0C
:102F1000620B3FF42DAFB0EE4A0AF0EE6A0A27E7E3
:102F2000022F18BF002D0CD0012F0AD1002DFFF663
:102F30001FAF06E0002DB8BF002C08DA012F3FF4C8
:102F400017AFB0EE480AF0EE680A11E71BE0012067
:102F500000EBE57050EA070115D0791EB0EE498A02
:102F6000F0EE698A084308BF9FED4D8B4E4800255F
:102F7000804570DD4D494E48884514DDB0420DDB7B
:102F8000002C19DB2FE0012000F09EFD16B0BDECF7
:102F90000E8B04B0BDE8F04D00F056BDB34502DC29
:102FA000002C09DC1FE0864202DA002C1BDA03E069
:102FB0005E452BDD002C16DD022000F085FD00F0C3
:102FC00053FD8DED020B53EC1A2B51EC180BFDF752
:102FD00010FACDE900010399019861F31E000390F6
:102FE0009DED020BC4E6022000F06EFD00F04CFDEA
:102FF00010EE901A18EE900A8DED020B8DED008BFD
:1030000061F31E0003909DED020BB1E69DED0E0BEA
:1030100053EC192B51EC100BFDF7E5F99FED260B46
:10302000CDE9080153EC102B9DED080B51EC100B72
:10303000FDF7DFF99FED221B53EC112BFDF7D6F9BD
:103040009DED081B53EC112BFDF7D3F99FED1E1BD3
:1030500053EC112B3CE08CE0FFFF1F00FFFF0F0043
:10306000000000000000F03F0000F03F0000F07F93
:103070000000404301FCFFFF000000000000F07F63
:103080000000000000000000CE180000000000005A
:103090000000000000000080000000000000F0FFC1
:1030A000000000000000F0BF0000E0410000F0431D
:1030B000FFFFEF3F00000000000000000000D03FD5
:1030C000555555555555D53F000000000000E03FCF
:1030D000FDF78CF99DED080B41EC1A0B53EC102B0E
:1030E00051EC100BFDF785F953EC1A2BFDF781F924
:1030F00041EC1A0B9FEDFE0B53EC102B9DED080BD2
:1031000051EC100BFDF775F941EC1B0B9FEDFA0B21
:1031100051EC1A0B53EC102BFDF76BF941EC1A0B29
:103120009FEDF70B53EC102B9DED080B51EC100BA2
:10313000FDF75FF953EC1A2BFDF755F941EC1A0B2B
:1031400051EC1B0B53EC1A2BFDF7ACF80690CDE9B4
:1031500006519DED060B53EC1B2B51EC100BFDF7AC
:1031600042F953EC1A2BFDF741F941EC100B00F03A
:10317000A1B90020B6F5801F0EDA9FEDE30B53ECEA
:10318000102B9DED0E0B51EC100BFDF732F9CDE934
:103190000E016FF034000E4600EB2650A0F2FF3710
:1031A000C6F31300DA4940F07F6646F04056884285
:1031B000D8BF002408DDD7498142C8BF012403DC01
:1031C0000024A6F580167F1CD348784400EBC40089
:1031D0000F9690ED00CB9DED0E0B53EC1C2B51EC9C
:1031E000100BFDF700F99DED0E0B41EC1B0B53ECA2
:1031F0001C2B51EC100BFDF755F841EC100B51EC6A
:10320000190B53EC102BFDF766F941EC1D0B51EC3B
:103210001B0B53EC1D2BFDF7ECF841EC1A0BBF48D0
:103220008DED10AB7844109590ED000B4FF00050F1
:1032300040EA660000EB84408DED080B00F50020AD
:1032400009909DED080B53EC1C2B51EC100BFDF776
:10325000CAF89DED0E1B53EC112BFDF7C7F841EC9E
:10326000100B53EC102B9DED100B51EC100BFDF7D8
:10327000C0F89DED080B41EC1C0B53EC102B9DEDA1
:10328000100B51EC100BFDF7B4F853EC1B2BFDF7B2
:10329000ADF853EC1C2BFDF7A6F853EC1D2BFDF7F6
:1032A000A8F841EC1C0B53EC1A2B51EC1A0BFDF750
:1032B000A0F841EC1B0B9A480621B0EE4B0AF0EE49
:1032C0006B0A784400F01DFBB0EE401AF0EE601A75
:1032D000B0EE41DAF0EE61DA53EC1B2B51EC1B0B34
:1032E000FDF787F853EC1D2BFDF783F89DED100BD0
:1032F00041EC1B0B53EC1A2B51EC100BFCF7D2FFDB
:1033000053EC1C2BFDF775F853EC1B2BFCF7CAFF95
:103310009DED100B41EC1B0B53EC102B51EC100BE3
:10332000FDF767F841EC1D0B9FED7FEB53EC1E2B77
:10333000FCF7B8FF53EC1B2BFCF7B4FF0890CDE96A
:1033400008519DED080B53EC1E2B51EC100BFDF7B3
:103350004AF853EC1D2BFDF746F853EC1B2BFDF7F9
:1033600045F89DED080B41EC1D0B53EC102B9DED2A
:10337000100B51EC100BFDF73CF841EC1B0B53EC20
:103380001A2B51EC1D0BFDF734F89DED080B41ECA9
:103390001A0B53EC102B51EC1C0BFDF72AF853ECD5
:1033A0001A2BFCF77FFF41EC1A0B51EC1B0B53EC73
:1033B0001A2BFCF777FF0C90CDE90C519DED0C0B0F
:1033C00053EC1B2B51EC100BFDF70DF853EC1A2BA3
:1033D000FDF70CF841EC1B0B9FED550B53EC102B3C
:1033E0009DED0C0B51EC100BFDF703F841EC1A0BA3
:1033F0009FED510B51EC1B0B53EC102BFCF7F9FF1D
:1034000041EC1B0B9FED4E0B53EC102B9DED0C0B69
:1034100051EC100BFCF7EDFF53EC1B2BFCF742FFBC
:1034200041EC100B4848784400EBC40090ED001BC1
:1034300051EC100B53EC112BFCF734FF41EC1B0B40
:103440003846FDF736FACDE9080153EC1B2B51EC59
:103450001A0BFCF727FF41EC100B3C48784400EBBB
:10346000C40090ED00CB51EC100B53EC1C2BFCF77F
:1034700019FF9DED081B53EC112BFCF713FF069071
:10348000CDE906519DED080B53EC102B9DED060B7D
:1034900051EC100BFCF7A7FF53EC1C2BFCF7A3FF20
:1034A00053EC1A2BFCF79FFF53EC1B2BFCF79EFFF2
:1034B00041EC100B9DED261B53EC102B8DED001BEA
:1034C00000959DED260B51EC100BFCF792FF9DED46
:1034D000000B41EC1A0B53EC102B9DED260B51EC1D
:1034E000100BFCF780FF9DED061B53EC112B2FE01A
:1034F000000000604715F73FFE822B654715F73F38
:1035000044DF5DF80BAE543E000000000000404375
:103510008E9803007AB60B004A140000781400005D
:1035200082130000000000000000000000000840BE
:10353000000000E009C7EE3FFD033ADC09C7EE3F9B
:10354000F5015B14E02F3EBE0E120000C811000012
:10355000FCF74FFF53EC1A2BFCF7A4FE9DED060B76
:1035600041EC1A0B53EC102B9DED000B51EC100BA2
:10357000FCF73FFFCDE90C019DED0C0B51EC1A0B54
:1035800053EC102BFCF78EFECDE902010C46AA4944
:103590008C422FDB611A084318D19DED0C0B53ECC4
:1035A000102B9DED020B51EC100BFCF71CFF41ECB6
:1035B0001B0B9FEDA30B51EC1A0B53EC102BFCF7DC
:1035C00071FE53EC1B2BFDF79DF92DD2022000F06C
:1035D0007BFA00F049FA10EE901A18EE900A8DED81
:1035E000020B8DED008B61F31E0003909DED020B2D
:1035F000FFF7BEBB944A24F00041914214D3934993
:10360000214408437FF4EFAC9DED0C0B53EC102BE1
:103610009DED020B51EC100BFCF7E5FE53EC1A2B61
:10362000FDF770F97FF6DFAC24F000408849894A45
:10363000002601EB205182422BDA481C4FF4801106
:1036400021FA00F02044844AC0F30A517A44A1F2DE
:10365000FF3192ED000B814A8DED080BCA4020EA44
:103660000202C0F3130040F48010C1F1140120FAEB
:1036700001F60992002CB8BF76429DED080B53EC81
:10368000102B9DED0C0B51EC100BFCF7ACFECDE9B3
:103690000C019DED0C0B51EC1A0B53EC102BFCF7AD
:1036A00001FE9FED6F0B0890CDE9085153EC102BF4
:1036B0009DED080B51EC100BFCF79BFE41EC1B0B36
:1036C0009FED690B53EC102B9DED080B51EC100B8B
:1036D000FCF78FFE9DED0C0B41EC1C0B53EC102BFB
:1036E0009DED080B51EC100BFCF77DFE53EC1A2BF3
:1036F000FCF77CFE9FED5E1B53EC112BFCF779FE73
:1037000053EC1C2BFCF7CEFD41EC1A0B51EC1B0BC0
:1037100053EC1A2BFCF7C6FDCDE902019DED020B1F
:1037200053EC1B2B51EC100BFCF75DFE53EC1A2BEA
:10373000FCF75CFE9DED020B41EC1A0B53EC102BD9
:1037400051EC100BFCF755FECDE908014A489DED00
:10375000080B0521784400F0D4F89DED081B51ECCE
:10376000100B53EC112BFCF744FE9DED021B53ECA8
:10377000112BFCF73BFECDE906019DED020B53EC4E
:103780001A2B51EC100BFCF734FE53EC1A2BFCF700
:1037900089FD9FED3B0B41EC1A0B53EC102B9DED7B
:1037A000060B51EC100BFCF71EFE9DED060B41ECD9
:1037B0001B0B53EC102B9DED020B51EC100BFCF787
:1037C00018FE53EC1B2BFCF786FE53EC1A2BFCF770
:1037D0000AFE9DED021B53EC112BFCF704FE53EC8B
:1037E000192BFCF703FECDE9020101EB0650011590
:1037F0000029C8BF039015DC9DED020B324651EC49
:10380000100BFCF7EEFFFFF7EFF9042808BF00F0FC
:103810003BF932469DED020B51EC100BFCF7E1FF3A
:10382000CDE902019DED020B51EC180B53EC102B6E
:10383000FCF7DFFDFFF73ABB0000904000000000FE
:10384000FE822B654715973C00CC904000346F3FBB
:1038500001FCFFFF0000E03F50100000FFFF0F00E1
:1038600000000000432EE63F396CA80C615C20BECE
:10387000EF39FAFE422EE63F200F00000000000064
:10388000000000000000004000B52DED048BB0EEFC
:10389000409AF0EE609A83B051EC190BFCF7B8FF38
:1038A00041EC180B18EE100A18EE901A8DED008BF3
:1038B000002818BF0120084320F00040C0F17F60BD
:1038C00000F1E040C00F14D019EE101A19EE900A62
:1038D0008DED009B002918BF0121084320F0004016
:1038E000C0F17F6000F1E040C00F04BF012000F094
:1038F000EBF8B0EE480A03B0F0EE680ABDEC048BBA
:1039000000BD70B504462DED028B4D1E00EBC500C9
:10391000B0EE408AF0EE608A90ED000B35F00600C4
:1039200017D053EC182B51EC100BFCF762FD41EC57
:10393000100B6D1E04EBC50090ED001B51EC100B3D
:1039400053EC112BFCF7AEFC41EC100B35F00600EC
:10395000E7D1022D36D0042D1CD0062D1CBFBDECA6
:10396000028B70BD53EC182B51EC100BFCF741FD92
:1039700094ED0A1B53EC112BFCF794FC53EC182B21
:10398000FCF737FD94ED081B53EC112BFCF78AFC78
:1039900041EC100B53EC182B51EC100BFCF729FDEC
:1039A00094ED061B53EC112BFCF77CFC53EC182B0D
:1039B000FCF71FFD94ED040B53EC102BFCF772FC8D
:1039C00041EC100B53EC182B51EC100BFCF711FDD4
:1039D00094ED021B53EC112BFCF764FC53EC182BF9
:1039E000FCF707FD94ED001B53EC112BFCF75AFC80
:1039F000BDEC028B41EC100B70BD0000000000001C
:103A00009FED070B10B553EC102B9FED070B51ECFE
:103A1000100BFCF760FD41EC100B10BD0000000026
:103A20000000000000000000000000000000F03F67
:103A300010B553EC112B51EC100BFCF733FC41EC9F
:103A4000100B10BD000000009FED050B10B553ECEE
:103A5000102B51EC100BFCF73EFD41EC100B10BD90
:103A600000000000000000009FED050B10B553ECB6
:103A7000102B51EC100BFCF7BCFC41EC100B10BDF3
:103A800000000000000000709FED050B10B553EC26
:103A9000102B51EC100BFCF7ACFC41EC100B10BDE3
:103AA000000000000000001002E008C8121F08C15A
:103AB000002AFAD170477047002001E001C1121FAF
:103AC000002AFBD1704700000149086070470000E0
:103AD000180000202DE9FF5F82B00021DDE90430ED
:103AE000020DDDF840B0034318D044F61050A2F2A6
:103AF000FF3242431514119801281FD0A5EB0B008B
:103B0000401C5FEA000A4FF000064E4FDFF8389184
:103B1000B046504615D5CAF1000413E011980124AF
:103B20004AA3012801D16FEA0B010298119AC0E95A
:103B30000031C0E9024206B0BDE8F09FCBF10000C1
:103B4000DFE704460021404A491842EB0450CDE922
:103B5000001012E0E00707D032463B464046494697
:103B6000FCF747FC8046894632463B4610461946DC
:103B7000FCF73FFC06460F466410002CEAD1DDE955
:103B80000401DDE90023BAF1000F06DAFCF731FC8D
:103B900042464B46FCF72DFC05E0FCF79CFC4246F8
:103BA0004B46FCF798FC04460E460022284BFCF7D7
:103BB000A9FE03D84FF0FF30014607E00022254B55
:103BC00020463146FCF76EFBFCF784FE102409E02A
:103BD000002C0ADB0A220023FCF71AFB039B30327D
:103BE0001A55641E50EA0102F2D1641C039AC4F112
:103BF00011031444119A012A03D0012208430DD164
:103C00000AE0084304D000204FF0110B119072E736
:103C1000A3EB0B056D1E0DE05B4504DD4FF00002CC
:103C200005F1010504E003DA4FF00002A5F10105FA
:103C3000002AECD002981199C0E90231C0E9004590
:103C400079E70000000014400000F03F3000000061
:103C50000000F0430000E03F2DE9FF4F95B09B4688
:103C60008946064600250FE2252877D100242746FD
:103C7000F84A0121059400E0044316F8013F203B77
:103C800001FA03F01042F7D130782A2811D06FF0F2
:103C90002F033078A0F13002092A16D8059A44F093
:103CA000020402EB820203EB42021044761C0590F0
:103CB000EFE759F8042B0592002A03DA504244F446
:103CC0000054059044F00204761C30782E2816D15A
:103CD00016F8010F44F004042A280DD06FF02F02CB
:103CE0003078A0F13003092B09D807EB870302EBEA
:103CF0004303C718761CF3E759F8047B761C307829
:103D00006C280FD006DC4C2817D068280DD06A2804
:103D100014D104E0742810D07A280FD10DE044F4B7
:103D200000140AE044F4801401E044F44014727872
:103D3000824202D104F58014761C761C3078662805
:103D40000BD013DC582877D009DC002875D0452823
:103D5000F6D04628F4D047281AD19DE118E0632810
:103D600035D0642879D0652812D195E1702873D0B8
:103D700008DC6728F1D069286FD06E280DD06F2835
:103D800006D1B5E073282CD0752875D0782874D06A
:103D90005A46179990476D1C75E1C4F302500228EA
:103DA00009D003280DD0D9F8001004280DD00D60DB
:103DB00009F1040967E1D9F80010EA17C1E90052D6
:103DC000F6E7D9F800100D80F2E70D70F0E719F86A
:103DD000041B8DF8001000208DF80100EA46012038
:103DE00003E059F804AB4FF0FF3061074FF00001DA
:103DF00002D40DE008F101018846B9420FDA80458E
:103E0000F8DB1AF808100029F4D108E008F10101E4
:103E100088468142FADB1AF808100029F6D1059885
:103E20005B46A0EB080721463846179A00F094FA43
:103E3000284400EB080507E04DE029E10DE01AF801
:103E4000010B5A4617999047B8F10108F7D25B4623
:103E500021463846179A13E142E00A220092C4F341
:103E600002524FF0000A022A08D059F804CB032A64
:103E70004FEAEC710AD00DE029E02AE009F10701D0
:103E800021F00702F2E802C1914609E00FFA8CFC2A
:103E90004FEAEC71042A03D14FFA8CFC4FEAEC7123
:103EA000002907DA0A460021DCF1000C61EB02016F
:103EB0002D2202E0220504D52B228DF804200122B8
:103EC00003E0E20701D02022F7E7904659E00A21FB
:103ED00002E010220DE010214FF0000A00910BE0EB
:103EE00010224FF0000A44F004040827009203E077
:103EF00008224FF0000A0092C4F30252022A05D0B1
:103F000059F804CB0021032A08D009E009F1070180
:103F100021F00702F2E802C1914605E01FFA8CFC8D
:103F2000042A01D10CF0FF0C4FF00008220728D51D
:103F3000702806D0009B83F0100353EA0A0305D0D3
:103F40000EE040228DF80420012208E05CEA010224
:103F500006D030228DF804208DF80500022290460C
:103F6000009B83F0080353EA0A030AD15CEA0102CA
:103F700001D1620705D530228DF804204FF00108E9
:103F80007F1E582804D034A003900EA802900DE0A4
:103F900036A0F9E753466046009AFCF739F98446A3
:103FA0000398825C0298401E029002705CEA010055
:103FB000F0D1029806A9081A00F1200A600702D57C
:103FC00024F4803400E00127574502DDA7EB0A0006
:103FD00000E0002000EB0A01009005984144401ADF
:103FE0000590E00306D45B462146179A059800F039
:103FF000B3F90544002706E001A85A46C05D1799A9
:1040000090476D1C7F1C4745F6DBE0030CD55B46F3
:104010002146179A059800F09FF9054404E03020E6
:104020005A46179990476D1C0099481E0090002928
:10403000F5DC08E0029802995A460078491C029182
:10404000179990476D1CBAF10001AAF1010AF1DC41
:1040500065E100000928010030313233343536374C
:1040600038396162636465660000000030313233C4
:104070003435363738394142434445460000000064
:1040800000F058F90544761C307800287FF4ECAD38
:1040900019B02846BDE8F08F620700D4062709F161
:1040A000070222F0070CFCE80223E14603F0004877
:1040B0005FEA080C02D00FF2702C0DE05FEA045C9E
:1040C00002D50FF2682C07E05FEAC47C02D00FF241
:1040D000602C01E0AFF2700C4FF0FF3823F000438A
:1040E000CDF850C065280CD006DC452809D04628FC
:1040F0001DD047283DD13DE0662818D067287ED1E5
:1041000038E00021112F01DB112000E0781CCDE9FF
:10411000000106A90EA8FFF7DDFCDDE90F010E9AEC
:1041200003910021009207F1010A04914DE04FF044
:1041300000400097CDE9011006A90EA8FFF7CAFCC0
:10414000DDE90F0203920E9B11990022DDF80CA00D
:104150000093049211B9791C00EB010AB7EB0A0035
:1041600004D4C0F1FF3007F1010A0490AAEB070064
:10417000019044E0012F00DA01270021112F01DD19
:10418000112000E03846CDE9000106A90EA8FFF78E
:10419000A1FCDDE90F010E9A039100210491009228
:1041A000BA4621070CD40399514500DA8A46BAF180
:1041B000010F05DD009AAAF10101515C302908D0F8
:1041C000B84202DA10F1040F06DA0121CDE901103C
:1041D00015E0AAF10101E9E7002805DC0499014492
:1041E0000491AAEB000102E0411C514500DD8A4622
:1041F0000499401A401C01904FF0004002902007A3
:1042000004D40198504501DBCDF8048000208DF8DE
:104210004F0002980DF14F07B0F1004F25D02B2031
:104220000E9002984FF0020800280CDA40420290EB
:104230002D200E9007E00A210298FCF7F7F93031A3
:10424000029007F8011DB8F10001A8F10108F2DCA5
:1042500002980028EFD1791E0E980870307800F08F
:10426000200040F0450007F8020D12A8C01B00F125
:1042700007081498007800B1012000EB0A010198AA
:1042800001EBE07105984144401A401E0590E0039F
:1042900006D45B462146179A059800F05DF8054460
:1042A0001498007818B15A46179990476D1CE0038E
:1042B00024D55B462146179A059800F04DF8054431
:1042C0001CE00498002807DBDDE90301884203DDD8
:1042D0000098405C179901E0179930205A469047A2
:1042E000049805F10105401C04900198401E0190BE
:1042F00004D12E205A46179990476D1CBAF100013F
:10430000AAF1010ADDDC05E017F8010B5A461799FE
:1043100090476D1CB8F10001A8F10108F4DC5B4680
:104320002146179A0598ABE62D0000002B000000EF
:10433000200000002DE9F041044600251E461746E6
:10434000880404D405E039462020B0476D1C641E63
:10435000F9D52846BDE8F0812DE9F0410446002555
:104360001E469046C80301D5302700E02027880468
:1043700004D505E041463846B0476D1C641EF9D5AA
:104380002846BDE8F0810A68531C0B601070704726
:104390000FB410B503A9029800F00EF910BC5DF837
:1043A00014FB82B0CDE9000121F0004001909DEDA9
:1043B000000B02B051EC100B704700002DED028B8A
:1043C000FDF7AEF8FEF750F9FEF758F8FEF7A2F841
:1043D000FEF7D2F8FEF70AF83A48FCF7BDFA39487A
:1043E000FCF78CFF4FF09045012220212846FDF775
:1043F00083F84FF47A742046FCF788FF00222021CE
:104400002846FDF779F82046FCF780FF2346222254
:104410002DA13648FDF75AFF354D2A48FCF7F4FE2A
:104420002C4621462748FCF775FE0028F9D125487F
:10443000FCF744FD2F4C2060FCF7BCF89FED2E1BD1
:1044400053EC112BFBF7D2FF9FED2D1B53EC112BDF
:10445000FBF7CFFF41EC180B9FED2B1B9FED2C0BB7
:10446000FEF7EAFB53EC182B51EC100BFBF71AFF8D
:1044700041EC100BFFF708FA9FED271B51EC100BD6
:1044800053EC112BFBF7B2FF9FED251B53EC112BC7
:10449000FCF721F89FED241B53EC112BFBF702FFD7
:1044A000FCF7A8F86060FCF792F841EC100B20A034
:1044B00053EC102BFFF76CFF40F6B830FCF726FFEB
:1044C000ABE700001C0000200A0D416E616C6F67B5
:1044D0002054656D70657261747572652053656EE8
:1044E000736F72204C4D5438360000008800002055
:1044F00040420F00000000203333333333C59B406C
:104500003E3F8C101E6D8C3F0000000000000040FC
:104510002DB29DEFA7C625C02DB29DEFA7C62540A1
:104520003E3F8C101E6D7CBF0000000000003E402E
:104530000A0D54656D706572617475726520696EDF
:104540002043203A2025660000B52DED048B83B072
:1045500041EC190BFCF75CF941EC180B18EE100A52
:1045600018EE901A8DED008B002818BF012008432B
:1045700020F00040C0F17F6000F1E040C00F14D097
:1045800019EE101A19EE900A8DED009B002918BF44
:104590000121084320F00040C0F17F6000F1E040BD
:1045A000C00F04BF0120FFF78FFA51EC180B03B0C6
:1045B000BDEC048B00BD000000B50A46B3B0014657
:1045C0006846FEF7FFFA002809DD6846FBF763FE40
:1045D00082B26FF07F4369460248FDF777FE33B041
:1045E00000BD000088000020010002000400060059
:1045F00008000A000C0010002000400080000001AC
:104600000000000000000000010203040607080982
:104610000000000001020304000000000000F03F61
:10462000000000000000F83F000000000000000053
:104630000000004003B8E23F00000000000000005E
:1046400006D0CF43EBFD4C3E033333333333E33FEC
:10465000FFAB6FDBB66DDB3F4D268F515555D53F18
:1046600001411DA96074D13F65DBC9934A86CD3FE6
:10467000EF4E454A287ECA3F3E5555555555C53FD4
:1046800093BDBE166CC166BF2CDE25AF6A56113FC6
:10469000F16BD2C541BDBBBED0A4BE726937663EC8
:1046A0000000000000000000C846000800000020D4
:1046B0001C000000A83A0008E44600081C00002086
:1046C00024050000B83A00080000000000000000C7
:1046D0001000000001000000000000000024F400B1
:0446E00000000000D6
:04000005080001D915
:00000001FF
