:020000040800F2
:1000000010050020ED0100081B2200083D1E00081D
:1000100019220008690800082128000800000000D3
:10002000000000000000000000000000C5220008E1
:100030006B080008000000001D220008C72200080D
:10004000070200080702000807020008070200086C
:10005000070200080702000807020008070200085C
:10006000070200080702000807020008070200084C
:10007000070200080702000807020008070200083C
:10008000070200080000000007020008070200083D
:10009000070200080702000807020008070200081C
:1000A000070200080702000807020008070200080C
:1000B00007020008070200080702000807020008FC
:1000C00007020008070200080702000807020008EC
:1000D00007020008070200080702000807020008DC
:1000E00007020008070200080702000807020008CC
:1000F00007020008070200080702000800000000CD
:1001000000000000070200080000000007020008CD
:1001100007020008000000000702000807020008AC
:10012000070200080702000807020008070200088B
:10013000070200080000000000000000070200089D
:10014000070200080702000800000000000000008D
:10015000000000000000000000000000000000009F
:10016000000000000000000000000000070200087E
:10017000070200080000000000000000000000006E
:10018000000000000702000800000000000000005E
:10019000000000000000000000000000000000005F
:1001A000000000000000000007020008070200082D
:1001B000070200080702000807020008000000000C
:1001C000000000000702000800000000000000001E
:1001D0000702000807020008DFF80CD000F032FB2D
:1001E00000480047593100081005002006488047A4
:1001F00006480047FEE7FEE7FEE7FEE7FEE7FEE70C
:10020000FEE7FEE7FEE7FEE75D230008D9010008F0
:100210002DE9F05F0546002092469B46884606463B
:10022000814640241BE0284641464746224600F0CE
:1002300022FA53465A46C01A914110D31146184625
:10024000224600F009FA2D1A67EB01084F462246B4
:100250000120002100F000FA17EB00094E41201E9A
:10026000A4F10104DFDC484631462A464346BDE896
:10027000F09FD2B201E000F8012B491EFBD270477B
:100280000022F6E710B513460A4604461946FFF762
:10029000F0FF204610BD421C10F8011B0029FBD1C5
:1002A000801A70472DE9FE4F804681EA0300C00F97
:1002B0000C46009021F0004123F00045B8EB02000D
:1002C000A94105D24046214690461C460B460246AF
:1002D00023F00040104347D0270DC7F30A00C3F3B3
:1002E0000A510290401A019040286BDAC3F31300C0
:1002F00040F4801B0098924620B10023D2EB030A01
:1003000063EB0B0B01985946C0F14002504600F0D8
:10031000A3F906460D4650465946019A00F0BBF92E
:1003200010EB08006141002487EA115284EAE77368
:100330001A4340D0009A62B3019A012A4FEA075249
:1003400015DC001B61EB02014FF0004202EA07528C
:10035000CDE90042001C41F5801132462B4600F0E9
:10036000F2F903B0BDE8F08F40462146F9E7001BE3
:1003700061EB0201001C41F5801300185B4120185D
:10038000A2F5001747EB030140EAD570B6196D419D
:1003900011E06D084FEA360645EAC0754FEA07528C
:1003A000001B61EB0201001C41F5801149084FEA76
:1003B00030000019514132462B4603B0BDE8F04FE2
:1003C00000F0B2B90098012240000023D0EB0202F5
:1003D00063EBE073009821464FEAE074B8EB00004D
:1003E00061EB0401E9E783F000435BE781F0004142
:1003F00058E72DE9FE4F81EA030404F0004421F0A0
:10040000004100944FF0000B23F0004350EA010438
:100410005ED052EA03045BD0C3F30A54C1F30A5519
:100420002C44A4F2F3340194A0FB0254C1F3130151
:1004300041F48011C3F3130343F4801301FB02441E
:1004400000FB034E840A970A44EA815447EA835723
:10045000A4FB076802958D0A05FB07854FEA932CDC
:1004600004FB0C542705029D4FEA065847EA16374D
:10047000B5EB08056EEB070C870E920E47EA811765
:1004800042EA8312A7FB0201B6EB0B0164EB000406
:100490002B0D43EA0C335E1844EB1C50DA465146F0
:1004A000E7FB0201C5F313044FEA0B3343EA14538D
:1004B0004FEA0432019C43EA0603A4F10C040294BF
:1004C000009CCDE900B400F03EF903B0BDE8F08F28
:1004D00000200146F9E72DE9F04D81EA030404F01C
:1004E000004B21F0004514464FF0000A23F0004174
:1004F00050EA050220D054EA01021DD0C5F30A5784
:100500000246C5F31303C1F31300C1F30A5640F4C6
:10051000801543F48013A7EB0608101BD64608F29B
:10052000FD3873EB050002D308F1010801E09218D1
:100530005B41B8F1000F03DA00200146BDE8F08D01
:1005400000204FF48011064684460EE0171B73EB23
:10055000050705D3121B63EB050306434CEA010CA8
:1005600049084FEA300092185B4150EA0107EDD18B
:1005700052EA030012D082EA040083EA050108432C
:1005800005D0101BAB4106D20122002306E0002259
:100590004FF0004302E06FF0010253101AEB060027
:1005A0004CEB085110EB0A0041EB0B01BDE8F04D9C
:1005B00000F0BAB80EB540F2334102910021CDE906
:1005C00000110A460B4600F0BEF803B000BD00F073
:1005D000004230F000400AD0C10D01F56071C0F357
:1005E000160042EA0151C20840071143704700203B
:1005F0000146704701F0004330B421F0004150EA59
:10060000010206D00A0DA2F56072C1F31301002A9F
:1006100002DC30BC00207047440F44EAC104C10032
:10062000E01830BC00EBC25000F047B830B50B46C4
:10063000014600202022012409E021FA02F59D4212
:1006400005D303FA02F5491B04FA02F52844151EE6
:10065000A2F10102F1DC30BD202A04DB203A00FACD
:1006600002F1002070479140C2F1200320FA03F309
:10067000194390407047202A04DB203A21FA02F007
:100680000021704721FA02F3D040C2F120029140CC
:10069000084319467047202A06DBCB17203A41FA57
:1006A00002F043EAE07306E041FA02F3D040C2F1FF
:1006B000200291400843194670470029A8BF70479F
:1006C000401C490008BF20F00100704710B4B0FA88
:1006D00080FC00FA0CF050EA010404BF10BC704723
:1006E00049B1CCF1200421FA04F411FA0CF118BF3D
:1006F000012121430843A3EB0C01CB1D4FEA00610C
:100700004FEA102042BF002010BC704700EBC350DE
:1007100010440029A4BF10BC7047401C490008BF0A
:1007200020F0010010BC704710B5141E73F10004D6
:1007300008DA401C41F1000192185B411A4301D1D3
:1007400020F0010010BD2DE9F04D92469B4611B1FD
:10075000B1FA81F202E0B0FA80F220329046FFF75F
:100760007BFF04460F4640EA0A0041EA0B0153466C
:100770005A46084313D0114653EA010019D0C8F174
:1007800040025046FFF777FF05460E465046594651
:100790004246FFF761FF084305D0012004E02046F0
:1007A0003946BDE8F08D0020054346EAE0762C434B
:1007B00037430A986305E40AA0EB08000022FD0A0B
:1007C00044EA47540A3002D500200146E9E7010512
:1007D00010196941DDE9084500196941BDE8F04D8E
:1007E000A2E7C1F30A52C1F3130140F2FF3341F40F
:1007F00080119A4202DA00200146704740F23343EA
:100800009A42A2F2334202DC5242FFF734BFFFF7B2
:1008100023BF000030B5041E71F1000404DB4FF06B
:100820000044404264EB0101141E73F1000405DB37
:100830001C464FF00043524263EB0403994208BF49
:10084000904230BD064C074D06E0E06840F00103E1
:1008500094E8070098471034AC42F6D3FFF7C0FC89
:100860001036000830360008FEE770477047000079
:1008700070B5044600F0F8F80546601C02D0044844
:100880004068044400F0F0F8401BA042FAD370BD69
:10089000000000202DE9FC4FDFF8A0A10023012576
:1008A0000AF1040B03244FF00F0C0BF1040EBDE012
:1008B00005FA03F632406FD04F68012F05D0022FA2
:1008C00003D0112F01D0122F17D1D0F808905F005C
:1008D00004FA07F829EA08090097D1F80C8008FA09
:1008E00007F848EA0908C0F808804768B7430E7956
:1008F000C6F300169E403E434660C6684FEA430872
:1009000004FA08F7BE4301978F6807FA08F73743E0
:10091000C7604E68022E01D0122E13D1DE0800EB04
:1009200086060096366A5F07FF0E0CFA07F926EA7C
:100930000906D1F8109009FA07F949EA0609009E5C
:10094000C6F820900668019FBE430F7907F00307A1
:1009500007FA08F7374307604E68F60065D5384E4A
:10096000376E47F001073766366E23F0030706F04F
:1009700001060096334E3E44B146B6689F074FEAE3
:1009800017780CFA08F7BE43B0F1904F05D02E4F00
:10099000B84204D1012717E047E0002714E02B4FAD
:1009A000B84201D102270FE0294FB84201D10327F5
:1009B0000AE0284FB84201D1042705E0264FB8428B
:1009C00001D1052700E0062707FA08F73743C9F8E1
:1009D0000870DAF800605746D1F8048096435FEA61
:1009E000C83800D516433E60DBF800605F46D1F89A
:1009F000048096435FEA883800D516433E60DEF8EF
:100A000000607746D1F8048096435FEAC82800D595
:100A100016433E60094F0C373E68D1F80480964378
:100A20005FEA882800D516433E605B1C0A6832FAEC
:100A300003F67FF43DAFBDE8FC8F000000040140E9
:100A40000010024000000140000400480008004877
:100A5000000C004800100048001400480AB18161F1
:100A6000704781627047000001488068704700004D
:100A70000000002090F84120202A24D190F8402046
:100A8000012A20D0012280F84020242280F8412031
:100A90000268136823F0010313600268136823F4EB
:100AA00080531360026813680B43136001680A687F
:100AB00042F001020A60202180F84110002180F8F4
:100AC0004010084670470220704790F84120202AC5
:100AD00022D190F84020012A1ED0012280F8402027
:100AE000242280F841200268136823F00103136078
:100AF0000268136823F4706343EA012111600168FE
:100B00000A6842F001020A60202180F841100021A9
:100B100080F84010084670470220704770B5040006
:100B200004D094F84100002510B106E0012070BD0A
:100B300084F84050204600F003FA242084F8410055
:100B40002068016821F0010101606068216820F0DF
:100B5000706008612068816821F400418160E0686C
:100B60000128A06807D040F4044021688860E0684C
:100B7000022803D006E040F40040F6E721684FF475
:100B80000060486020684168114A11434160206854
:100B9000C16821F40041C160D4E904010843A1699E
:100BA00040EA01202168C860D4E9070108432168B0
:100BB00008602068016841F001010160656420203F
:100BC00084F84100256384F84250002070BD000085
:100BD000008000022DE9FC4700260446019690F8AB
:100BE00041001F469246894620287ED120688069B0
:100BF000C043000479D594F84000012875D0012045
:100C000084F84000242084F8410066644FF02008F6
:100C1000E068012809D029F4544040F420502168AC
:100C20004860FFF721FF05460DE0314949EA010020
:100C300030490840F3E7781C05D0FFF715FF401B4B
:100C4000B84219D8C7B1216888698969C0F34010D2
:100C5000C1F300110843EED0206880693B46C043D1
:100C6000C0064FF000024FF020012046009517D536
:100C700001F04EF968BB09E084F8418054F8440F54
:100C800040F0200044F80409267022E02168C1F8F1
:100C90001C8084F8418084F840600020BDE8FC8717
:100CA00001F036F9A8B921681020C8612168C1F89F
:100CB0001C800198504512D12068416841F4804160
:100CC00041603B46002220212046009501F020F99A
:100CD00010B10120E2E708E02168C1F81C8001980A
:100CE000401C0190504593D3C6E70220D6E7000090
:100CF00000200002FF2300022DE9F84F044690F87F
:100D00004100DDF828A01F4690468B4620287ED162
:100D100094F8400001287AD0012084F84000FFF7C1
:100D2000A3FE0646012200901923D103204601F0BC
:100D3000EFF8E0BB222084F84100102084F8420044
:100D400000256564C4F8248067856563618D31483A
:100D5000FF274FF080784FF00079FF2903D92785CE
:100D60003A46009039E0618D218500903AE059467D
:100D7000204601F0B7F813E001F0F6F8B8B92068A2
:100D8000406A616A0870606A401C6062208D401E83
:100D900080B22085618D491E6185618D01B168B188
:100DA000608D3246002851462046E5D100E002E041
:100DB00001F01CF9D0B10120BDE8F88F53460022A4
:100DC00080212046009601F0A3F80028F3D1608D21
:100DD000FF2804D927853A4600954346C7E7608D2A
:100DE0002085009594F828204B46C0E721682020F4
:100DF000C86121684A68084B1A404A6084F841007B
:100E000084F8425084F840500020D5E7FFE70220E4
:100E1000D2E700000024008000E800FE2DE9F84F32
:100E2000044690F84100DDF828A01F4690468B4606
:100E300020287ED194F8400001287AD0012084F83F
:100E40004000FFF711FE0646012200901923D1034E
:100E5000204601F05DF8E0BB212084F8410010201D
:100E600084F8420000256564C4F8248067856563C2
:100E7000618D3148FF274FF080784FF00079FF29CE
:100E800003D927853A46009039E0618D218500908D
:100E90003AE05946204601F025F813E001F0CCF87D
:100EA000B8B9606A216800788862606A401C606234
:100EB000608D401E6085208D401E80B22085618D32
:100EC00001B168B1608D3246002851462046E5D117
:100ED00000E002E001F08AF8D0B10120BDE8F88F0F
:100EE0005346002280212046009601F011F8002888
:100EF000F3D1608DFF2804D927853A4600954346F3
:100F0000C7E7608D2085009594F828204B46C0E700
:100F100021682020C86121684A68084B1A404A604D
:100F200084F8410084F8425084F840500020D5E70E
:100F3000FFE70220D2E700000020008000E800FE6A
:100F40002DE9F04186B0044614216846FFF798F970
:100F50001949206888422BD1184CE06C40F0010000
:100F6000E064E06C00F001000590E06C40F00200ED
:100F7000E064E06C122500F002000590C813012621
:100F800000274FF004088DE8E1016946A806FFF745
:100F900081FC80208DE8E10169460948FFF77AFC71
:100FA000A06D40F40010A065A06D00F40010059045
:100FB00006B0BDE8F081000000540040001002407F
:100FC000000400480248816842681144816070470B
:100FD0000000002010B50024032000F065F8002078
:100FE00000F008F808B1012401E000F025F82046DF
:100FF00010BD000070B50E4E05460024706898B113
:101000004FF47A71B1FBF0F00A490968B1FBF0F0D6
:1010100000F0D2FD40B9102D06D200222946501E04
:1010200000F022F8356000E00124204670BD000089
:10103000000000200C0000200A4882B0016E41F040
:1010400001010166016E01F001010091816D41F025
:1010500080518165806D00F08050009002B000F0FA
:1010600093B8000000100240F0B40E4B1B680C4611
:10107000C3F30223C3F10705042D00D90425191D6C
:10108000072901D2002300E0DB1E012606FA05F144
:10109000491E214099409E40761E16403143F0BCC7
:1010A00001F0D2BB0CED00E0064900F00702086831
:1010B0004FF6FF03184040EA0220034A104308603D
:1010C000704700000CED00E00000FA052B492C4BA6
:1010D0000A6832214A432B4940B1B0F5007F0868C5
:1010E00029D020F4C06040F480602CE00868C0F390
:1010F0004120022804D051F8800F20F4807022E0B3
:10110000D1F8800020F48070C1F88000086820F4D5
:10111000C06040F400700860B2FBF3F0401C00E0D7
:10112000401E4A69520501D50028F9D14869400599
:101130000AD503207047C0F34120022806D051F899
:10114000800F40F48070086000207047D1F8800064
:1011500040F48070C1F88000086820F4C06040F45A
:1011600000700860B2FBF3F0401C00E0401E4A69CA
:101170005205DBD50028F9D1D8E700000C0000208B
:1011800040420F00007000400248816841F48041F5
:1011900081607047007000400248016841F480712E
:1011A00001607047007000402DE9F8430446006874
:1011B00000269D4D00035ED5A86D0027C00008D411
:1011C000A86D40F08050A865A86D012700F0805000
:1011D0000090DFF85892D9F8001041F48071C9F8F6
:1011E0000010FFF741FC804606E000BFFFF73CFC23
:1011F000A0EB080002282BD8D9F80000C005F5D5CF
:10120000D5F8900010F4407014D0216C814211D0B8
:10121000D5F89000D5F8901020F4407041F480315A
:10122000C5F89010D5F8901021F48031C5F89010D1
:10123000C5F89000C00711D0FFF716FC804641F2B8
:10124000883907E0FFF710FCA0EB0801494501D9F8
:1012500003260BE0D5F890008007F3D5D5F8900071
:10126000216C20F440700843C5F890001FB1A86DB0
:1012700020F08050A8652078C00707D0D5F88800F6
:10128000616820F003000843C5F8880020788007D3
:1012900007D5D5F88800A16820F00C000843C5F8F0
:1012A00088002078400707D5D5F88800E16820F04D
:1012B00030000843C5F888002078000707D5D5F826
:1012C0008800216920F0C0000843C5F88800207814
:1012D000800607D5D5F88800616920F4406008438E
:1012E000C5F888002078400607D5D5F88800A169A0
:1012F00020F440500843C5F888002078000607D540
:10130000D5F88800E16920F440400843C5F888001A
:101310002088C00507D5D5F88800216A20F4403020
:101320000843C5F888002088800507D5D5F88800CF
:10133000616A20F440200843C5F8880020884005F1
:101340000FD5D5F88800A16A20F440100843C5F8ED
:101350008800A06AB0F5801F03D1E86840F48010CF
:10136000E860208800050FD5D5F88800E16A20F4F0
:1013700040000843C5F88800E06AB0F5800F03D14B
:10138000E86840F48010E8602088C0040FD5D5F8E4
:101390008800216B20F040700843C5F88800206B5E
:1013A000B0F1807F03D1E86840F48010E8602088C5
:1013B0004FF0006180040ED5D5F88800626B20F0F4
:1013C00040601043C5F88800606B884203D1E8682C
:1013D00040F48010E860208840040ED5D5F88800DD
:1013E000A26B20F040601043C5F88800A06B8842D3
:1013F00003D1E86840F48010E860208800040FD52D
:10140000D5F88800E16B20F040500843C5F888000B
:10141000E06BB0F1805F03D1E86840F48030E860B1
:101420003046BDE8F8830000001002400070004024
:101430002DE9F0470E4605004FF0000725D0DFF8F4
:10144000AC81D8F8000000F00F00B0420CD2D8F800
:10145000001021F00F013143C8F80010D8F8000047
:1014600000F00F00B04210D12968614CC80741F26A
:10147000883A5AD06868DFF87C91032808D002289F
:1014800020682DD0400500282CDB0120BDE8F08726
:1014900020688001F9D5E06800F00302E068C0F33D
:1014A0000310401C032A19D0534A00BFB2FBF0F0CE
:1014B000E268C2F306225043E268C2F34162521C62
:1014C0005200B0FBF2F0484517D9A06810F0F00FB9
:1014D0000CD0880711D5A86840B10EE0474AE5E76F
:1014E0008003D0E700F0B6F8484506D9A06820F0A0
:1014F000F00040F08000A0608027A068696820F0BC
:1015000003000843A060FFF7AFFA814606E000BF82
:10151000FFF7AAFAA0EB090151453AD8A06869681B
:1015200000F00C00B0EB810FF2D12868810714D5D0
:10153000400703D5A06840F4E060A0602878000769
:1015400005D5A06820F4605040F4E060A060A06879
:10155000A96820F0F000084304E0802F03D1A068C0
:1015600020F0F000A060D8F80010404601F00F0114
:10157000B14216D9016821F00F0131430160FFF734
:1015800073FA074607E000BFFFF76EFAC11B51452B
:1015900001D903207AE7D8F8000000F00F00B0422C
:1015A000F2D12878400705D5A068E96820F4E0600A
:1015B0000843A0602878000706D5A068296920F4B0
:1015C000605040EAC100A06000F044F8A1680C4AF5
:1015D000C1F30311515C01F01F01C84009490860C3
:1015E00009480068BDE8F047FFF704BD002002404D
:1015F0000010024000B4C4040024F40000366E0160
:10160000F83500080C0000200000002005480649BD
:1016100000688968054AC1F30221515C01F01F018D
:10162000C84070470C000020001002400836000837
:101630000548064900688968054AC1F3C221515C22
:1016400001F01F01C84070470C000020001002404C
:1016500008360008184910B58868C0F38102174899
:10166000012A0BD08A68164BC2F38102022A06D0E7
:101670008A68C2F38102032A03D0002010BD1846F5
:1016800010BDCA6802F00304CA68C2F30312521CF8
:10169000032C02D0B0FBF2F001E0B3FBF2F0CA6819
:1016A000C968C2F306225043C1F34161491C490095
:1016B000B0FBF1F010BD0000001002400024F40067
:1016C00000366E012DE9F84304007AD02078FA4DF7
:1016D000C00747D0A868E96800F00C0001F00301DA
:1016E0000C2802D0082817D001E0032914D0606824
:1016F000B0F5803F17D0B0F5A02F286817D020F4A0
:1017000080302860286820F4802028606068E0B17C
:10171000FFF7AAF9064614E02868800322D560681E
:101720000028D2D01EE0286840F48030EDE740F475
:1017300080202860F7E700BFFFF796F9801B642838
:1017400070D828688003F7D50CE0FFF78DF90646BE
:1017500005E000BFFFF788F9801B6428F0D82868EF
:101760008003F7D4207880074CD5A868E96800F09A
:101770000C0001F003010C2802D004280DD001E078
:1017800002290AD0E068002828682BD040F4807035
:101790002860FFF769F9064619E02868400502D578
:1017A000E068002891D06868217C20F0FE4040EA83
:1017B00001606860C1480068FFF71CFC002800D188
:1017C00020E076E1FFF750F9801B0228B8D828689E
:1017D0004005F7D56868217C20F0FE4040EA0160B2
:1017E00068600FE020F480702860FFF73DF906463E
:1017F00005E000BFFFF738F9801B0228A0D8286851
:101800004005F7D42078000729D560690028D5F86D
:10181000940013D040F00100C5F89400FFF724F9BC
:10182000064606E090E000BFFFF71EF9801B022885
:1018300086D8D5F894008007F6D510E020F0010096
:10184000C5F89400FFF710F9064604E0FFF70CF91D
:10185000801B022878D8D5F894008007F6D4207829
:10186000400761D5A86D0026C00008D4A86D40F0DF
:101870008050A865A86D012600F080500090904827
:101880000168C90511D40168804641F48071016086
:10189000FFF7EAF8074604E0FFF7E6F8C01B022866
:1018A00052D8D8F80000C005F6D5A068012815D098
:1018B0000528D5F8900016D020F00100C5F890005A
:1018C000D5F8900020F00400C5F89000A06841F21F
:1018D0008838B8B1FFF7C8F807460EE0D5F8900091
:1018E00040F00100F0E740F00400C5F89000F5E793
:1018F000FFF7BAF8C11B414526D8D5F890008007FC
:10190000F6D50CE0FFF7B0F8074604E0FFF7ACF8B7
:10191000C11B414518D8D5F890008007F6D41EB1F8
:10192000A86D20F08050A8652078800629D5A06990
:101930000028D5F8980013D040F00100C5F89800B1
:10194000FFF792F8064606E077E000BFFFF78CF855
:10195000801B022877D8D5F898008007F6D510E0CC
:1019600020F00100C5F89800FFF77EF8064604E075
:10197000FFF77AF8801B022865D8D5F89800800711
:10198000F6D4E069F0B3A968C1F38101032961D0FD
:101990000228286820F0807028600BD0E86820F0CA
:1019A0000300E860E86847490840E860FFF75CF832
:1019B00004464BE0FFF758F8064604E0FFF754F8FA
:1019C000801B02283FD828688001F7D4F4E9080179
:1019D0006FF00F0202EB01110843218A52044908FB
:1019E00002EB4151A26841EA02210843217D4FF0F8
:1019F0007E42490802EB41610843217B40EAC16015
:101A0000E96800E062E0304A11400843E860286875
:101A100040F080702860E86840F08070E860FFF770
:101A200023F8044605E000BFFFF71EF8001B02285C
:101A300009D828688001F7D548E004E0FFF714F8DA
:101A4000001B022802D90320BDE8F8832868800122
:101A5000F4D43BE00128F7D0E868226A00F00301E3
:101A6000914226D1616A00F0F002090110399142D9
:101A70001FD1A26A00F4FE41B1EB022F19D194F8F4
:101A80002C2000F07841B1EBC26F12D1218E00F40E
:101A9000C00249084905A1F50011914209D194F805
:101AA000341000F0C06049084906A1F1007181427C
:101AB0000CD00120C8E70000001002400000002008
:101AC00000700040FFFFEEFE0C809F010020BBE78E
:101AD00070B504004FF001003ED094F8250028B9FD
:101AE000002084F82400204600F03CF8022084F80E
:101AF00025001A4ECA20306053203060204600F086
:101B00008FFB10BB154D0C3D286815490840286017
:101B100028686168A2690843216911430843286065
:101B20002189E06840EA01400C49143908602046E8
:101B300000F09CFB48B9D4E90721114362692B6886
:101B400023F060431A4311432960FF2131600028CC
:101B500002D1012184F8251070BD00002428004026
:101B6000BFFF8FFB00680549884205D1044850F843
:101B7000901F41F4004101607047000000280040C0
:101B80000010024070B50B4D286860F0A00028607E
:101B9000FEF76AFF04464FF47A7606E0FEF764FF2C
:101BA000001BB04201D9032070BD28688006F5D51E
:101BB000002070BD0C28004010B5401EB0F1807FA1
:101BC00001D3012010BD4FF0E02460610F216017A8
:101BD00000F03AFE0020A06107202061002010BD27
:101BE00090F87C10012918D0012180F87C10242164
:101BF000C0F8801050F8601B0A680B6823F00103DE
:101C00000B6022F000510022426050F8603C1960E5
:101C1000202101620277104670470220704770B59C
:101C2000044690F87C0001281DD0012084F87C0037
:101C30002420C4F8800020680568026822F00102B0
:101C400002602068826822F060620A438260204657
:101C500000F092FB206805602020C4F8800000207E
:101C600084F87C0070BD022070BD70B5044690F809
:101C70007C0001281DD0012084F87C002420C4F8B9
:101C8000800020680568026822F001020260206876
:101C9000826822F060420A438260204600F06CFBBA
:101CA000206805602020C4F88000002084F87C00B3
:101CB00070BD022070BD10B5040003D0D4F88000C0
:101CC00010B107E0012010BD002084F87C00204600
:101CD00000F026F82420C4F880002068016821F074
:101CE00001010160204600F00DFC0128EBD0A06A44
:101CF00010B1204600F072FB2068416821F4904149
:101D000041602068816821F02A01816020680168B3
:101D100041F0010101602046BDE8104000F0C2BB67
:101D200010B586B0044614216846FEF7A9FA124998
:101D3000206888421DD11148C16D41F00101C16583
:101D4000C16D01F001010591C16C41F00101C16457
:101D5000C06C022100F0010005900C20CDE90001CB
:101D600000210291CDE9031069464FF09040FEF743
:101D700091FD06B010BD0000008000400010024040
:101D80002DE9F8430446D0F880001F4616460D465C
:101D9000202851D1DDB1D6B194F87C0001284BD078
:101DA000012084F87C004FF00008C4F888802120CE
:101DB000C4F880001834FEF757FEA6878146E687F0
:101DC00054F8100C183CB0F5805F03D004E00120FB
:101DD000BDE8F883206920B12E46002584F87C8078
:101DE00010E00026FAE78021204600F0C7FCB8B9D1
:101DF000C6B116F8010B21688862B4F85600401E7F
:101E0000A4F85600B4F856004B464FF00002009775
:101E10000028E8D14FF04001204600F0AFFC30B17F
:101E20000320D5E735F8020BC0F30800E3E72020D4
:101E3000C4F880000020CBE70220C9E7FEE7016874
:101E40008A69D243920701D400228A6200688169BC
:101E5000C943C90703D0816941F00101816170471D
:101E60002DE9F0410446006890460E468069C04363
:101E7000C00633D40025202720688069C04380062F
:101E800015D5701CF8D0FEF7EFFDA0EB0800B042AE
:101E900001D8002EF0D154F8440F40F0200044F84F
:101EA00004096770A57025700120BDE8F0812168E4
:101EB0001020C8612068C7612046FFF7C0FF54F8B2
:101EC000440B4168064A11404160206840F004001C
:101ED00044F820096777A5772577E5E70020E4E750
:101EE00000E800FEF0B50568059C68684FF4806660
:101EF000064FC1F3090106EA545641EA02413E4346
:101F00001943B043214308436860F0BDFF63FF03FA
:101F10002DE9F0411D4617460E460446DDF81880AF
:101F200008E0681C06D0FEF79FFDA0EB0800A84261
:101F30000BD855B12068806936EA000012D0002025
:101F4000B842EED00020BDE8F08154F8440F40F0D4
:101F5000200044F80409202060700020A070207048
:101F60000120F0E70120EBE72DE9F0410026904643
:101F70000F460446202525E0424639462046FFF715
:101F80006FFF78BB20688069C043800613D4206847
:101F90008169C943490701D4218DC1B9C56154F88C
:101FA000440B4168104A1140416044F8206965774C
:101FB000A677267716E0FEF757FDA0EB0800B8429B
:101FC00008D83FB120688069C0434007D4D40020BE
:101FD000BDE8F08154F8440F40F0200044F80409B3
:101FE000657026700120F3E700E800FE70B5164624
:101FF0000D4604460DE0324629462046FFF730FFE5
:1020000008B1012070BDFEF72FFD801BA84207D844
:1020100035B120688069C0438006ECD4002070BDD3
:1020200054F8440F40F0200044F804092020607068
:102030000020A0702070E4E770B516460D460446F7
:102040000FE0324629462046FFF70AFF08B101207B
:1020500070BD681C05D0FEF707FD801BA84207D89D
:1020600035B120688069C0438007EAD4002070BD84
:1020700054F8440F40F0200044F804092020607018
:102080000020A0702070E2E730B587B014216846C8
:10209000FEF7F6F81F48C16C41F00401C164C16C41
:1020A00001F004010591C16C41F02001C164C16CD3
:1020B00001F020010591C16C41F00101C164C16CC6
:1020C00001F001010591C16C41F00201C164C06CD5
:1020D0004FF0904500F00200059000222021284694
:1020E000FEF7BCFC4FF4005000900B480024CDE9F3
:1020F000010469460948FEF7CDFB2020009001202D
:10210000CDE90104694628460394FEF7C3FB07B0F6
:1021100030BD00000010024000001110000800480F
:10212000134810B511490160124941600021012294
:10213000C0E90212016141618161C1610162FEF782
:10214000EDFC08B1FEF792FB00210948FEF792FC76
:1021500008B1FEF78BFB00210548FEF7B6FC00280E
:1021600003D0BDE81040FEF781BB10BD0054004015
:1021700010000020966FF750174810B51549016000
:102180004FF4E1314160002181600C22C160C0E95F
:102190000412816101628162FFF78DFD08B1FEF7D3
:1021A00065FB00210C48FFF760FD08B1FEF75EFB00
:1021B00000210948FFF733FD08B1FEF757FB064839
:1021C000FFF70EFD002803D0BDE81040FEF74EBB20
:1021D00010BD0000008000405C0000200D4810B5DC
:1021E0000B49016000217F22C0E90112FF22C0E9F2
:1021F00003214FF080424161C0E906120162FFF7FE
:1022000067FC002803D0BDE81040FEF72FBB10BDCF
:1022100000280040E8000020FEE7704770470000FB
:102220002DE9F047104C814600252068400618D45F
:10223000206840F080002060FEF716FC06464FF450
:102240007A78032708E000BFFEF70EFC801B4045AC
:1022500002D9032589F825702068400601D4032D92
:10226000F2D12846BDE8F0870C2800402DE9F04166
:10227000064613480025016821F080010160104CDA
:102280000C3420684FF00307800607D43046FFF770
:1022900079FC90B186F8257003250EE0206820F0C7
:1022A000200020603046FFF76DFC10B186F82570E5
:1022B0000325206840F0200020602846BDE8F0811A
:1022C0000C2800407047FEF77DBE000030B5A5B079
:1022D00038216846FDF7D4FF14211FA8FDF7D0FF71
:1022E00044210EA8FDF7CCFF0020FEF7EFFEFEF71D
:1022F00053FF184850F8901F21F018010160062084
:10230000009001200502CDE9020540200490022042
:102310000421CDE908015521CDE90A1007900C9060
:102320000D906846FFF7CEF90F2000241F90032080
:10233000CDE92004229404211FA82394FFF778F804
:10234000054813941E950E9014940EA8FEF72CFFCA
:1023500025B030BD0010024060000800054801684B
:1023600041F47001016003494FF00060803908605A
:102370007047000088ED00E03FB514A1D1E90021CD
:10238000CDE9002113A2D2E90012CDE90212416E7B
:10239000B9B1026891689268C1F34261520F1DF8A9
:1023A0000240E50002ACA25CB5FBF2F2A0F86A20A4
:1023B0001DF80120615CD200B2FBF1F1A0F86810B9
:1023C0003FBD0121A0F86A10F8E7000001010103F8
:1023D00007010000080402040801010190F8281018
:1023E000C90706D001684A68C36A22F400321A435A
:1023F0004A6090F82810890706D501684A68036B7F
:1024000022F480321A434A6090F82810490706D512
:1024100001684A68436B22F480221A434A6090F8AC
:102420002810090706D501684A68836B22F4004228
:102430001A434A6090F82810C90606D501688A68D0
:10244000C36B22F480521A438A6090F828108906E0
:1024500006D501688A68036C22F400521A438A6028
:1024600090F82810490611D501684A68436C22F497
:1024700080121A434A60416CB1F5801F06D1016891
:102480004A68836C22F4C0021A434A6090F828100C
:10249000090606D501684A68C06C22F4002202438E
:1024A0004A607047F8B500260446C0F88860FEF719
:1024B000DBFA0546206800686FF07E47000708D504
:1024C0002B4600224FF400112046009700F056F9E9
:1024D00060B92068006840070AD52B4600224FF4F7
:1024E00080012046009700F049F908B10320F8BDAB
:1024F0002020C4F88000C4F8840084F87C600020A8
:10250000F8BD00002DE9F0410446026880682169A9
:10251000E36908436169002519430843616EDFF8E8
:1025200030C2014310688B4B18400843106020688C
:102530004168E26821F44051114341602168A0697B
:10254000614501D0226A10438A68834B1A400243D6
:102550008A602068C16A626A21F00F011143C1627A
:102560007E4923687E488B420DD1D0F8880010F058
:10257000030006D0012855D0022842D003283FD1BD
:1025800052E001203DE077498B420BD1D0F8880022
:1025900010F00C0035D0042833D0082840D00C2887
:1025A0002ED141E070498B420BD1D0F8880010F059
:1025B000300026D0102835D0202831D030281FD127
:1025C00032E06A498B420BD1D0F8880010F0C0008D
:1025D00017D0402826D0802822D0C02810D123E050
:1025E00063450DD1D0F8880010F4406009D0B0F5F3
:1025F000806F17D0B0F5006F12D0B0F5406F13D0D8
:1026000010205B495B4F00264FF40042634539D1EF
:1026100060B1022813D004280BD0082831D10DE076
:102620000220EEE70420ECE70820EAE7FEF7EEFFE1
:1026300001E0FFF70FF8010001D17EE01146606A6A
:1026400037F810206768B1FBF2F007EB47038342CD
:102650006FD8B0EB073F6CD8002308461946FDF74A
:10266000D7FD090241EA1061020278081018714191
:102670003A460023FDF7CCFD3F4AA0F54071914258
:1026800059D956E0E3694FF6EF7893422DD10928E6
:102690004FD2DFE800F00508114E0D4E4E4E1000EF
:1026A000FEF7B4FF01E0FEF7C3FF010004D144E0F0
:1026B000FEF7D0FFF9E71146606A37F81000B1FB6A
:1026C000F0F04100606801EB5001B1FBF0F080B226
:1026D000A0F1100141452CD84FF6F0710140C0F334
:1026E000420001432068C16027E0092821D2DFE8C9
:1026F00000F0050811200D2020201000FEF786FFB5
:1027000001E0FEF795FF010004D116E0FEF7A2FFFD
:10271000F9E71146606A37F81000B1FBF0F1606824
:1027200001EB5001B1FBF0F080B2A0F11001414586
:1027300001D9012501E02168C8600120A4F86A00E0
:1027400024F8680F28466660A660BDE8F0810000A6
:1027500000800040F369FFCFFFF4FF110038014013
:10276000001002400044004000480040004C00407F
:102770000024F400E0350008FFFC0F002DE9F047CD
:102780009A4617460E4604464FF000094FF02008BF
:10279000089D39E0681C37D0FEF766F9A0EB0A0007
:1027A000A84222D80DB32068016849072CD5C0691A
:1027B000C043000528D421684FF4006008622068F7
:1027C000016821F4D07101602068816821F0010165
:1027D0008160C4F88080C4F88480C4F8888000BF19
:1027E00084F87C900320BDE8F0872068016821F41C
:1027F000D07101602068816821F001018160C4F816
:102800008080C4F88480EBE72068C06936EA000065
:1028100004D00020B842BDD00020E4E70120F9E751
:10282000FEE7000037B514460846064B6A462146C7
:1028300000F0ECF804466946002000F07EFC2046DB
:102840003EBD00003B3100080907090E002804DBEB
:1028500000F1E02080F80014704700F00F0000F154
:10286000E02080F8141D704702E008C8121F08C15C
:10287000002AFAD170477047002001E001C1121F01
:10288000002AFBD1704700002DE9FF5F82B00021D4
:10289000DDE90430020DDDF840B0034318D044F602
:1028A0001050A2F2FF3242431514119801281FD094
:1028B000A5EB0B00401C5FEA000A4FF000064E4FEC
:1028C000DFF83891B046504615D5CAF1000413E040
:1028D000119801244AA3012801D16FEA0B01029843
:1028E000119AC0E90031C0E9024206B0BDE8F09F8C
:1028F000CBF10000DFE704460021404A491842EBD3
:102900000450CDE9001012E0E00707D032463B4604
:1029100040464946FDF76DFD8046894632463B46B6
:1029200010461946FDF765FD06460F466410002C5B
:10293000EAD1DDE90401DDE90023BAF1000F06DA8E
:10294000FDF757FD42464B46FDF753FD05E0FDF709
:10295000C2FD42464B46FDF7BEFD04460E46002230
:10296000284BFDF757FF03D84FF0FF30014607E033
:102970000022254B20463146FDF794FCFDF731FF40
:10298000102409E0002C0ADB0A220023FDF740FC9A
:10299000039B30321A55641E50EA0102F2D1641CC6
:1029A000039AC4F111031444119A012A03D001229D
:1029B00008430DD10AE0084304D000204FF0110B6A
:1029C000119072E7A3EB0B056D1E0DE05B4504DD76
:1029D0004FF0000205F1010504E003DA4FF00002B8
:1029E000A5F10105002AECD002981199C0E9023145
:1029F000C0E9004579E70000000014400000F03F06
:102A0000300000000000F0430000E03F2DE9FF4FE0
:102A100095B09B468946064600250FE2252877D1CA
:102A200000242746F84A0121059400E0044316F8E3
:102A3000013F203B01FA03F01042F7D130782A28F9
:102A400011D06FF02F033078A0F13002092A16D888
:102A5000059A44F0020402EB820203EB42021044A6
:102A6000761C0590EFE759F8042B0592002A03DA4B
:102A7000504244F40054059044F00204761C30782F
:102A80002E2816D116F8010F44F004042A280DD080
:102A90006FF02F023078A0F13003092B09D807EB33
:102AA000870302EB4303C718761CF3E759F8047B4E
:102AB000761C30786C280FD006DC4C2817D068289C
:102AC0000DD06A2814D104E0742810D07A280FD1D0
:102AD0000DE044F400140AE044F4801401E044F4EE
:102AE00040147278824202D104F58014761C761C60
:102AF000307866280BD013DC582877D009DC002802
:102B000075D04528F6D04628F4D047281AD19DE143
:102B100018E0632835D0642879D0652812D195E172
:102B2000702873D008DC6728F1D069286FD06E2830
:102B30000DD06F2806D1B5E073282CD0752875D03C
:102B4000782874D05A46179990476D1C75E1C4F3E4
:102B50000250022809D003280DD0D9F8001004280B
:102B60000DD00D6009F1040967E1D9F80010EA17EA
:102B7000C1E90052F6E7D9F800100D80F2E70D70B8
:102B8000F0E719F8041B8DF8001000208DF8010003
:102B9000EA46012003E059F804AB4FF0FF3061072B
:102BA0004FF0000102D40DE008F101018846B9425E
:102BB0000FDA8045F8DB1AF808100029F4D108E094
:102BC00008F1010188468142FADB1AF80810002951
:102BD000F6D105985B46A0EB080721463846179AC0
:102BE00000F094FA284400EB080507E04DE029E1E5
:102BF0000DE01AF8010B5A4617999047B8F10108F1
:102C0000F7D25B4621463846179A13E142E00A2282
:102C10000092C4F302524FF0000A022A08D059F879
:102C200004CB032A4FEAEC710AD00DE029E02AE038
:102C300009F1070121F00702F2E802C1914609E01B
:102C40000FFA8CFC4FEAEC71042A03D14FFA8CFC8A
:102C50004FEAEC71002907DA0A460021DCF1000C8A
:102C600061EB02012D2202E0220504D52B228DF812
:102C70000420012203E0E20701D02022F7E790467A
:102C800059E00A2102E010220DE010214FF0000A65
:102C900000910BE010224FF0000A44F004040827D2
:102CA000009203E008224FF0000A0092C4F302529F
:102CB000022A05D059F804CB0021032A08D009E0E4
:102CC00009F1070121F00702F2E802C1914605E08F
:102CD0001FFA8CFC042A01D10CF0FF0C4FF0000805
:102CE000220728D5702806D0009B83F0100353EAF2
:102CF0000A0305D00EE040228DF80420012208E0EE
:102D00005CEA010206D030228DF804208DF805001F
:102D100002229046009B83F0080353EA0A030AD17B
:102D20005CEA010201D1620705D530228DF804204A
:102D30004FF001087F1E582804D034A003900EA83D
:102D400002900DE036A0F9E753466046009AFDF781
:102D50005FFA84460398825C0298401E02900270DB
:102D60005CEA0100F0D1029806A9081A00F1200AD5
:102D7000600702D524F4803400E00127574502DDC6
:102D8000A7EB0A0000E0002000EB0A010090059884
:102D90004144401A0590E00306D45B462146179A49
:102DA000059800F0B3F90544002706E001A85A464B
:102DB000C05D179990476D1C7F1C4745F6DBE0030B
:102DC0000CD55B462146179A059800F09FF90544FB
:102DD00004E030205A46179990476D1C0099481E10
:102DE00000900029F5DC08E0029802995A46007824
:102DF000491C0291179990476D1CBAF10001AAF184
:102E0000010AF1DC65E100000928010030313233AC
:102E10003435363738396162636465660000000016
:102E20003031323334353637383941424344454600
:102E30000000000000F058F90544761C30780028A6
:102E40007FF4ECAD19B02846BDE8F08F620700D4DE
:102E5000062709F1070222F0070CFCE80223E146ED
:102E600003F000485FEA080C02D00FF2702C0DE06E
:102E70005FEA045C02D50FF2682C07E05FEAC47CCD
:102E800002D00FF2602C01E0AFF2700C4FF0FF386F
:102E900023F00043CDF850C065280CD006DC45284F
:102EA00009D046281DD047283DD13DE0662818D0DE
:102EB00067287ED138E00021112F01DB112000E0CE
:102EC000781CCDE9000106A90EA8FFF7DDFCDDE9BD
:102ED0000F010E9A03910021009207F1010A04915B
:102EE0004DE04FF000400097CDE9011006A90EA873
:102EF000FFF7CAFCDDE90F0203920E9B1199002235
:102F0000DDF80CA00093049211B9791C00EB010AC2
:102F1000B7EB0A0004D4C0F1FF3007F1010A0490B6
:102F2000AAEB0700019044E0012F00DA01270021FD
:102F3000112F01DD112000E03846CDE9000106A97E
:102F40000EA8FFF7A1FCDDE90F010E9A0391002105
:102F500004910092BA4621070CD40399514500DA36
:102F60008A46BAF1010F05DD009AAAF10101515C10
:102F7000302908D0B84202DA10F1040F06DA012134
:102F8000CDE9011015E0AAF10101E9E7002805DC0F
:102F9000049901440491AAEB000102E0411C51454F
:102FA00000DD8A460499401A401C01904FF0004011
:102FB0000290200704D40198504501DBCDF804802D
:102FC00000208DF84F0002980DF14F07B0F1004F2F
:102FD00025D02B200E9002984FF0020800280CDA22
:102FE000404202902D200E9007E00A210298FDF742
:102FF0001DFB3031029007F8011DB8F10001A8F166
:103000000108F2DC02980028EFD1791E0E980870B2
:10301000307800F0200040F0450007F8020D12A8BB
:10302000C01B00F107081498007800B1012000EBE4
:103030000A01019801EBE07105984144401A401ED5
:103040000590E00306D45B462146179A059800F0E8
:103050005DF805441498007818B15A4617999047BE
:103060006D1CE00324D55B462146179A059800F0B5
:103070004DF805441CE00498002807DBDDE9030156
:10308000884203DD0098405C179901E017993020D1
:103090005A469047049805F10105401C0490019898
:1030A000401E019004D12E205A46179990476D1C5E
:1030B000BAF10001AAF1010ADDDC05E017F8010B05
:1030C0005A46179990476D1CB8F10001A8F1010804
:1030D000F4DC5B462146179A0598ABE62D0000000C
:1030E0002B000000200000002DE9F04104460025DF
:1030F0001E461746880404D405E039462020B04710
:103100006D1C641EF9D52846BDE8F0812DE9F0411B
:10311000044600251E469046C80301D5302700E02E
:103120002027880404D505E041463846B0476D1C89
:10313000641EF9D52846BDE8F0810A68531C0B606F
:10314000107070470FB410B503A9029800F030FA60
:1031500010BC5DF814FB00002DED088B86B0002636
:103160000396049601960296FDF734FFFFF7AEF83A
:10317000FEF78AFFFFF700F8FEF7D2FFFFF72EF801
:10318000642305225221E348FDF724FD4FF09047C8
:103190004FF4FA78E8B9012220213846FDF75EFCA9
:1031A00044464046FDF764FB002220213846FDF7E7
:1031B00055FC2046FDF75CFB012220213846FDF737
:1031C0004DFC2046FDF754FB002220213846FDF738
:1031D00045FC6420FDF74CFB80248DF80C40092051
:1031E0008DF80D006425022303AA5221C9480095D9
:1031F000FDF714FE03960A200496FDF739FB8DF8BF
:103200000C40012303AA5221C2480095FDF706FE97
:10321000012301AA5321BF480095FDF76DFD9DF8DC
:103220000400C0F38204082C10D2DFE804F0040686
:10323000080A0F0F0C0E012408E0022406E0042403
:1032400004E0082402E0302400E060242146B2A01B
:10325000FFF778FF039686208DF80C000496019600
:103260000296012303AA5221AA480095FDF7D6FD34
:10327000012301AA5321A7480095FDF73DFD9DF8C4
:1032800004000109A7A0FFF75DFF039687208DF8D2
:103290000C00049601960296012303AA52219D4830
:1032A0000095FDF7BBFD012301AA53219948009524
:1032B000FDF722FD9DF804109EA0FFF743FF039643
:1032C00085208DF80C00049601960296012303AA2E
:1032D000522190480095FDF7A1FD012301AA532139
:1032E0008C480095FDF708FD9DF80400C0F3C2006E
:1032F00008281CD2DFE800F004070A0D1013161985
:10330000B7EE008A13E0B6EE008A10E0B0EE008A55
:103310000DE0B1EE008A0AE0B7EE088A07E0B0EEF1
:10332000048A04E0B0EE088A01E0B0EE0C8A18EEE0
:10333000100AFDF74CF941EC100B82A053EC102B56
:10334000FFF700FFDFF80CB2039604960196B9462A
:103350004FF0880A0296012220214E464846FDF78A
:103360007DFB47464046FDF783FA00222021304688
:10337000FDF774FB3846FDF77BFA01222021304629
:10338000FDF76CFB3846FDF773FA0022202130462A
:10339000FDF764FB8DF80CA0012303AA52215D48C0
:1033A0000095FDF73BFD042301AA532159480095E0
:1033B000FDF7A2FC9DF804009DF8051000EB01202C
:1033C00086B29DF806009DF8071000EB012087B239
:1033D000F019B6FBF0F000EE100AB8EE400A10EE5D
:1033E000100A58451DDC18EE100AFDF7F0F841EC04
:1033F0001A0B2046FDF7DEF841EC190B3046FDF7BD
:10340000D9F89FED551B53EC112BFCF7F2FF41EC63
:103410001B0B3846FDF7CEF841EC100B9FED501B0F
:103420004FE010EE100A4B49C94308444E49884208
:1034300023D818EE100AFDF7CAF841EC1A0B204603
:10344000FDF7B8F841EC190B3046FDF7B3F89FEDE6
:10345000471B53EC112BFCF7CCFF41EC1B0B384600
:10346000FDF7A8F89FED431B53EC112BFCF7C1FFB0
:1034700053EC1B2BFCF7B7FF2DE010EE100A3F4971
:1034800008443F49884233D218EE100AFDF79FF8EE
:1034900041EC1A0B2046FDF78DF841EC190B304634
:1034A000FDF788F89FED371B53EC112BFCF7A1FFBC
:1034B00041EC1B0B3846FDF77DF841EC100B9FEDFE
:1034C000331B51EC100B53EC112BFCF792FF53EC18
:1034D0001B2BFCF7E7FE53EC192BFCF7FCFF53EC1E
:1034E0001A2BFCF7F8FFFDF785F800EE100A01E053
:1034F0009FED280A10EE100AFDF769F841EC100B59
:1035000025A053EC102BFFF71DFE4FF4FA60FDF7DA
:10351000AFF920E7100000200A0D4761696E3A25D7
:10352000640000000A0D506172745F49443A2564DA
:10353000000000000A0D4D616E75665F49443A2532
:10354000640000000A0D496E745F466163746F7217
:103550003A2566006666E63EA857CA32C4B1F13F16
:103560004FAF94658863FC3FA3703D006688635D40
:10357000DC46FF3F77BE9F1A2F1D1140F528DCC0A7
:103580008FC23500BC7493180456BE3FD881734671
:1035900094F6E23F000000000A0D4C757820566159
:1035A0006C756528696E204C5558293A25660000CF
:1035B00000B50A46B3B001466846FFF733F9002864
:1035C00009DD6846FCF767FE82B26FF07F4369460B
:1035D0000248FEF7D5FB33B000BD00005C000020C0
:1035E000010002000400060008000A000C001000A0
:1035F00020004000800000010000000000000000EA
:103600000102030406070809000000000102030488
:103610003036000800000020100000006828000874
:10362000403600081000002000050000782800083F
:103630001000000001000000000000000024F40061
:04000005080001D915
:00000001FF
