:020000040800F2
:1000000080050020ED010008132A000809250008DA
:10001000112A0008830700081D30000800000000B6
:10002000000000000000000000000000BD2A0008E1
:100030008507000800000000152A0008BF2A0008F4
:10004000070200080702000807020008070200086C
:10005000070200080702000807020008070200085C
:10006000070200080702000807020008070200084C
:10007000070200080702000807020008070200083C
:10008000070200080000000007020008070200083D
:10009000070200080702000807020008070200081C
:1000A000070200080702000807020008070200080C
:1000B00007020008070200080702000807020008FC
:1000C00007020008070200080702000807020008EC
:1000D00007020008070200080702000807020008DC
:1000E00007020008070200080702000807020008CC
:1000F00007020008070200080702000800000000CD
:1001000000000000070200080000000007020008CD
:1001100007020008000000000702000807020008AC
:10012000070200080702000807020008070200088B
:10013000070200080000000000000000070200089D
:10014000070200080702000800000000000000008D
:10015000000000000000000000000000000000009F
:10016000000000000000000000000000070200087E
:10017000070200080000000000000000000000006E
:10018000000000000702000800000000000000005E
:10019000000000000000000000000000000000005F
:1001A000000000000000000007020008070200082D
:1001B000070200080702000807020008000000000C
:1001C000000000000702000800000000000000001E
:1001D0000702000807020008DFF80CD000F050FA10
:1001E0000048004755390008800500200648804730
:1001F00006480047FEE7FEE7FEE7FEE7FEE7FEE70C
:10020000FEE7FEE7FEE7FEE7592B0008D9010008EC
:100210002DE9F05F0546002092469B46884606463B
:10022000814640241BE0284641464746224600F0CE
:100230005EF853465A46C01A914110D311461846EB
:10024000224600F045F82D1A67EB01084F4622467A
:100250000120002100F03CF817EB00094E41201E60
:10026000A4F10104DFDC484631462A464346BDE896
:10027000F09FD2B201E000F8012B491EFBD270477B
:100280000022F6E710B513460A4604461946FFF762
:10029000F0FF204610BD421C10F8011B0029FBD1C5
:1002A000801A704730B50B460146002020220124F9
:1002B00009E021FA02F59D4205D303FA02F5491B34
:1002C00004FA02F52844151EA2F10102F1DC30BD4A
:1002D000202A04DB203A00FA02F100207047914006
:1002E000C2F1200320FA03F3194390407047202AFB
:1002F00004DB203A21FA02F00021704721FA02F3D0
:10030000D040C2F1200291400843194670472DE9C0
:10031000FE4F804681EA0300C00F0C46009021F09A
:10032000004123F00045B8EB0200A94105D2404648
:10033000214690461C460B46024623F000401043DF
:1003400047D0270DC7F30A00C3F30A510290401AA1
:10035000019040286BDAC3F3130040F4801B00982F
:10036000924620B10023D2EB030A63EB0B0B0198FA
:100370005946C0F140025046FFF7AAFF06460D4617
:1003800050465946019A00F08DF910EB0800614182
:10039000002487EA115284EAE7731A4340D0009A96
:1003A00062B3019A012A4FEA075215DC001B61EB88
:1003B00002014FF0004202EA0752CDE90042001C60
:1003C00041F5801132462B4600F08DF903B0BDE8AF
:1003D000F08F40462146F9E7001B61EB0201001C4B
:1003E00041F5801300185B412018A2F5001747EB78
:1003F000030140EAD570B6196D4111E06D084FEA6E
:10040000360645EAC0754FEA0752001B61EB020150
:10041000001C41F5801149084FEA30000019514194
:1004200032462B4603B0BDE8F04F00F04DB90098BE
:10043000012240000023D0EB020263EBE07300983E
:1004400021464FEAE074B8EB000061EB0401E9E7F4
:1004500083F000435BE781F0004158E72DE9FE4F50
:1004600081EA030404F0004421F0004100944FF0BD
:10047000000B23F0004350EA01045ED052EA03046B
:100480005BD0C3F30A54C1F30A552C44A4F2F334ED
:100490000194A0FB0254C1F3130141F48011C3F392
:1004A000130343F4801301FB024400FB034E840A50
:1004B000970A44EA815447EA8357A4FB07680295E8
:1004C0008D0A05FB07854FEA932C04FB0C54270586
:1004D000029D4FEA065847EA1637B5EB08056EEB62
:1004E000070C870E920E47EA811742EA8312A7FB98
:1004F0000201B6EB0B0164EB00042B0D43EA0C3355
:100500005E1844EB1C50DA465146E7FB0201C5F386
:1005100013044FEA0B3343EA14534FEA0432019CAD
:1005200043EA0603A4F10C040294009CCDE900B454
:1005300000F0D9F803B0BDE8F08F00200146F9E7DC
:100540002DE9F04D81EA030404F0004B21F0004551
:1005500014464FF0000A23F0004150EA050220D073
:1005600054EA01021DD0C5F30A570246C5F313032E
:10057000C1F31300C1F30A5640F4801543F480130D
:10058000A7EB0608101BD64608F2FD3873EB0500F2
:1005900002D308F1010801E092185B41B8F1000FA5
:1005A00003DA00200146BDE8F08D00204FF48011F1
:1005B000064684460EE0171B73EB050705D3121B96
:1005C00063EB050306434CEA010C49084FEA30008F
:1005D00092185B4150EA0107EDD152EA030012D0B4
:1005E00082EA040083EA0501084305D0101BAB41F1
:1005F00006D20122002306E000224FF0004302E071
:100600006FF0010253101AEB06004CEB085110EB8F
:100610000A0041EB0B01BDE8F04D00F055B8C1F305
:100620000A52C1F3130140F2FF3341F480119A42A0
:1006300002DA00200146704740F233439A42A2F2A8
:10064000334202DC5242FFF752BEFFF741BE0000C8
:1006500030B5041E71F1000404DB4FF00044404249
:1006600064EB0101141E73F1000405DB1C464FF01E
:100670000043524263EB0403994208BF904230BDED
:10068000064C074D06E0E06840F0010394E80700DF
:1006900098471034AC42F6D3FFF7A2FD503A000859
:1006A000703A0008202A06DBCB17203A41FA02F004
:1006B00043EAE07306E041FA02F3D040C2F12002BF
:1006C000914008431946704710B5141E73F1000499
:1006D00008DA401C41F1000192185B411A4301D134
:1006E00020F0010010BD2DE9F04D92469B4611B15E
:1006F000B1FA81F202E0B0FA80F220329046FFF7C0
:10070000E7FD04460F4640EA0A0041EA0B01534662
:100710005A46084313D0114653EA010019D0C8F1D4
:1007200040025046FFF7E3FD05460E465046594647
:100730004246FFF7CDFD084305D0012004E02046E6
:100740003946BDE8F08D0020054346EAE0762C43AB
:1007500037430A986305E40AA0EB08000022FD0A6B
:1007600044EA47540A3002D500200146E9E7010572
:1007700010196941DDE9084500196941BDE8F04DEE
:10078000A2E7FEE7704770472DE9F047044690F86E
:1007900058009CB00D464FF00008012814D00120ED
:1007A00084F8580020684FF0A0474FF00009B84285
:1007B0000ED1284E0096304601F0FCFF824620689C
:1007C00001F0F8FF60B10EE002201CB0BDE8F08738
:1007D000E16D41F02001E16584F858900120F4E7D3
:1007E000BAF1000F0AD0E06D40F02000E0654FF054
:1007F000010800BF84F858904046E6E716482A688A
:1008000040F61F71002A826822F4604215D094F8E5
:10081000383042EA43326B681A438260BA68B36880
:1008200002F0010203F001031A43E3D1AB682A6826
:100830001A4383688B431A430AE08260BA68B3683C
:1008400002F0010203F001031A43D3D182688A4304
:100850008260CFE700010050000300502DE9F84FFF
:1008600000270446009790F85800DFF8DC930D4607
:10087000B846012811D0012684F85860206801F09C
:1008800095FF60B1E06D40F02000E0655FF001078A
:1008900084F858803846BDE8F88F0220FBE7D5E998
:1008A00000210C23206803EA91131844036B01F024
:1008B0001F014FF01F0C0CFA01FCC2F3846223EA03
:1008C0000C038A4013430363206801F06FFF8246E4
:1008D000206801F067FF5AEA00003CD1AA68296845
:1008E0002068B2F1004F37D001F068FF20684169FD
:1008F00021F00041416120686969C268C2F3C10208
:10090000520091402A69042A31D000EB82002B6802
:10091000026EDFF838C303F0F84302EA0C020B431F
:100920001A4342F00041016622682869A96902EB76
:100930008000026E22F080720A430266297F2068DE
:100940002A69012910D0002100EB8200026E22F0FA
:1009500000720A4302667DE0002201F02FFF20684A
:10096000416941F00041C5E74FF00071ECE700211B
:1009700001F012FF400320684FF0000172D001F037
:100980000BFF90FAA0F0B0FA80F1286842036ED015
:1009900090FAA0F0B0FA80F0814204D10022114612
:1009A000206801F01AFF0121206801F0F5FE4003E4
:1009B00020684FF001015DD001F0EEFE90FAA0F04A
:1009C000B0FA80F12868420359D090FAA0F0B0FA4A
:1009D00080F0814204D100220121206801F0FDFE57
:1009E0000221206801F0D8FE400320684FF0020188
:1009F00048D001F0D1FE90FAA0F0B0FA80F128685A
:100A0000420344D090FAA0F0B0FA80F0814204D1C1
:100A100000220221206801F0E0FE0321206801F09D
:100A2000BBFE400320684FF0030133D001F0B4FE59
:100A300090FAA0F0B0FA80F1286842032FD090FA23
:100A4000A0F0B0FA80F0814204D100220321206896
:100A500001F0C3FE2068816811F0010F22D0ACE0E4
:100A600000E004E001F098FEC0F384618DE7C0F37C
:100A7000846091E701F090FEC0F38461A2E7C0F3C7
:100A80008460A6E701F088FEC0F38461B7E7C0F395
:100A90008460BBE701F080FEC0F38461CCE7C0F363
:100AA0008460D0E72A7B296850F8B03FC1F3120C6C
:100AB00023EA0C0302F0180C654A22FA0CF20A40F1
:100AC00013430360E968494577D1286841031CD086
:100AD00090FAA0F1B1FA81F1491C01F01F01092936
:100AE0004FEA403132D8002912D000BF90FAA0F16D
:100AF000B1FA81F101F1010101F01F0106FA01F6DD
:100B000009D100BFC0F3846109E0C0F38461E3E769
:100B1000C0F38461EEE790FAA0F1B1FA81F101F13E
:100B2000010101F01F0146EA816102D1C0F3846036
:100B300003E090FAA0F0B0FA80F000F1010000F0BC
:100B40001F0000EB400041EA005132E000290ED0C6
:100B500090FAA0F1B1FA81F101F1010101F01F0158
:100B600006FA01F606D100BFC0F3846106E0C0F3C7
:100B70008461F1E790FAA0F1B1FA81F101F101018C
:100B800001F01F0146EA816102D1C0F3846003E0F5
:100B900090FAA0F0B0FA80F000F1010000F01F0020
:100BA0002C4A00EB400002EB005041EA000141F00A
:100BB0000071AA68206801F001FE27482A680242F5
:100BC0003FF466AE25488168254B01F0E0719A42FA
:100BD00002D0244B9A421BD10B0219D42268B2F1E5
:100BE000A04F7FF455AE826841F4000122F0E0721C
:100BF0000A4382601C481D490068B0FBF1F000EB1D
:100C00004000800000E0401E00900028FBD13FE63D
:100C1000174D184BAA4207D1CD0105D422689A423C
:100C2000F5D041F0807109E0134DAA42EFD14A029C
:100C3000EDD422689A42EAD041F48001826822F021
:100C4000E0720A43826023E600007F4000F0FF0369
:100C5000FFFF0700000020FE000008800003005096
:100C6000000021C31000C0900C000020400D0300C4
:100C7000000052C700010050000084CBF8B54FF0CF
:100C8000000504002E46009502D0E06D10B107E08B
:100C90000120F8BD204600F0EDF8266684F8586083
:100CA00020688168C1F3407119B18168694A1140B7
:100CB000816020688168C1F3007179B98168664AF2
:100CC000114041F080518160644865490068B0FB83
:100CD000F1F000E0401E00900028FBD12068816800
:100CE000C1F3007141B9E16D41F01001E165216E80
:100CF00041F001012166012501F058FDE16DC906B1
:100D000000D430B1E06D40F01000E06501252846C8
:100D1000F8BDE06D20F4807040F00200E0652068CE
:100D2000806810F0010F11D14FF0A04080684D494C
:100D300000F00100896801F00101084306D14A482A
:100D40006168826822F47C120A438260E168E06B89
:100D5000627F0843A16841EA4231084394F82410B5
:100D600040EA0140012904D1218D404A02EB414172
:100D70000843E16A29B101F47871226B014342EA28
:100D800001002168CA683A4B1A400243CA602068D1
:100D90000169626B21F0406111430161206801F03B
:100DA00005FD0646206801F0FDFC30432ED1207F72
:100DB00094F83810800340EA41022068C16844F288
:100DC000020399431143C16020690028206801692A
:100DD0000AD041F480310161206850F8C01F2269B7
:100DE0006FF30D01114307E021F4803101612068A8
:100DF00050F8C01F6FF30D01016094F84000012806
:100E00000CD02068016921F00101016160690128AD
:100E10002068016B21F00F0111D013E0D4E911011A
:100E20000843D4E913121143084321680A6940F2C8
:100E3000FC739A43104340F001000861E6E7226A20
:100E4000521E11430163E06D20F0020040F00100EA
:100E5000E0655CE7C0FFFF5FC0FFFF7F0C00002084
:100E6000400D030000010050000300500000FEFF91
:100E70000740F0FF10B586B0044614216846FFF71E
:100E8000FFF92068B0F1A04F1AD10E48C16C41F4AF
:100E90000051C164C16C01F400510591C16C41F075
:100EA0000101C164C06C694600F001000590032097
:100EB00000900190002002904FF0904000F016F852
:100EC00006B010BD0010024070B5044600F0F8F8FE
:100ED0000546601C02D004484068044400F0F0F865
:100EE000401BA042FAD370BD000000202DE9FC4F4A
:100EF000DFF8A0A1002301250AF1040B03244FF021
:100F00000F0C0BF1040EBDE005FA03F632406FD072
:100F10004F68012F05D0022F03D0112F01D0122FBF
:100F200017D1D0F808905F0004FA07F829EA0809F9
:100F30000097D1F80C8008FA07F848EA0908C0F8C9
:100F400008804768B7430E79C6F300169E403E43BB
:100F50004660C6684FEA430804FA08F7BE430197A3
:100F60008F6807FA08F73743C7604E68022E01D032
:100F7000122E13D1DE0800EB86060096366A5F0754
:100F8000FF0E0CFA07F926EA0906D1F8109009FAC3
:100F900007F949EA0609009EC6F820900668019FF5
:100FA000BE430F7907F0030707FA08F737430760D6
:100FB0004E68F60065D5384E376E47F00107376644
:100FC000366E23F0030706F001060096334E3E44CA
:100FD000B146B6689F074FEA17780CFA08F7BE4388
:100FE000B0F1904F05D02E4FB84204D1012717E041
:100FF00047E0002714E02B4FB84201D102270FE051
:10100000294FB84201D103270AE0284FB84201D145
:10101000042705E0264FB84201D1052700E0062746
:1010200007FA08F73743C9F80870DAF8006057463E
:10103000D1F8048096435FEAC83800D516433E6075
:10104000DBF800605F46D1F8048096435FEA883899
:1010500000D516433E60DEF800607746D1F8048084
:1010600096435FEAC82800D516433E60094F0C3707
:101070003E68D1F8048096435FEA882800D516437D
:101080003E605B1C0A6832FA03F67FF43DAFBDE8B0
:10109000FC8F0000000401400010024000000140ED
:1010A0000004004800080048000C004800100048F8
:1010B000001400480AB181617047816270470000E6
:1010C00001488068704700000000002090F841202F
:1010D000202A24D190F84020012A20D0012280F833
:1010E0004020242280F841200268136823F0010385
:1010F00013600268136823F4805313600268136856
:101100000B43136001680A6842F001020A60202163
:1011100080F84110002180F84010084670470220F6
:10112000704790F84120202A22D190F84020012ACF
:101130001ED0012280F84020242280F8412002683D
:10114000136823F0010313600268136823F47063CB
:1011500043EA0121116001680A6842F001020A6055
:10116000202180F84110002180F840100846704787
:101170000220704770B5040004D094F841000025A7
:1011800010B106E0012070BD84F84050204600F008
:101190003DFA242084F841002068016821F0010113
:1011A00001606068216820F07060086120688168D3
:1011B00021F400418160E0680128A06807D040F474
:1011C000044021688860E068022803D006E040F40B
:1011D0000040F6E721684FF40060486020684168ED
:1011E000114A114341602068C16821F40041C16087
:1011F000D4E904010843A16940EA01202168C860DC
:10120000D4E907010843216808602068016841F0BB
:10121000010101606564202084F84100256384F8A1
:101220004250002070BD0000008000022DE9FC4704
:1012300000260446019690F841001F4692468946D2
:1012400020287ED120688069C043000479D594F8B5
:101250004000012875D0012084F84000242084F843
:10126000410066644FF02008E068012809D029F4A5
:10127000544040F4205021684860FFF721FF0546A4
:101280000DE0314949EA010030490840F3E7781C94
:1012900005D0FFF715FF401BB84219D8C7B1216828
:1012A00088698969C0F34010C1F300110843EED08A
:1012B000206880693B46C043C0064FF000024FF0F3
:1012C00020012046009517D501F0ECF968BB09E034
:1012D00084F8418054F8440F40F0200044F8040999
:1012E000267022E02168C1F81C8084F8418084F8CF
:1012F00040600020BDE8FC8701F0D4F9A8B921685E
:101300001020C8612168C1F81C800198504512D195
:101310002068416841F4804141603B460022202121
:101320002046009501F0BEF910B10120E2E708E087
:101330002168C1F81C800198401C0190504593D34E
:10134000C6E70220D6E7000000200002FF230002CB
:101350002DE9FF4F83B00446DDE9108790F8410086
:10136000DDF848909A469346202874D15FEA080039
:1013700014D09FB194F8400001286CD0012084F86B
:101380004000FFF79DFE0646012200901923D1037D
:10139000204601F087F9002871D103E04FF4007076
:1013A00060646CE0222084F84100402084F8420010
:1013B00000256564C4F8248067856563CDE90096DF
:1013C00053465A462046049901F0F2F810B184F8C9
:1013D000405054E0618D3548FF274FF080784FF042
:1013E000007AFF2904D927853A464346009005E054
:1013F000618D2185009094F8282053462046049959
:1014000001F03AF94B46002204212046009601F0F3
:1014100049F9A0BB2068406A616A0870606A401C94
:101420006062208D401E81B22185608D401E6085E6
:10143000608DD8B1D1B94B4600228021204600965C
:1014400001F030F9D8B9608DFF2805D927853A46D3
:101450004346009506E026E0608D2085009594F8CF
:10146000282053462046049901F006F9608D002893
:10147000C8D132464946204601F040F918B1012052
:1014800007B0BDE8F08F21682020C86121684A6854
:10149000074B1A404A6084F8410084F8425084F8AF
:1014A00040500020ECE70220EAE700000024008022
:1014B00000E800FE2DE9FF4F83B00446DDE9108708
:1014C00090F84100DDF848909A469346202871D163
:1014D0005FEA080014D09FB194F84000012869D059
:1014E000012084F84000FFF7EBFD06460122009042
:1014F0001923D103204601F0D5F800286ED103E06E
:101500004FF40070606469E0212084F841004020BD
:1015100084F8420000256564C4F82480678565630B
:10152000CDE9009653465A462046049901F072F8D8
:1015300010B184F8405051E0608DFF274FF0807863
:101540004FF0007AFF2804D927853A464346009594
:1015500005E0608D2085009594F8282053462046AC
:10156000049901F089F832464946204601F0ECF82A
:10157000A0BB606A216800788862606A401C606273
:10158000608D401E6085208D401E80B22085618D5B
:10159000D9B1D0B94B46002280212046009601F0F7
:1015A00081F8D8B9608DFF2805D927853A4643468A
:1015B000009506E026E0608D2085009594F82820AF
:1015C00053462046049901F057F8608D0028CAD18F
:1015D00032464946204601F091F818B1012007B083
:1015E000BDE8F08F20682021C16120684268064B69
:1015F0001A40426084F8411084F8425084F8405008
:101600000020ECE70220EAE700E800FE2DE9F041C7
:1016100086B0044614216846FEF732FE1949206858
:1016200088422BD1184CE06C40F00100E064E06C83
:1016300000F001000590E06C40F00200E064E06C16
:10164000122500F002000590C813012600274FF074
:1016500004088DE8E1016946A806FFF747FC8020F1
:101660008DE8E10169460948FFF740FCA06D40F4B0
:101670000010A065A06D00F40010059006B0BDE854
:10168000F0810000005400400010024000040048B7
:101690000248816842681144816070470000002060
:1016A00010B50024032000F065F8002000F008F8D1
:1016B00008B1012401E000F025F8204610BD00002B
:1016C00070B50E4E05460024706898B14FF47A71DB
:1016D000B1FBF0F00A490968B1FBF0F000F0D2FD6F
:1016E00040B9102D06D200222946501E00F022F8E3
:1016F000356000E00124204670BD0000000000209D
:101700000C0000200A4882B0016E41F00101016620
:10171000016E01F001010091816D41F08051816500
:10172000806D00F08050009002B000F093B800008F
:1017300000100240F0B40E4B1B680C46C3F30223AA
:10174000C3F10705042D00D90425191D072901D26D
:10175000002300E0DB1E012606FA05F1491E2140A8
:1017600099409E40761E16403143F0BC01F06ABCA1
:101770000CED00E0064900F0070208684FF6FF0391
:10178000184040EA0220034A1043086070470000F6
:101790000CED00E00000FA052B492C4B0A683221C1
:1017A0004A432B4940B1B0F5007F086829D020F4A6
:1017B000C06040F480602CE00868C0F3412002283B
:1017C00004D051F8800F20F4807022E0D1F880001E
:1017D00020F48070C1F88000086820F4C06040F4F4
:1017E00000700860B2FBF3F0401C00E0401E4A6944
:1017F000520501D50028F9D1486940050AD50320D2
:101800007047C0F34120022806D051F8800F40F401
:101810008070086000207047D1F8800040F480702C
:10182000C1F88000086820F4C06040F400700860CF
:10183000B2FBF3F0401C00E0401E4A695205DBD5C4
:101840000028F9D1D8E700000C00002040420F002A
:10185000007000400248816841F480418160704717
:10186000007000400248016841F4807101607047D7
:10187000007000402DE9F8430446006800269D4DA5
:1018800000035ED5A86D0027C00008D4A86D40F005
:101890008050A865A86D012700F080500090DFF807
:1018A0005892D9F8001041F48071C9F80010FFF780
:1018B00007FC804606E000BFFFF702FCA0EB080033
:1018C00002282BD8D9F80000C005F5D5D5F890002E
:1018D00010F4407014D0216C814211D0D5F89000E2
:1018E000D5F8901020F4407041F48031C5F8901084
:1018F000D5F8901021F48031C5F89010C5F890000B
:10190000C00711D0FFF7DCFB804641F2883907E0C1
:10191000FFF7D6FBA0EB0801494501D903260BE0F0
:10192000D5F890008007F3D5D5F89000216C20F40D
:1019300040700843C5F890001FB1A86D20F080509A
:10194000A8652078C00707D0D5F88800616820F026
:1019500003000843C5F888002078800707D5D5F82C
:101960008800A16820F00C000843C5F888002078A2
:10197000400707D5D5F88800E16820F0300008431B
:10198000C5F888002078000707D5D5F888002169B8
:1019900020F0C0000843C5F888002078800607D5ED
:1019A000D5F88800616920F440600843C5F88800D4
:1019B0002078400607D5D5F88800A16920F440506A
:1019C0000843C5F888002078000607D5D5F88800B8
:1019D000E16920F440400843C5F888002088C0052C
:1019E00007D5D5F88800216A20F440300843C5F8AF
:1019F00088002088800507D5D5F88800616A20F422
:101A000040200843C5F88800208840050FD5D5F848
:101A10008800A16A20F440100843C5F88800A06A35
:101A2000B0F5801F03D1E86840F48010E86020889A
:101A300000050FD5D5F88800E16A20F4400008437E
:101A4000C5F88800E06AB0F5800F03D1E86840F47B
:101A50008010E8602088C0040FD5D5F88800216B7D
:101A600020F040700843C5F88800206BB0F1807FFB
:101A700003D1E86840F48010E86020884FF00061EE
:101A800080040ED5D5F88800626B20F040601043CA
:101A9000C5F88800606B884203D1E86840F4801084
:101AA000E860208840040ED5D5F88800A26B20F0AD
:101AB00040601043C5F88800A06B884203D1E868F5
:101AC00040F48010E860208800040FD5D5F8880025
:101AD000E16B20F040500843C5F88800E06BB0F19E
:101AE000805F03D1E86840F48030E8603046BDE8AC
:101AF000F883000000100240007000402DE9F0471C
:101B00000E4605004FF0000725D0DFF8AC81D8F86D
:101B1000000000F00F00B0420CD2D8F8001021F005
:101B20000F013143C8F80010D8F8000000F00F0092
:101B3000B04210D12968614CC80741F2883A5AD0A6
:101B40006868DFF87C91032808D0022820682DD02F
:101B5000400500282CDB0120BDE8F08720688001CB
:101B6000F9D5E06800F00302E068C0F30310401C00
:101B7000032A19D0534A00BFB2FBF0F0E268C2F367
:101B800006225043E268C2F34162521C5200B0FB8D
:101B9000F2F0484517D9A06810F0F00F0CD0880774
:101BA00011D5A86840B10EE0474AE5E78003D0E7C9
:101BB00000F0B6F8484506D9A06820F0F00040F0E3
:101BC0008000A0608027A068696820F003000843B7
:101BD000A060FFF775FA814606E000BFFFF770FAD4
:101BE000A0EB090151453AD8A068696800F00C00E3
:101BF000B0EB810FF2D12868810714D5400703D5D7
:101C0000A06840F4E060A0602878000705D5A068CF
:101C100020F4605040F4E060A060A068A96820F063
:101C2000F000084304E0802F03D1A06820F0F0000A
:101C3000A060D8F80010404601F00F01B14216D95B
:101C4000016821F00F0131430160FFF739FA0746BF
:101C500007E000BFFFF734FAC11B514501D903204B
:101C60007AE7D8F8000000F00F00B042F2D12878EF
:101C7000400705D5A068E96820F4E0600843A0604B
:101C80002878000706D5A068296920F4605040EA4A
:101C9000C100A06000F044F8A1680C4AC1F3031130
:101CA000515C01F01F01C8400949086009480068FB
:101CB000BDE8F047FFF704BD0020024000100240DD
:101CC00000B4C4040024F40000366E01383A000861
:101CD0000C000020000000200548064900688968C3
:101CE000054AC1F30221515C01F01F01C840704751
:101CF0000C00002000100240483A00080548064940
:101D000000688968054AC1F3C221515C01F01F01D6
:101D1000C84070470C00002000100240483A0008FC
:101D2000184910B58868C0F381021748012A0BD002
:101D30008A68164BC2F38102022A06D08A68C2F36F
:101D40008102032A03D0002010BD184610BDCA68C6
:101D500002F00304CA68C2F30312521C032C02D01F
:101D6000B0FBF2F001E0B3FBF2F0CA68C968C2F35D
:101D700006225043C1F34161491C4900B0FBF1F018
:101D800010BD0000001002400024F40000366E0177
:101D90002DE9F84304007AD02078FA4DC00747D0E7
:101DA000A868E96800F00C0001F003010C2802D0DB
:101DB000082817D001E0032914D06068B0F5803FEF
:101DC00017D0B0F5A02F286817D020F480302860F5
:101DD000286820F4802028606068E0B1FFF770F97F
:101DE000064614E02868800322D560680028D2D017
:101DF0001EE0286840F48030EDE740F48020286041
:101E0000F7E700BFFFF75CF9801B642870D82868EB
:101E10008003F7D50CE0FFF753F9064605E000BF55
:101E2000FFF74EF9801B6428F0D828688003F7D4A8
:101E3000207880074CD5A868E96800F00C0001F014
:101E400003010C2802D004280DD001E002290AD099
:101E5000E068002828682BD040F480702860FFF7E5
:101E60002FF9064619E02868400502D5E0680028E9
:101E700091D06868217C20F0FE4040EA01606860F3
:101E8000C1480068FFF71CFC002800D120E076E183
:101E9000FFF716F9801B0228B8D828684005F7D547
:101EA0006868217C20F0FE4040EA016068600FE035
:101EB00020F480702860FFF703F9064605E000BFB4
:101EC000FFF7FEF8801B0228A0D828684005F7D449
:101ED0002078000729D560690028D5F8940013D030
:101EE00040F00100C5F89400FFF7EAF8064606E066
:101EF00090E000BFFFF7E4F8801B022886D8D5F8F1
:101F000094008007F6D510E020F00100C5F8940099
:101F1000FFF7D6F8064604E0FFF7D2F8801B022848
:101F200078D8D5F894008007F6D42078400761D59A
:101F3000A86D0026C00008D4A86D40F08050A865A8
:101F4000A86D012600F08050009090480168C905F6
:101F500011D40168804641F480710160FFF7B0F848
:101F6000074604E0FFF7ACF8C01B022852D8D8F8A7
:101F70000000C005F6D5A068012815D00528D5F8C1
:101F8000900016D020F00100C5F89000D5F8900020
:101F900020F00400C5F89000A06841F28838B8B17C
:101FA000FFF78EF807460EE0D5F8900040F00100EC
:101FB000F0E740F00400C5F89000F5E7FFF780F87F
:101FC000C11B414526D8D5F890008007F6D50CE016
:101FD000FFF776F8074604E0FFF772F8C11B4145AA
:101FE00018D8D5F890008007F6D41EB1A86D20F05F
:101FF0008050A8652078800629D5A0690028D5F8EA
:10200000980013D040F00100C5F89800FFF758F889
:10201000064606E077E000BFFFF752F8801B022873
:1020200077D8D5F898008007F6D510E020F00100A9
:10203000C5F89800FFF744F8064604E0FFF740F8BB
:10204000801B022865D8D5F898008007F6D4E0698F
:10205000F0B3A968C1F38101032961D0022828687F
:1020600020F0807028600BD0E86820F00300E86062
:10207000E86847490840E860FFF722F804464BE06B
:10208000FFF71EF8064604E0FFF71AF8801B022847
:102090003FD828688001F7D4F4E908016FF00F02F7
:1020A00002EB01110843218A5204490802EB415115
:1020B000A26841EA02210843217D4FF07E4249088F
:1020C00002EB41610843217B40EAC160E96800E01E
:1020D00062E0304A11400843E860286840F08070B0
:1020E0002860E86840F08070E860FEF7E9FF044689
:1020F00005E000BFFEF7E4FF001B022809D82868AE
:102100008001F7D548E004E0FEF7DAFF001B022863
:1021100002D90320BDE8F88328688001F4D43BE0AD
:102120000128F7D0E868226A00F00301914226D125
:10213000616A00F0F0020901103991421FD1A26AD0
:1021400000F4FE41B1EB022F19D194F82C2000F0DD
:102150007841B1EBC26F12D1218E00F4C002490860
:102160004905A1F50011914209D194F8341000F00D
:10217000C06049084906A1F1007181420CD00120DC
:10218000C8E700000010024000000020007000407E
:10219000FFFFEEFE0C809F010020BBE770B504003E
:1021A0004FF001003ED094F8250028B9002084F8B3
:1021B0002400204600F03CF8022084F825001A4E46
:1021C000CA20306053203060204600F025FC10BB50
:1021D000154D0C3D2868154908402860286861683D
:1021E000A269084321691143084328602189E068F6
:1021F00040EA01400C4914390860204600F032FCE6
:1022000048B9D4E90721114362692B6823F0604380
:102210001A4311432960FF213160002802D10121B6
:1022200084F8251070BD000024280040BFFF8FFBFC
:1022300000680549884205D1044850F8901F41F4D0
:10224000004101607047000000280040001002407B
:1022500070B50B4D286860F0A0002860FEF730FFD5
:1022600004464FF47A7606E0FEF72AFF001BB042E0
:1022700001D9032070BD28688006F5D5002070BD07
:102280000C28004010B5401EB0F1807F01D3012022
:1022900010BD4FF0E02460610F21601700F0D2FE06
:1022A0000020A06107202061002010BD90F87C1064
:1022B000012918D0012180F87C102421C0F8801059
:1022C00050F8601B0A680B6823F001030B6022F0D2
:1022D00000510022426050F8603C196020210162E8
:1022E0000277104670470220704770B5044690F898
:1022F0007C0001281DD0012084F87C002420C4F833
:10230000800020680568026822F0010202602068EF
:10231000826822F060620A438260204600F02AFC54
:10232000206805602020C4F88000002084F87C002C
:1023300070BD022070BD70B5044690F87C00012885
:102340001DD0012084F87C002420C4F8800020687F
:102350000568026822F0010202602068826822F0AB
:1023600060420A438260204600F004FC2068056059
:102370002020C4F88000002084F87C0070BD02207A
:1023800070BD10B5040003D0D4F8800010B107E090
:10239000012010BD002084F87C00204600F026F8C3
:1023A0002420C4F880002068016821F00101016048
:1023B000204600F0A5FC0128EBD0A06A10B1204611
:1023C00000F00AFC2068416821F4904141602068D7
:1023D000816821F02A0181602068016841F00101D3
:1023E00001602046BDE8104000F05ABC10B586B030
:1023F000044614216846FDF743FF124920688842CD
:102400001DD11148C16D41F00101C165C16D01F0DF
:1024100001010591C16C41F00101C164C06C022150
:1024200000F0010005900C20CDE90001002102918F
:10243000CDE9031069464FF09040FEF757FD06B016
:1024400010BD000000800040001002402DE9F8435C
:102450000446D0F880001F4616460D46202851D16C
:10246000DDB1D6B194F87C0001284BD0012084F86E
:102470007C004FF00008C4F888802120C4F8800058
:102480001834FEF71DFEA6878146E68754F8100C27
:10249000183CB0F5805F03D004E00120BDE8F8836C
:1024A000206920B12E46002584F87C8010E00026AB
:1024B000FAE78021204600F05FFDB8B9C6B116F8F2
:1024C000010B21688862B4F85600401EA4F856003B
:1024D000B4F856004B464FF0000200970028E8D1B0
:1024E0004FF04001204600F047FD30B10320D5E712
:1024F00035F8020BC0F30800E3E72020C4F88000A1
:102500000020CBE70220C9E7FEE701688A69D243D1
:10251000920701D400228A6200688169C943C90711
:1025200003D0816941F00101816170472DE9F041DB
:102530000446006890460E468069C043C00633D406
:102540000025202720688069C043800615D5701CAF
:10255000F8D0FEF7B5FDA0EB0800B04201D8002E80
:10256000F0D154F8440F40F0200044F8040967709B
:10257000A57025700120BDE8F08121681020C86198
:102580002068C7612046FFF7C0FF54F8440B41683C
:10259000064A11404160206840F0040044F82009D8
:1025A0006777A5772577E5E70020E4E700E800FEF8
:1025B0002DE9F84304461646DDE908971448984685
:1025C000DAB200900023204600F056F83A46494619
:1025D000204600F0B9F8B8B9F5B2B8F1010F08D04B
:1025E0002168300A88623A464946204600F0ACF835
:1025F00050B9206885624B46002240212046009752
:1026000000F050F8002800D00120BDE8F883000059
:10261000002000802DE9F8430446164615489846E8
:10262000DDE90897DAB2C3020090204600F024F8F2
:102630003A464946204600F087F8B8B9F5B2B8F1F5
:10264000010F08D02168300A88623A464946204680
:1026500000F07AF850B9206885624B46002280214C
:102660002046009700F01EF8002800D00120BDE8A9
:10267000F883000000200080F0B50568059C6868BC
:102680004FF48066064FC1F3090106EA545641EA49
:1026900002413E431943B043214308436860F0BD03
:1026A000FF63FF032DE9F0411D4617460E46044621
:1026B000DDF8188008E0681C06D0FEF701FDA0EBED
:1026C0000800A8420BD855B12068806936EA00009E
:1026D00012D00020B842EED00020BDE8F08154F8BE
:1026E000440F40F0200044F80409202060700020CE
:1026F000A07020700120F0E70120EBE770B51646CE
:102700000D4604460DE0324629462046FFF70EFFEF
:1027100008B1012070BDFEF7D3FC801BA84207D88A
:1027200035B120688069C0438006ECD4002070BDBC
:1027300054F8440F40F0200044F804092020607051
:102740000020A0702070E4E770B516460D460446E0
:102750000FE0324629462046FFF7E8FE08B1012087
:1027600070BD681C05D0FEF7ABFC801BA84207D8E3
:1027700035B120688069C0438007EAD4002070BD6D
:1027800054F8440F40F0200044F804092020607001
:102790000020A0702070E2E700EB8100006E00F0E6
:1027A000F84070478068C0F3C00070478068C0F38D
:1027B000800070478068C0F380007047042303EAFC
:1027C000D15310B518444369C1F3045107248C4018
:1027D000A3438A401343436110BD00EB8100016EA7
:1027E00021F00041114301667047000030B58BB005
:1027F000002408940994202168460A94FDF740FDBE
:102800001C484FF0A041042501604FF44031C0E95D
:102810000114C4600461C0E90545047744770121CF
:10282000016280F82440C462046380F83840C463C5
:1028300080F84040FEF722FA08B1FDF7A4FF08A98E
:102840000C480894FDF7A0FF08B1FDF79CFF0A486B
:1028500000900620CDE9010408480594CDE9030560
:1028600069460448FDF7FAFF002801D0FDF78BFF09
:102870000BB030BD100000200200300400007F408B
:1028800030B587B014216846FDF7FAFC1F48C16CCB
:1028900041F00401C164C16C01F004010591C16CF7
:1028A00041F02001C164C16C01F020010591C16CAF
:1028B00041F00101C164C16C01F001010591C16CDD
:1028C00041F00201C164C06C4FF0904500F002007D
:1028D0000590002220212846FEF7ECFB4FF4005023
:1028E00000900B480024CDE9010469460948FEF731
:1028F000FDFA202000900120CDE901046946284618
:102900000394FEF7F3FA07B030BD00000010024058
:102910000000111000080048134810B5114901606B
:102920001249416000210122C0E9021201614161A6
:102930008161C1610162FEF71DFC08B1FDF723FF53
:1029400000210948FEF7C2FB08B1FDF71CFF00217A
:102950000548FEF7E6FB002803D0BDE81040FDF770
:1029600012BF10BD005400407C000020FBA7A03027
:10297000174810B5154901604FF4E131416000215D
:1029800081600C22C160C0E9041281610162816230
:10299000FFF7F7FC08B1FDF7F6FE00210C48FFF742
:1029A000CAFC08B1FDF7EFFE00210948FFF79DFCC6
:1029B00008B1FDF7E8FE0648FFF778FC002803D0D1
:1029C000BDE81040FDF7DFBE10BD000000800040F4
:1029D000C80000200D4810B50B49016000217F227E
:1029E000C0E90112FF22C0E903214FF0804241619A
:1029F000C0E906120162FFF7D1FB002803D0BDE851
:102A00001040FDF7C0BE10BD00280040540100205A
:102A1000FEE77047704700002DE9F047104C8146F3
:102A200000252068400618D4206840F0800020600F
:102A3000FEF746FB06464FF47A78032708E000BF0E
:102A4000FEF73EFB801B404502D9032589F825701F
:102A50002068400601D4032DF2D12846BDE8F08756
:102A60000C2800402DE9F041064613480025016876
:102A700021F080010160104C0C3420684FF00307F6
:102A8000800607D43046FFF7E3FB90B186F8257047
:102A900003250EE0206820F0200020603046FFF77C
:102AA000D7FB10B186F825700325206840F0200080
:102AB00020602846BDE8F0810C2800407047FEF7F2
:102AC000E7BD000030B5A5B038216846FDF7D8FB5A
:102AD00014211FA8FDF7D4FB44210EA8FDF7D0FB5D
:102AE0000020FEF759FEFEF7BDFE194850F8901F72
:102AF00021F0180101600620009001200502CDE9B7
:102B000002054020049002200421CDE9080155214E
:102B1000CDE90A1007900C900D906846FFF738F940
:102B20000F2000241F900320CDE9200422940421CB
:102B30001FA82394FEF7E2FF064813940E90149406
:102B40006805CDE91D050EA8FEF794FE25B030BD41
:102B500000100240608008000548016841F47001DF
:102B6000016003494FF00060803908607047000041
:102B700088ED00E03FB514A1D1E90021CDE90021A5
:102B800013A2D2E90012CDE90212416EB9B1026876
:102B900091689268C1F34261520F1DF80240E5004E
:102BA00002ACA25CB5FBF2F2A0F86A201DF801208D
:102BB000615CD200B2FBF1F1A0F868103FBD0121C9
:102BC000A0F86A10F8E70000010101030701000006
:102BD000080402040801010190F82810C90706D072
:102BE00001684A68C36A22F400321A434A6090F8C6
:102BF0002810890706D501684A68036B22F48032E1
:102C00001A434A6090F82810490706D501684A68B7
:102C1000436B22F480221A434A6090F82810090777
:102C200006D501684A68836B22F400421A434A6061
:102C300090F82810C90606D501688A68C36B22F48B
:102C400080521A438A6090F82810890606D50168D8
:102C50008A68036C22F400521A438A6090F82810A4
:102C6000490611D501684A68436C22F480121A4360
:102C70004A60416CB1F5801F06D101684A68836CD7
:102C800022F4C0021A434A6090F82810090606D5BB
:102C900001684A68C06C22F4002202434A6070470F
:102CA000F8B500260446C0F88860FEF709FA054624
:102CB000206800686FF07E47000708D52B46002289
:102CC0004FF400112046009700F056F960B92068D3
:102CD000006840070AD52B4600224FF480012046A9
:102CE000009700F049F908B10320F8BD2020C4F88E
:102CF0008000C4F8840084F87C600020F8BD0000E7
:102D00002DE9F0410446026880682169E3690843BF
:102D10006169002519430843616EDFF830C2014341
:102D200010688B4B18400843106020684168E268C7
:102D300021F44051114341602168A069614501D0EF
:102D4000226A10438A68834B1A4002438A602068D3
:102D5000C16A626A21F00F011143C1627E49236892
:102D60007E488B420DD1D0F8880010F0030006D0C9
:102D7000012855D0022842D003283FD152E001203B
:102D80003DE077498B420BD1D0F8880010F00C0061
:102D900035D0042833D0082840D00C282ED141E06B
:102DA00070498B420BD1D0F8880010F0300026D04B
:102DB000102835D0202831D030281FD132E06A4980
:102DC0008B420BD1D0F8880010F0C00017D04028FB
:102DD00026D0802822D0C02810D123E063450DD111
:102DE000D0F8880010F4406009D0B0F5806F17D09B
:102DF000B0F5006F12D0B0F5406F13D010205B49D2
:102E00005B4F00264FF40042634539D160B1022880
:102E100013D004280BD0082831D10DE00220EEE7B2
:102E20000420ECE70820EAE7FEF756FF01E0FEF792
:102E300077FF010001D17EE01146606A37F810206B
:102E40006768B1FBF2F007EB470383426FD8B0EB42
:102E5000073F6CD8002308461946FDF7D9F9090247
:102E600041EA106102027808101871413A460023C5
:102E7000FDF7CEF93F4AA0F54071914259D956E08D
:102E8000E3694FF6EF7893422DD109284FD2DFE85E
:102E900000F00508114E0D4E4E4E1000FEF71CFFBF
:102EA00001E0FEF72BFF010004D144E0FEF738FFFC
:102EB000F9E71146606A37F81000B1FBF0F0410005
:102EC000606801EB5001B1FBF0F080B2A0F110019D
:102ED00041452CD84FF6F0710140C0F34200014348
:102EE0002068C16027E0092821D2DFE800F005084A
:102EF00011200D2020201000FEF7EEFE01E0FEF76D
:102F0000FDFE010004D116E0FEF70AFFF9E71146C5
:102F1000606A37F81000B1FBF0F1606801EB500116
:102F2000B1FBF0F080B2A0F11001414501D90125BB
:102F300001E02168C8600120A4F86A0024F8680F45
:102F400028466660A660BDE8F08100000080004071
:102F5000F369FFCFFFF4FF11003801400010024079
:102F60000044004000480040004C00400024F400B1
:102F7000203A0008FFFC0F002DE9F0479A4617465B
:102F80000E4604464FF000094FF02008089D39E036
:102F9000681C37D0FEF794F8A0EB0A00A84222D8AC
:102FA0000DB32068016849072CD5C069C0430005EE
:102FB00028D421684FF4006008622068016821F479
:102FC000D07101602068816821F001018160C4F83E
:102FD0008080C4F88480C4F8888000BF84F87C9026
:102FE0000320BDE8F0872068016821F4D0710160FA
:102FF0002068816821F001018160C4F88080C4F8F4
:103000008480EBE72068C06936EA000004D0002025
:10301000B842BDD00020E4E70120F9E7FEE7000058
:1030200037B514460846064B6A46214600F0ECF8D0
:1030300004466946002000F07EFC20463EBD0000AC
:10304000373900080907090E002804DB00F1E020E9
:1030500080F80014704700F00F0000F1E02080F8C5
:10306000141D704702E008C8121F08C1002AFAD1D7
:1030700070477047002001E001C1121F002AFBD1F8
:10308000704700002DE9FF5F82B00021DDE90430C8
:10309000020DDDF840B0034318D044F61050A2F200
:1030A000FF3242431514119801281FD0A5EB0B00E5
:1030B000401C5FEA000A4FF000064E4FDFF83891DF
:1030C000B046504615D5CAF1000413E0119801240A
:1030D0004AA3012801D16FEA0B010298119AC0E9B5
:1030E0000031C0E9024206B0BDE8F09FCBF100001C
:1030F000DFE704460021404A491842EB0450CDE97D
:10310000001012E0E00707D032463B4640464946F1
:10311000FDF7A4F98046894632463B4610461946DB
:10312000FDF79CF906460F466410002CEAD1DDE954
:103130000401DDE90023BAF1000F06DAFDF78EF98C
:1031400042464B46FDF78AF905E0FDF7F9F942469C
:103150004B46FDF7F5F904460E460022284BFDF7D5
:1031600077FA03D84FF0FF30014607E00022254BE5
:1031700020463146FDF7CBF8FDF751FA102409E05F
:10318000002C0ADB0A220023FDF742F8039B3032B1
:103190001A55641E50EA0102F2D1641C039AC4F16C
:1031A00011031444119A012A03D0012208430DD1BE
:1031B0000AE0084304D000204FF0110B119072E791
:1031C000A3EB0B056D1E0DE05B4504DD4FF0000227
:1031D00005F1010504E003DA4FF00002A5F1010555
:1031E000002AECD002981199C0E90231C0E90045EB
:1031F00079E70000000014400000F03F30000000BC
:103200000000F0430000E03F2DE9FF4F95B09B46E2
:103210008946064600250FE2252877D10024274657
:10322000F84A0121059400E0044316F8013F203BD1
:1032300001FA03F01042F7D130782A2811D06FF04C
:103240002F033078A0F13002092A16D8059A44F0ED
:10325000020402EB820203EB42021044761C05904A
:10326000EFE759F8042B0592002A03DA504244F4A0
:103270000054059044F00204761C30782E2816D1B4
:1032800016F8010F44F004042A280DD06FF02F0225
:103290003078A0F13003092B09D807EB870302EB44
:1032A0004303C718761CF3E759F8047B761C307883
:1032B0006C280FD006DC4C2817D068280DD06A285F
:1032C00014D104E0742810D07A280FD10DE044F412
:1032D00000140AE044F4801401E044F440147278CD
:1032E000824202D104F58014761C761C3078662860
:1032F0000BD013DC582877D009DC002875D045287E
:10330000F6D04628F4D047281AD19DE118E063286A
:1033100035D0642879D0652812D195E1702873D012
:1033200008DC6728F1D069286FD06E280DD06F288F
:1033300006D1B5E073282CD0752875D0782874D0C4
:103340005A46179990476D1C75E1C4F30250022844
:1033500009D003280DD0D9F8001004280DD00D6035
:1033600009F1040967E1D9F80010EA17C1E9005230
:10337000F6E7D9F800100D80F2E70D70F0E719F8C4
:10338000041B8DF8001000208DF80100EA46012092
:1033900003E059F804AB4FF0FF3061074FF0000134
:1033A00002D40DE008F101018846B9420FDA8045E8
:1033B000F8DB1AF808100029F4D108E008F101013F
:1033C00088468142FADB1AF808100029F6D10598E0
:1033D0005B46A0EB080721463846179A00F094FA9E
:1033E000284400EB080507E04DE029E10DE01AF85C
:1033F000010B5A4617999047B8F10108F7D25B467E
:1034000021463846179A13E142E00A220092C4F39B
:1034100002524FF0000A022A08D059F804CB032ABE
:103420004FEAEC710AD00DE029E02AE009F107012A
:1034300021F00702F2E802C1914609E00FFA8CFC84
:103440004FEAEC71042A03D14FFA8CFC4FEAEC717D
:10345000002907DA0A460021DCF1000C61EB0201C9
:103460002D2202E0220504D52B228DF80420012212
:1034700003E0E20701D02022F7E7904659E00A2155
:1034800002E010220DE010214FF0000A00910BE045
:1034900010224FF0000A44F004040827009203E0D1
:1034A00008224FF0000A0092C4F30252022A05D00B
:1034B00059F804CB0021032A08D009E009F10701DB
:1034C00021F00702F2E802C1914605E01FFA8CFCE8
:1034D000042A01D10CF0FF0C4FF00008220728D578
:1034E000702806D0009B83F0100353EA0A0305D02E
:1034F0000EE040228DF80420012208E05CEA01027F
:1035000006D030228DF804208DF805000222904666
:10351000009B83F0080353EA0A030AD15CEA010224
:1035200001D1620705D530228DF804204FF0010843
:103530007F1E582804D034A003900EA802900DE0FE
:1035400036A0F9E753466046009AFCF761FE8446D0
:103550000398825C0298401E029002705CEA0100AF
:10356000F0D1029806A9081A00F1200A600702D5D6
:1035700024F4803400E00127574502DDA7EB0A0060
:1035800000E0002000EB0A01009005984144401A39
:103590000590E00306D45B462146179A059800F093
:1035A000B3F90544002706E001A85A46C05D179903
:1035B00090476D1C7F1C4745F6DBE0030CD55B464E
:1035C0002146179A059800F09FF9054404E0302041
:1035D0005A46179990476D1C0099481E0090002983
:1035E000F5DC08E0029802995A460078491C0291DD
:1035F000179990476D1CBAF10001AAF1010AF1DC9C
:1036000065E10000092801003031323334353637A6
:10361000383961626364656600000000303132331E
:1036200034353637383941424344454600000000BE
:1036300000F058F90544761C307800287FF4ECAD92
:1036400019B02846BDE8F08F620700D4062709F1BB
:10365000070222F0070CFCE80223E14603F00048D1
:103660005FEA080C02D00FF2702C0DE05FEA045CF8
:1036700002D50FF2682C07E05FEAC47C02D00FF29B
:10368000602C01E0AFF2700C4FF0FF3823F00043E4
:10369000CDF850C065280CD006DC452809D0462856
:1036A0001DD047283DD13DE0662818D067287ED13F
:1036B00038E00021112F01DB112000E0781CCDE95A
:1036C000000106A90EA8FFF7DDFCDDE90F010E9A47
:1036D00003910021009207F1010A04914DE04FF09F
:1036E00000400097CDE9011006A90EA8FFF7CAFC1B
:1036F000DDE90F0203920E9B11990022DDF80CA068
:103700000093049211B9791C00EB010AB7EB0A008F
:1037100004D4C0F1FF3007F1010A0490AAEB0700BE
:10372000019044E0012F00DA01270021112F01DD73
:10373000112000E03846CDE9000106A90EA8FFF7E8
:10374000A1FCDDE90F010E9A039100210491009282
:10375000BA4621070CD40399514500DA8A46BAF1DA
:10376000010F05DD009AAAF10101515C302908D052
:10377000B84202DA10F1040F06DA0121CDE9011096
:1037800015E0AAF10101E9E7002805DC04990144EC
:103790000491AAEB000102E0411C514500DD8A467C
:1037A0000499401A401C01904FF0004002902007FD
:1037B00004D40198504501DBCDF8048000208DF839
:1037C0004F0002980DF14F07B0F1004F25D02B208C
:1037D0000E9002984FF0020800280CDA4042029046
:1037E0002D200E9007E00A210298FCF75BFD303196
:1037F000029007F8011DB8F10001A8F10108F2DC00
:1038000002980028EFD1791E0E980870307800F0E9
:10381000200040F0450007F8020D12A8C01B00F17F
:1038200007081498007800B1012000EB0A01019804
:1038300001EBE07105984144401A401E0590E003F9
:1038400006D45B462146179A059800F05DF80544BA
:103850001498007818B15A46179990476D1CE003E8
:1038600024D55B462146179A059800F04DF805448B
:103870001CE00498002807DBDDE90301884203DD32
:103880000098405C179901E0179930205A469047FC
:10389000049805F10105401C04900198401E019018
:1038A00004D12E205A46179990476D1CBAF1000199
:1038B000AAF1010ADDDC05E017F8010B5A46179959
:1038C00090476D1CB8F10001A8F10108F4DC5B46DB
:1038D0002146179A0598ABE62D0000002B0000004A
:1038E000200000002DE9F041044600251E46174641
:1038F000880404D405E039462020B0476D1C641EBE
:10390000F9D52846BDE8F0812DE9F04104460025AF
:103910001E469046C80301D5302700E020278804C2
:1039200004D505E041463846B0476D1C641EF9D504
:103930002846BDE8F0810A68531C0B601070704780
:103940000FB410B503A9029800F052F810BC5DF84E
:1039500014FB000088B00025059506950395049595
:10396000FDF79EFEFFF7AEF8FEF78AFFFFF700F8BF
:10397000FEF73CFFFEF7D0FFFFF72CF8642303228D
:10398000A6211848FDF752FC642768B908208DF875
:103990001400012005A9CDE9001003462D2202974D
:1039A000A6211048FDF786FD05954FF0060803AEE9
:1039B0004FF4FA690695CDE9006801233222A62169
:1039C00008480297FDF7C4FC002407A0315DFFF70B
:1039D000B7FF641C062CF8DB039548460495FDF7F9
:1039E00073FAE8E77C0000200A0D2564000000005F
:1039F00000B50A46B3B001466846FFF711FB002840
:103A000009DD6846FCF747FC82B26FF07F436946E8
:103A10000248FEF71BFD33B000BD0000C8000020C7
:103A2000010002000400060008000A000C0010005B
:103A300020004000800000010000000000000000A5
:103A40000102030406070809000000000102030444
:103A5000703A0008000000201000000064300008E8
:103A6000803A000810000020700500007430000843
:103A70001000000001000000000000000024F4001D
:04000005080001D915
:00000001FF
