:020000040800F2
:1000000010050020ED010008F71700084916000848
:10001000F5170008F9020008F521000800000000AB
:10002000000000000000000000000000A11800080F
:10003000FB02000800000000F9170008A3180008E0
:10004000070200080702000807020008070200086C
:10005000070200080702000807020008070200085C
:10006000070200080702000807020008070200084C
:10007000070200080702000807020008070200083C
:10008000070200080000000007020008070200083D
:10009000070200080702000807020008070200081C
:1000A000070200080702000807020008070200080C
:1000B00007020008070200080702000807020008FC
:1000C00007020008070200080702000807020008EC
:1000D00007020008070200080702000807020008DC
:1000E00007020008070200080702000807020008CC
:1000F00007020008070200080702000800000000CD
:1001000000000000070200080000000007020008CD
:1001100007020008000000000702000807020008AC
:10012000070200080702000807020008070200088B
:10013000070200080000000000000000070200089D
:10014000070200080702000800000000000000008D
:10015000000000000000000000000000000000009F
:10016000000000000000000000000000070200087E
:10017000070200080000000000000000000000006E
:10018000000000000702000800000000000000005E
:10019000000000000000000000000000000000005F
:1001A000000000000000000007020008070200082D
:1001B000070200080702000807020008000000000C
:1001C000000000000702000800000000000000001E
:1001D0000702000807020008DFF80CD000F07AF8E8
:1001E00000480047352200081005002006488047D7
:1001F00006480047FEE7FEE7FEE7FEE7FEE7FEE70C
:10020000FEE7FEE7FEE7FEE739190008D90100081E
:100210002DE9F05F0546002092469B46884606463B
:10022000814640241BE0284641464746224600F0CE
:1002300041F853465A46C01A914110D31146184608
:10024000224600F028F82D1A67EB01084F46224697
:100250000120002100F01FF817EB00094E41201E7D
:10026000A4F10104DFDC484631462A464346BDE896
:10027000F09FD2B201E000F8012B491EFBD270477B
:100280000022F6E710B513460A4604461946FFF762
:10029000F0FF204610BD202A04DB203A00FA02F1CC
:1002A000002070479140C2F1200320FA03F3194364
:1002B00090407047202A04DB203A21FA02F0002106
:1002C000704721FA02F3D040C2F120029140084366
:1002D00019467047064C074D06E0E06840F0010300
:1002E00094E8070098471034AC42F6D3FFF778FF44
:1002F000CC220008EC220008FEE77047704700009F
:1003000070B5044600F0F8F80546601C02D00448B9
:100310004068044400F0F0F8401BA042FAD370BDDE
:10032000000000202DE9FC4FDFF8A0A100230125EB
:100330000AF1040B03244FF00F0C0BF1040EBDE087
:1003400005FA03F632406FD04F68012F05D0022F17
:1003500003D0112F01D0122F17D1D0F808905F00D1
:1003600004FA07F829EA08090097D1F80C8008FA7E
:1003700007F848EA0908C0F808804768B7430E79CB
:10038000C6F300169E403E434660C6684FEA4308E7
:1003900004FA08F7BE4301978F6807FA08F7374356
:1003A000C7604E68022E01D0122E13D1DE0800EB7A
:1003B00086060096366A5F07FF0E0CFA07F926EAF2
:1003C0000906D1F8109009FA07F949EA0609009ED2
:1003D000C6F820900668019FBE430F7907F0030717
:1003E00007FA08F7374307604E68F60065D5384EC0
:1003F000376E47F001073766366E23F0030706F0C5
:1004000001060096334E3E44B146B6689F074FEA58
:1004100017780CFA08F7BE43B0F1904F05D02E4F75
:10042000B84204D1012717E047E0002714E02B4F22
:10043000B84201D102270FE0294FB84201D103276A
:100440000AE0284FB84201D1042705E0264FB84200
:1004500001D1052700E0062707FA08F73743C9F856
:100460000870DAF800605746D1F8048096435FEAD6
:10047000C83800D516433E60DBF800605F46D1F80F
:10048000048096435FEA883800D516433E60DEF864
:1004900000607746D1F8048096435FEAC82800D50B
:1004A00016433E60094F0C373E68D1F804809643EE
:1004B0005FEA882800D516433E605B1C0A6832FA62
:1004C00003F67FF43DAFBDE8FC8F0000000401405F
:1004D00000100240000001400004004800080048ED
:1004E000000C004800100048001400480AB1816167
:1004F00070478162704700000148806870470000C3
:100500000000002002488168426811448160704701
:100510000000002010B50024032000F065F8002042
:1005200000F008F808B1012401E000F025F82046A9
:1005300010BD000070B50E4E05460024706898B1DD
:100540004FF47A71B1FBF0F00A490968B1FBF0F0A1
:1005500000F0D2FD40B9102D06D200222946501ECF
:1005600000F022F8356000E00124204670BD000054
:10057000000000200C0000200A4882B0016E41F00B
:1005800001010166016E01F001010091816D41F0F0
:1005900080518165806D00F08050009002B000F0C5
:1005A00093B8000000100240F0B40E4B1B680C46DC
:1005B000C3F30223C3F10705042D00D90425191D37
:1005C000072901D2002300E0DB1E012606FA05F10F
:1005D000491E214099409E40761E16403143F0BC92
:1005E00001F009BE0CED00E0064900F007020868C2
:1005F0004FF6FF03184040EA0220034A1043086008
:10060000704700000CED00E00000FA052B492C4B70
:100610000A6832214A432B4940B1B0F5007F08688F
:1006200029D020F4C06040F480602CE00868C0F35A
:100630004120022804D051F8800F20F4807022E07D
:10064000D1F8800020F48070C1F88000086820F4A0
:10065000C06040F400700860B2FBF3F0401C00E0A2
:10066000401E4A69520501D50028F9D14869400564
:100670000AD503207047C0F34120022806D051F864
:10068000800F40F48070086000207047D1F880002F
:1006900040F48070C1F88000086820F4C06040F425
:1006A00000700860B2FBF3F0401C00E0401E4A6995
:1006B0005205DBD50028F9D1D8E700000C00002056
:1006C00040420F00007000400248816841F48041C0
:1006D00081607047007000400248016841F48071F9
:1006E00001607047007000402DE9F843044600683F
:1006F00000269D4D00035ED5A86D0027C00008D4DC
:10070000A86D40F08050A865A86D012700F08050CA
:100710000090DFF85892D9F8001041F48071C9F8C0
:100720000010FFF7E9FE804606E000BFFFF7E4FE99
:10073000A0EB080002282BD8D9F80000C005F5D599
:10074000D5F8900010F4407014D0216C814211D083
:10075000D5F89000D5F8901020F4407041F4803125
:10076000C5F89010D5F8901021F48031C5F890109C
:10077000C5F89000C00711D0FFF7BEFE804641F2D9
:10078000883907E0FFF7B8FEA0EB0801494501D919
:1007900003260BE0D5F890008007F3D5D5F890003C
:1007A000216C20F440700843C5F890001FB1A86D7B
:1007B00020F08050A8652078C00707D0D5F88800C1
:1007C000616820F003000843C5F88800207880079E
:1007D00007D5D5F88800A16820F00C000843C5F8BB
:1007E00088002078400707D5D5F88800E16820F018
:1007F00030000843C5F888002078000707D5D5F8F1
:100800008800216920F0C0000843C5F888002078DE
:10081000800607D5D5F88800616920F44060084358
:10082000C5F888002078400607D5D5F88800A1696A
:1008300020F440500843C5F888002078000607D50A
:10084000D5F88800E16920F440400843C5F88800E5
:100850002088C00507D5D5F88800216A20F44030EB
:100860000843C5F888002088800507D5D5F888009A
:10087000616A20F440200843C5F8880020884005BC
:100880000FD5D5F88800A16A20F440100843C5F8B8
:100890008800A06AB0F5801F03D1E86840F480109A
:1008A000E860208800050FD5D5F88800E16A20F4BB
:1008B00040000843C5F88800E06AB0F5800F03D116
:1008C000E86840F48010E8602088C0040FD5D5F8AF
:1008D0008800216B20F040700843C5F88800206B29
:1008E000B0F1807F03D1E86840F48010E860208890
:1008F0004FF0006180040ED5D5F88800626B20F0BF
:1009000040601043C5F88800606B884203D1E868F6
:1009100040F48010E860208840040ED5D5F88800A7
:10092000A26B20F040601043C5F88800A06B88429D
:1009300003D1E86840F48010E860208800040FD5F7
:10094000D5F88800E16B20F040500843C5F88800D6
:10095000E06BB0F1805F03D1E86840F48030E8607C
:100960003046BDE8F88300000010024000700040EF
:100970002DE9F0470E4605004FF0000725D0DFF8BF
:10098000AC81D8F8000000F00F00B0420CD2D8F8CB
:10099000001021F00F013143C8F80010D8F8000012
:1009A00000F00F00B04210D12968614CC80741F235
:1009B000883A5AD06868DFF87C91032808D002286A
:1009C00020682DD0400500282CDB0120BDE8F087F1
:1009D00020688001F9D5E06800F00302E068C0F308
:1009E0000310401C032A19D0534A00BFB2FBF0F099
:1009F000E268C2F306225043E268C2F34162521C2D
:100A00005200B0FBF2F0484517D9A06810F0F00F83
:100A10000CD0880711D5A86840B10EE0474AE5E739
:100A20008003D0E700F0B6F8484506D9A06820F06A
:100A3000F00040F08000A0608027A068696820F086
:100A400003000843A060FFF757FD814606E000BFA2
:100A5000FFF752FDA0EB090151453AD8A06869683B
:100A600000F00C00B0EB810FF2D12868810714D59B
:100A7000400703D5A06840F4E060A0602878000734
:100A800005D5A06820F4605040F4E060A060A06844
:100A9000A96820F0F000084304E0802F03D1A0688B
:100AA00020F0F000A060D8F80010404601F00F01DF
:100AB000B14216D9016821F00F0131430160FFF7FF
:100AC0001BFD074607E000BFFFF716FDC11B5145A0
:100AD00001D903207AE7D8F8000000F00F00B042F7
:100AE000F2D12878400705D5A068E96820F4E060D5
:100AF0000843A0602878000706D5A068296920F47B
:100B0000605040EAC100A06000F044F8A1680C4ABF
:100B1000C1F30311515C01F01F01C840094908608D
:100B200009480068BDE8F047FFF704BD0020024017
:100B30000010024000B4C4040024F40000366E012A
:100B4000B42200080C0000200000002005480649DF
:100B500000688968054AC1F30221515C01F01F0158
:100B6000C84070470C00002000100240C42200085A
:100B70000548064900688968054AC1F3C221515CED
:100B800001F01F01C84070470C0000200010024017
:100B9000C4220008184910B58868C0F381021748BC
:100BA000012A0BD08A68164BC2F38102022A06D0B2
:100BB0008A68C2F38102032A03D0002010BD1846C0
:100BC00010BDCA6802F00304CA68C2F30312521CC3
:100BD000032C02D0B0FBF2F001E0B3FBF2F0CA68E4
:100BE000C968C2F306225043C1F34161491C490060
:100BF000B0FBF1F010BD0000001002400024F40032
:100C000000366E012DE9F84304007AD02078FA4DC1
:100C1000C00747D0A868E96800F00C0001F00301A4
:100C20000C2802D0082817D001E0032914D06068EE
:100C3000B0F5803F17D0B0F5A02F286817D020F46A
:100C400080302860286820F4802028606068E0B147
:100C5000FFF752FC064614E02868800322D560683E
:100C60000028D2D01EE0286840F48030EDE740F440
:100C700080202860F7E700BFFFF73EFC801B642858
:100C800070D828688003F7D50CE0FFF735FC0646DE
:100C900005E000BFFFF730FC801B6428F0D828680F
:100CA0008003F7D4207880074CD5A868E96800F065
:100CB0000C0001F003010C2802D004280DD001E043
:100CC00002290AD0E068002828682BD040F4807000
:100CD0002860FFF711FC064619E02868400502D598
:100CE000E068002891D06868217C20F0FE4040EA4E
:100CF00001606860C1480068FFF71CFC002800D153
:100D000020E076E1FFF7F8FB801B0228B8D82868BE
:100D10004005F7D56868217C20F0FE4040EA01607C
:100D200068600FE020F480702860FFF7E5FB06465E
:100D300005E000BFFFF7E0FB801B0228A0D8286871
:100D40004005F7D42078000729D560690028D5F838
:100D5000940013D040F00100C5F89400FFF7CCFBDD
:100D6000064606E090E000BFFFF7C6FB801B0228A6
:100D700086D8D5F894008007F6D510E020F0010061
:100D8000C5F89400FFF7B8FB064604E0FFF7B4FB94
:100D9000801B022878D8D5F894008007F6D42078F4
:100DA000400761D5A86D0026C00008D4A86D40F0AA
:100DB0008050A865A86D012600F0805000909048F2
:100DC0000168C90511D40168804641F48071016051
:100DD000FFF792FB074604E0FFF78EFBC01B0228DB
:100DE00052D8D8F80000C005F6D5A068012815D063
:100DF0000528D5F8900016D020F00100C5F8900025
:100E0000D5F8900020F00400C5F89000A06841F2E9
:100E10008838B8B1FFF770FB07460EE0D5F89000B0
:100E200040F00100F0E740F00400C5F89000F5E75D
:100E3000FFF762FBC11B414526D8D5F8900080071B
:100E4000F6D50CE0FFF758FB074604E0FFF754FB2C
:100E5000C11B414518D8D5F890008007F6D41EB1C3
:100E6000A86D20F08050A8652078800629D5A0695B
:100E70000028D5F8980013D040F00100C5F898007C
:100E8000FFF73AFB064606E077E000BFFFF734FBCA
:100E9000801B022877D8D5F898008007F6D510E097
:100EA00020F00100C5F89800FFF726FB064604E095
:100EB000FFF722FB801B022865D8D5F89800800731
:100EC000F6D4E069F0B3A968C1F38101032961D0C8
:100ED0000228286820F0807028600BD0E86820F095
:100EE0000300E860E86847490840E860FFF704FB52
:100EF00004464BE0FFF700FB064604E0FFF7FCFA70
:100F0000801B02283FD828688001F7D4F4E9080143
:100F10006FF00F0202EB01110843218A52044908C5
:100F200002EB4151A26841EA02210843217D4FF0C2
:100F30007E42490802EB41610843217B40EAC160DF
:100F4000E96800E062E0304A11400843E860286840
:100F500040F080702860E86840F08070E860FFF73B
:100F6000CBFA044605E000BFFFF7C6FA001B0228D3
:100F700009D828688001F7D548E004E0FFF7BCFAFB
:100F8000001B022802D90320BDE8F88328688001ED
:100F9000F4D43BE00128F7D0E868226A00F00301AE
:100FA000914226D1616A00F0F002090110399142A4
:100FB0001FD1A26A00F4FE41B1EB022F19D194F8BF
:100FC0002C2000F07841B1EBC26F12D1218E00F4D9
:100FD000C00249084905A1F50011914209D194F8D0
:100FE000341000F0C06049084906A1F10071814247
:100FF0000CD00120C8E700000010024000000020D3
:1010000000700040FFFFEEFE0C809F010020BBE758
:1010100070B504004FF001003ED094F8250028B9C7
:10102000002084F82400204600F03CF8022084F8D8
:1010300025001A4ECA20306053203060204600F050
:10104000DDFB10BB154D0C3D286815490840286094
:1010500028686168A2690843216911430843286030
:101060002189E06840EA01400C49143908602046B3
:1010700000F0EAFB48B9D4E90721114362692B6803
:1010800023F060431A4311432960FF213160002897
:1010900002D1012184F8251070BD000024280040F1
:1010A000BFFF8FFB00680549884205D1044850F80E
:1010B000901F41F40041016070470000002800408B
:1010C0000010024070B50B4D286860F0A000286049
:1010D000FFF712FA04464FF47A7606E0FFF70CFAAF
:1010E000001BB04201D9032070BD28688006F5D5E9
:1010F000002070BD0C28004010B5401EB0F1807F6C
:1011000001D3012010BD4FF0E02460610F21601772
:1011100001F071F80020A06107202061002010BDBF
:10112000F0B590F83C20012A3AD0012580F83C50D7
:10113000022280F83D2003685A689C68194E1A4FB5
:10114000B34201D0BB4204D122F4700C4A6842EA97
:101150000C02DFF858C002EA0C02D1F800C04CEAD9
:10116000020CC3F804C00268B2420DD0B2F1804F45
:101170000AD00F4B9A4207D00E4B9A4204D0BA4283
:1011800002D00D4B9A4204D1896824F080031943A0
:10119000916080F83D50002180F83C100846F0BD79
:1011A0000220F0BD002C0140003401408FFFFFFD04
:1011B00000040040000800400040014010B586B027
:1011C000044614216846FFF75BF82068B0F1804FB1
:1011D00015D10C48C16C41F00101C164C06C022101
:1011E00000F0010005900120CDE9000100210291ED
:1011F000CDE9031069464FF09040FFF793F806B031
:1012000010BD00000010024070B5044690F83C008C
:101210000D4601280BD0012084F83C000C2A45D053
:1012200007DC5AB1042A1BD0082A78D12CE002200E
:1012300070BD102A4ED0142A71D15DE0206800F0F4
:10124000EFFB2068816941F00801816120688169B4
:1012500021F004018161206881692A69114311E04C
:10126000206800F02BFC2068816941F400618161F5
:101270002068816921F480618161206881692A691F
:1012800041EA022181614AE0206800F05FFC2068A9
:10129000C16941F00801C1612068C16921F0040100
:1012A000C1612068C1692A69114311E0206800F01A
:1012B00095FC2068C16941F40061C1612068C16981
:1012C00021F48061C1612068C1692A6941EA022173
:1012D000C16124E0206800F0C9FC2068016D41F084
:1012E000080101652068016D21F004010165206895
:1012F000016D2A69114311E0206800F0EFFC2068BD
:10130000016D41F4006101652068016D21F4806187
:1013100001652068016D2A6941EA0221016500200A
:1013200084F83C0070BD10B5040003D094F83D0073
:1013300010B107E0012010BD002084F83C002046D9
:1013400000F022F8022084F83D00211D206800F002
:1013500001FB012084F8480084F83E0084F83F0037
:1013600084F8400084F8410084F8420084F8430087
:1013700084F8440084F8450084F8460084F8470067
:1013800084F83D00002010BD08B50068B0F1804F22
:1013900008D10548816D41F001018165806D00F043
:1013A0000100009008BD00000010024030B5044666
:1013B000022269B1042912D0082917D00C291CD0A7
:1013C000102921D094F84300012824D0012030BDF9
:1013D00094F83E000128F9D184F83E201DE094F8ED
:1013E0003F000128F2D184F83F2016E094F8400035
:1013F0000128EBD184F840200FE094F84100012847
:10140000E4D184F8412008E094F842000128DDD1BD
:1014100084F8422001E084F843200122206800F093
:10142000F1FA194B20681949194A984209D08842A3
:1014300007D0904205D0174DA84202D0164DA842C1
:1014400003D1456C45F400454564206898420CD0B2
:10145000B0F1804F09D0114B984206D0104B984202
:1014600003D0884201D0904207D181680D4A1140D3
:10147000062906D0B1F5803F03D0016841F0010193
:101480000160002030BD0000002C0140003401400C
:101490000040014000440140004801400004004079
:1014A000000800400700010090F87C10012918D0C6
:1014B000012180F87C102421C0F8801050F8601BB6
:1014C0000A680B6823F001030B6022F00051002230
:1014D000426050F8603C196020210162027710469A
:1014E00070470220704770B5044690F87C000128D0
:1014F0001DD0012084F87C002420C4F880002068DE
:101500000568026822F0010202602068826822F009
:1015100060620A438260204600F018FC2068056083
:101520002020C4F88000002084F87C0070BD0220D8
:1015300070BD70B5044690F87C0001281DD00120D4
:1015400084F87C002420C4F88000206805680268C4
:1015500022F0010202602068826822F060420A43A1
:101560008260204600F0F2FB206805602020C4F86D
:101570008000002084F87C0070BD022070BD10B592
:10158000040003D0D4F8800010B107E0012010BDA2
:10159000002084F87C00204600F026F82420C4F8BF
:1015A00080002068016821F001010160204600F000
:1015B00093FC0128EBD0A06A10B1204600F0F8FBA4
:1015C0002068416821F4904141602068816821F0E1
:1015D0002A0181602068016841F001010160204614
:1015E000BDE8104000F048BC10B586B00446142198
:1015F0006846FEF745FE1249206888421DD1114811
:10160000C16D41F00101C165C16D01F0010105919C
:10161000C16C41F00101C164C06C022100F0010005
:1016200005900C20CDE9000100210291CDE90310C5
:1016300069464FF09040FEF775FE06B010BD000001
:101640000080004000100240FEE7000030B587B087
:1016500014216846FEF714FE1F48C16C41F00401D6
:10166000C164C16C01F004010591C16C41F020011D
:10167000C164C16C01F020010591C16C41F0010110
:10168000C164C16C01F001010591C16C41F002011E
:10169000C164C06C4FF0904500F00200059000223C
:1016A00020212846FEF722FF4FF4005000900B48FF
:1016B0000024CDE9010469460948FEF733FE2020E5
:1016C00000900120CDE90104694628460394FEF705
:1016D00029FE07B030BD00000010024000001110CC
:1016E00000080048174810B5154901604FF4E13172
:1016F0004160002181600C22C160C0E90412816157
:1017000001628162FFF73BFF08B1FEF7F7FD0021A0
:101710000C48FFF70EFF08B1FEF7F0FD0021094865
:10172000FFF7E1FE08B1FEF7E9FD0648FFF7BCFE52
:10173000002803D0BDE81040FEF7E0BD10BD00005A
:1017400000800040100000200D4810B50B490160DA
:1017500000217F22C0E90112FF22C0E903214FF0DE
:1017600080424161C0E906120162FFF751FC002886
:1017700003D0BDE81040FEF7C1BD10BD00280040F9
:101780009C00002010B58AB00024079408941C2106
:1017900068460994FEF774FD15484FF08041C0E992
:1017A00000144FF47A71C0E9024104618461FFF7CB
:1017B000BAFD08B1FEF7A2FD079407A90C480994E9
:1017C000FFF7AEFC08B1FEF799FD6020CDE90004FB
:1017D00002940022694606480494FFF715FD08B1FB
:1017E000FEF78CFD0248FFF7E9FC0AB010BD0000CF
:1017F000C4000020FEE77047704700002DE9F04765
:10180000104C814600252068400618D4206840F01E
:1018100080002060FEF770FE06464FF47A780327BA
:1018200008E000BFFEF768FE801B404502D9032593
:1018300089F825702068400601D4032DF2D128468E
:10184000BDE8F0870C2800402DE9F041064613481A
:101850000025016821F080010160104C0C342068E3
:101860004FF00307800607D43046FFF72BFC90B1FA
:1018700086F8257003250EE0206820F02000206007
:101880003046FFF71FFC10B186F82570032520684D
:1018900040F0200020602846BDE8F0810C28004080
:1018A0007047FEF72FBE000030B5A5B0382168465E
:1018B000FEF7E6FC14211FA8FEF7E2FC44210EA867
:1018C000FEF7DEFC4FF40070FEF7A0FEFEF704FF0B
:1018D000174850F8901F21F0180101600620009071
:1018E00001200502CDE9020540200490022008AB4A
:1018F00004212022079083E807000B90CDE90C011A
:101900006846FFF77FF900240F201F900320CDE9E0
:101910002004229421461FA82394FFF729F80548A4
:1019200013940E901E950EA8FEF7DEFE25B030BD76
:1019300000100240200008000548016841F47001D1
:10194000016003494FF00060803908607047000073
:1019500088ED00E02DE9F0430268234B234D244E2F
:10196000244C4FF08049984207D0484505D0A84202
:1019700003D0B04201D0A04203D122F070074A68E0
:101980003A431D4FDFF874C0DFF8748098420DD0E1
:1019900048450BD0A84209D0B04207D0A04205D09C
:1019A000B84203D0604501D0404503D122F44075D0
:1019B000CA682A434D6922F080022A4302608A687D
:1019C000C2620A688262984207D0A04205D0B8423B
:1019D00003D0604501D0404501D10969016301216F
:1019E0004161BDE8F0830000002C0140000400408C
:1019F0000008004000340140004001400044014024
:101A00000048014010B501F01F030121046A99400C
:101A10008C430462016A9A401143016210BD0000C8
:101A20002DE9F043026A22F001020262056A43686E
:101A300082691C4C25F0020522400C6822F003024A
:101A400014438A68194E2A43174D194FDFF864C0B2
:101A5000DFF86490A84207D0B04205D0B84203D066
:101A6000604501D0484506D122F00808CA6842EA1C
:101A7000080222F00402A84207D0B04205D0B842C2
:101A800003D0604501D0484505D14D6923F440732A
:101A90001D438B692B434360846149684163026243
:101AA000BDE8F0838FFFFEFF002C014000340140B1
:101AB000004001400044014000480140F0B5026A86
:101AC00022F010020262056A42688369194C1B4EBB
:101AD00023400C6823F4407343EA042425F02003D8
:101AE0008D6843EA0513144DA84201D0B04206D1D7
:101AF000CF6823F0800343EA071323F04003A84292
:101B00000AD0B04208D00E4DA84205D00D4DA842D3
:101B100002D00D4DA84207D14D6922F4406242EA3D
:101B200085028D6942EA8502426084614968816369
:101B30000362F0BDFF8FFFFE002C01400034014026
:101B4000004001400044014000480140F0B5026AF5
:101B500022F480720262056A4368C269194C1B4E06
:101B600022400C6822F00302144325F400728D68B1
:101B700042EA0522144DA84201D0B04206D1CF68F6
:101B800022F4006242EA072222F48062A8420AD0CC
:101B9000B04208D00E4DA84205D00E4DA84202D04A
:101BA0000D4DA84207D14D6923F4405343EA051374
:101BB0008D6943EA05134360C4614968C1630262E9
:101BC000F0BD00008FFFFEFF002C014000340140FB
:101BD000004001400044014000480140F0B5026A65
:101BE00022F480520262056A4268C369194C1B4E96
:101BF00023400C6823F4407343EA042425F4005383
:101C00008D6843EA0533144DA84201D0B04206D195
:101C1000CF6823F4004343EA073323F48043A84208
:101C20000AD0B04208D00E4DA84205D00D4DA842B2
:101C300002D00D4DA84207D14D6922F4404242EA3C
:101C400085128D6942EA85124260C4614968016467
:101C50000362F0BDFF8FFFFE002C01400034014005
:101C600000400140004401400048014030B5026A94
:101C700022F480320262046A4268036D114D2B40E7
:101C80000D681D4324F400330C8943EA04430E4CD1
:101C9000A0420BD00D4CA04208D00D4CA04205D064
:101CA0000C4CA04202D00C4CA04204D14C6922F44E
:101CB000803242EA04224260056549688164036219
:101CC00030BD00008FFFFEFF002C014000340140BA
:101CD00000400140004401400048014030B5026A24
:101CE00022F480120262046A4268036D114D24F4EA
:101CF00000142B400D6843EA05230D8944EA05547E
:101D00000D4DA8420BD00D4DA84208D00C4DA84255
:101D100005D00C4DA84202D00B4DA84204D14D690C
:101D200022F4802242EA8522426003654968C16448
:101D3000046230BDFF8FFFFE002C014000340140E3
:101D40000040014000440140004801403FB514A15B
:101D5000D1E90021CDE9002113A2D2E90012CDE999
:101D60000212416EB9B1026891689268C1F3426192
:101D7000520F1DF80240E50002ACA25CB5FBF2F286
:101D8000A0F86A201DF80120615CD200B2FBF1F1DD
:101D9000A0F868103FBD0121A0F86A10F8E7000024
:101DA0000101010307010000080402040801010108
:101DB00090F82810C90706D001684A68C36A22F45F
:101DC00000321A434A6090F82810890706D5016846
:101DD0004A68036B22F480321A434A6090F8281054
:101DE000490706D501684A68436B22F480221A43EA
:101DF0004A6090F82810090706D501684A68836B85
:101E000022F400421A434A6090F82810C90606D509
:101E100001688A68C36B22F480521A438A6090F882
:101E20002810890606D501688A68036C22F40052DE
:101E30001A438A6090F82810490611D501684A684B
:101E4000436C22F480121A434A60416CB1F5801F42
:101E500006D101684A68836C22F4C0021A434A60C2
:101E600090F82810090606D501684A68C06C22F46B
:101E7000002202434A607047F8B500260446C0F8C5
:101E80008860FEF739FB0546206800686FF07E47E2
:101E9000000708D52B4600224FF40011204600977A
:101EA00000F056F960B92068006840070AD52B4653
:101EB00000224FF480012046009700F049F908B154
:101EC0000320F8BD2020C4F88000C4F8840084F802
:101ED0007C600020F8BD00002DE9F0410446026856
:101EE00080682169E3690843616900251943084353
:101EF000616EDFF830C2014310688B4B1840084315
:101F0000106020684168E26821F44051114341604B
:101F10002168A069614501D0226A10438A68834B19
:101F20001A4002438A602068C16A626A21F00F0188
:101F30001143C1627E4923687E488B420DD1D0F89F
:101F4000880010F0030006D0012855D0022842D0A6
:101F500003283FD152E001203DE077498B420BD16D
:101F6000D0F8880010F00C0035D0042833D00828B1
:101F700040D00C282ED141E070498B420BD1D0F8D3
:101F8000880010F0300026D0102835D0202831D01D
:101F900030281FD132E06A498B420BD1D0F888003B
:101FA00010F0C00017D0402826D0802822D0C028AA
:101FB00010D123E063450DD1D0F8880010F44060C3
:101FC00009D0B0F5806F17D0B0F5006F12D0B0F522
:101FD000406F13D010205B495B4F00264FF4004246
:101FE000634539D160B1022813D004280BD00828EA
:101FF00031D10DE00220EEE70420ECE70820EAE70B
:10200000FEF7A4FD01E0FEF7C5FD010001D17EE071
:102010001146606A37F810206768B1FBF2F007EBF1
:10202000470383426FD8B0EB073F6CD800230846C4
:102030001946FEF7EDF8090241EA1061020278083C
:10204000101871413A460023FEF7E2F83F4AA0F526
:102050004071914259D956E0E3694FF6EF789342C7
:102060002DD109284FD2DFE800F00508114E0D4EA2
:102070004E4E1000FEF76AFD01E0FEF779FD01000B
:1020800004D144E0FEF786FDF9E71146606A37F8AF
:102090001000B1FBF0F04100606801EB5001B1FBB2
:1020A000F0F080B2A0F1100141452CD84FF6F0714C
:1020B0000140C0F3420001432068C16027E00928C5
:1020C00021D2DFE800F0050811200D2020201000AB
:1020D000FEF73CFD01E0FEF74BFD010004D116E0E8
:1020E000FEF758FDF9E71146606A37F81000B1FBBA
:1020F000F0F1606801EB5001B1FBF0F080B2A0F1AB
:102100001001414501D9012501E02168C860012085
:10211000A4F86A0024F8680F28466660A660BDE847
:10212000F081000000800040F369FFCFFFF4FF1151
:1021300000380140001002400044004000480040C8
:10214000004C00400024F4009C220008FFFC0F001B
:102150002DE9F0479A4617460E4604464FF000090F
:102160004FF02008089D39E0681C37D0FEF7C4F90D
:10217000A0EB0A00A84222D80DB3206801684907E5
:102180002CD5C069C043000528D421684FF40060F5
:1021900008622068016821F4D071016020688168BC
:1021A00021F001018160C4F88080C4F88480C4F803
:1021B000888000BF84F87C900320BDE8F087206809
:1021C000016821F4D07101602068816821F001016B
:1021D0008160C4F88080C4F88480EBE72068C0691F
:1021E00036EA000004D00020B842BDD00020E4E769
:1021F0000120F9E7FEE70907090E002804DB00F1DA
:10220000E02080F80014704700F00F0000F1E0209B
:1022100080F8141D704702E008C8121F08C1002A88
:10222000FAD170477047002001E001C1121F002A57
:10223000FBD170472DED048BFEF76CF9FFF734FBF3
:10224000FFF704FAFFF74EFAFFF77EFAFFF79AFA64
:1022500000211048FFF7AAF89FED0F8A0D4CB7EE4A
:10226000009A4FF47A754FF07E56F0EE488A00BF20
:1022700038EE098A2168BCEEC80A10EE100A4863DD
:102280002846FEF73DF818EE101AB142F0DDB0EE28
:10229000688AEDE7C4000020000000000100020091
:1022A0000400060008000A000C0010002000400096
:1022B0008000000100000000000000000102030493
:1022C000060708090000000001020304EC220008D0
:1022D000000000201000000016220008FC22000868
:1022E0001000002000050000262200081000000059
:0C22F00001000000000000000024F400C9
:04000005080001D915
:00000001FF
